:020000040800F2
:1020000000040020392200083B2200083B2200087F
:102010003B2200083B2200083B2200083B2200082C
:102020003B2200083B2200083B220008A59B000839
:102030003B2200083B2200083B220008F5B50008BF
:102040003B2200083B2200083B2200083B220008FC
:102050003B2200083B2200083B2200083B220008EC
:102060003B2200083B2200083B2200081DAF00086D
:1020700031AF000845AF000859AF00086DAF000848
:1020800081AF000895AF00083B2200083B22000802
:102090008DB700083B2200083B2200083B220008C5
:1020A0003B2200083B2200083B2200083B2200089C
:1020B0003B2200083B2200083B2200083B2200088C
:1020C0003B22000849B1000861B200083B22000829
:1020D0003B22000839B700083B2200083B220008D9
:1020E0003B2200083B2200083B2200083B2200085C
:1020F0003B2200083B2200083B2200083B2200084C
:102100003B2200083B2200083B2200083B2200083B
:102110003B2200083B2200083B2200083B2200082B
:102120003B2200083B2200083B2200083B2200081B
:102130003B2200083B2200083B2200083B2200080B
:102140003B2200083B2200083B2200083B220008FB
:102150003B2200083B2200083B2200083B220008EB
:1021600072B6264880F30888254880F309882548F8
:1021700025490860022080F31488BFF36F8F07F0B1
:1021800039FA06F006FE4FF0553020491B4A9142BD
:102190003CBF41F8040BFAE71D49194A91423CBF84
:1021A00041F8040BFAE71B491B4A1C4B9A423EBFFD
:1021B00051F8040B42F8040BF8E700201849194ABB
:1021C00091423CBF41F8040BFAE707F017FA07F019
:1021D00012FA154C154DAC4203DA54F8041B88472B
:1021E000F9E702F03DFC124C124DAC4203DA54F810
:1021F000041B8847F9E707F0FFB90000000400203E
:10220000000C00200020000808ED00E00000002085
:102210000004002024C60008000C0020D01000207C
:10222000D0100020703700206021000860210008D5
:10223000602100086021000892E700F000F8FEE746
:102240002DE9F04FC1F80CD0C3689D46BDE8F08F72
:10225000002383F311882846A047002007F0A8FB3D
:10226000FEE707F001FB00DFFEE7000053B94AB9C3
:10227000002908BF00281CBF4FF0FF314FF0FF308E
:1022800000F074B9ADF1080C6DE904CE00F006F869
:10229000DDF804E0DDE9022304B070472DE9F047E2
:1022A0008C460446089E002B40F086808A421546E4
:1022B00048D9B2FA82F24AB1C2F1200701FA02F318
:1022C00020FA07F7954047EA030C94404FEA154E71
:1022D000BCFBFEF71FFA85F80EFB17C307FB08F9D6
:1022E000210C41EA0343994509D9EB1807F1FF3165
:1022F00080F0E180994540F2DE80023F2B44A3EB61
:102300000903B3FBFEF00EFB103300FB08F1A4B28F
:1023100044EA0344A14209D92C1900F1FF3380F0AB
:10232000C880A14240F2C58002382C4440EA0740F0
:102330000027641A1EB10023D440C6E90043394681
:10234000BDE8F087002A54D0B2FA82F2002A40F0A9
:10235000B4800127491B4FEA15481FFA85F9B1FBE4
:10236000F8FE08FB1E1109FB0EF04FEA144C4CEA74
:102370000143984207D9EB180EF1FF3102D298427F
:1023800000F2EB808E461B1AB3FBF8F008FB10330B
:1023900009FB00F9A4B244EA0344A14507D92C196A
:1023A00000F1FF3302D2A14500F2DB801846A4EB16
:1023B000090440EA0E40BDE78B4208D9002E75D0D3
:1023C0000027C6E9000138463946BDE8F087B3FA70
:1023D00083F77FB98B4202D3824200F2BC80841A19
:1023E00061EB030301209C46002EA8D0C6E9004CF7
:1023F000A5E7FFDEC7F12005BB4022FA05FC4CEA49
:10240000030C21FA05F44FEA1C4EB4FBFEF91FFA47
:102410008CF80EFB194420FA05F3B94009FB08FAC1
:1024200019430B0C43EA0444A24502FA07F200FAEE
:1024300007F30BD91CEB040409F1FF3080F089800D
:10244000A24540F28680A9F102096444A4EB0A0483
:10245000B4FBFEF00EFB104400FB08FA89B241EA1F
:102460000444A24508D91CEB040400F1FF316CD2EE
:10247000A2456AD90238644440EA0940A0FB0289B7
:10248000A4EB0A044C454146CE4655D352D0002E0B
:102490006AD05A1A64EB0E0404FA05F522FA07F31F
:1024A000FC401D43C6E90054002748E73746304644
:1024B00045E718463AE70F4621E79540C2F1200369
:1024C00021FA03F04FEA1548B0FBF8F71FFA85F937
:1024D00008FB170E24FA03FC914007FB09FA4CEAAB
:1024E0000101080C40EA0E40824504FA02F407D9C3
:1024F000281807F1FF332AD2824528D9023F284401
:10250000A0EB0A00B0FBF8FC08FB1C000CFB09F375
:1025100089B241EA00418B4208D969180CF1FF30B9
:1025200011D28B420FD9ACF1020C2944C91A4CEAE2
:10253000074714E74345AAD2B8EB020169EB0C0246
:1025400001389646A3E78446F0E7084694E71F461D
:10255000D6E781467AE7384646E7AEF1020E2B44CD
:1025600011E702382C4422E73746E8E6704700BFFF
:10257000032A70B412D940EA0105AD0704460B46A0
:1025800020D11946204653F8045B54F8046BAE4240
:1025900018D1043A032A20461946F2D8541E72B1C3
:1025A00003780A789A4208BF241806D00CE010F885
:1025B000013F11F8012F934206D1A042F7D100202C
:1025C00070BC7047541EEBE7981A70BC704700BF90
:1025D000844641EA000313F0030349D1403A23D370
:1025E0000B6803604B6843608B688360CB68C36093
:1025F0000B6903614B6943618B698361CB69C3617B
:102600000B6A03624B6A43628B6A8362CB6AC36262
:102610000B6B03634B6B43638B6B8363CB6BC3634A
:1026200040304031403ADBD230320BD30B6803608C
:102630004B6843608B688360CB68C3601030103197
:10264000103AF3D20C3205D351F8043B40F8043B66
:10265000043AF9D2043208D0D2071CBF11F8013B6A
:1026600000F8013B01D30B8803806046704700BF30
:10267000082A13D38B07B1D010F00303AED0C3F1F7
:102680000403D21ADB071CBF11F8013B00F8013B21
:10269000A4D331F8023B20F8023B9FE7043AD9D398
:1026A000013A11F8013B00F8013BF9D20B780370B5
:1026B0004B7843708B78837060467047F0B4860720
:1026C00046D0541E002A3CD0CAB2034602E014F1A0
:1026D000FF3436D303F8012B9D07F8D1032C29D9F9
:1026E000CDB245EA05250F2C45EA054533D9A4F1BD
:1026F0001006360903F1200707EB061703F1100255
:1027000042E9045542E902551032BA42F8D1721C2E
:1027100014F00C0F03EB021204F00F0613D0331F5A
:1027200023F003030433134442F8045B9342FBD1C8
:1027300006F003042CB1C9B21C4403F8011B9C42EF
:10274000FBD1F0BC704734461346002CF3D1F8E7B8
:1027500014460346C2E71A462646E0E701280BD88E
:10276000012909D8012A07D801EB4001034B02EBEC
:10277000410233F8120070470120704716BE00086E
:10278000A0F58073B3F5F85F10B526D210F4805F22
:1027900000F4007400F4807300F4806100F40062BF
:1027A0000DD0002B0CBF002010200CB140F02000F9
:1027B00009B140F040000AB140F0800010BD181C83
:1027C00018BF01200CB140F0020009B140F0040034
:1027D000002AF3D040F00800F0E70020EEE710B543
:1027E0000C46FFF7CDFF2346BDE810401847000018
:1027F000A0F1E003072B10B5044600D940B92046EC
:102800000449FFF7ECFFE0B2BDE8104000F01EBA4B
:102810000149F6E7A52D0008C92D000810B50446AA
:10282000C0B200F05DFAA4F1E003072B00D92CB987
:1028300003492046BDE81040FFF7D1BF0149F8E742
:10284000B72D0008DB2D00080120704701207047DC
:1028500008B5FFF7FBFF08BD012070470120704756
:102860000120704708B5FFF7FBFF08BD70477047B0
:1028700008B5FFF7FCFF08BD01207047704770479F
:1028800013B502AB03E903000F4B1B78B3B99DF8F6
:102890000530009873B16AB100F0CAFE04460146E3
:1028A000009800F095FE2046009902B0BDE8104067
:1028B00001F0A2BE00F0A6FE0446F4E7009800F086
:1028C000B7FE0099F1E700BFD5100020034600894C
:1028D00010B40A4638B95C881888998840EA0440E0
:1028E00010BCFFF7CDBF10BC704710B504460121E6
:1028F000FFF7ECFF2146FFF7A7FF18B9002000F013
:10290000010010BD01212046FFF7E0FF2146FFF73F
:102910009FFF0028F2D001212046FFF7D7FF214674
:1029200003F05EFFEBE738B500210446FFF7CEFF6A
:1029300005462146FFF79AFF21462846FFF798FFF4
:1029400038BD012303FA00F0C0B200F0A2BD10B5FB
:1029500004460120A040C0B201F0EFFB2046BDE8D4
:102960001040FFF7EEBF0120704708B5FFF7FBFFEF
:1029700008BD10B5044600F051FA2046FFF77CFF71
:102980002046FFF7F2FFBDE8104046F2A81007F01E
:1029900014B808B50120FFF7ECFFBDE8084005F0CA
:1029A000FBBE08B50020FFF7E4FFBDE8084005F0D6
:1029B000F7BE38B504460D4605F022FA20B10121D4
:1029C0002846FFF783FF044629462046FFF746FFC7
:1029D00008B9002038BD29462046FFF743FF0028EC
:1029E000F7D02946204605F045FB0028F1D02946BE
:1029F000204602F01DFF0028EBD02946204604F0B7
:102A000053FB0028E5D02946204605F015FA00289A
:102A1000DFD02946204603F067FC0028D9D029469C
:102A2000204605F065F90028D3D02946204604F059
:102A300089FC0028CDD02946204604F033FA00282E
:102A4000C7D02946204605F069FA0028C1D029469A
:102A5000204601F0E9FE0028BBD06B795BB147F658
:102A600003439C421DD00AD8B4F5F84F16D047F660
:102A700001439C4217D02846FFF7EEFEAAE747F62F
:102A80005B439C4215D047F65C439C420ED047F610
:102A90005A439C42EFD101F02BFBECE7FFF779FFA3
:102AA00097E701F02BFBFFF77CFF92E701F014FBA7
:102AB000E1E701F020FBDEE710B504460121FFF756
:102AC00005FF2146BDE81040FFF773BF08B5FFF7CB
:102AD000D5FE05F0ACFD00F02FF8BDE8084003F08E
:102AE00081BA08B500F02DF8FFF7C9FEBDE808402F
:102AF00005F0A2BD03091CBF1846042382081EBFAF
:102B000010460233DBB242081CBF0133DBB2184669
:102B1000704701207047704738B50546FFF7F9FF49
:102B2000044610B12846FFF7F6FF204638BD70472F
:102B300008B5FFF7F1FF08BD08B50020FFF7F8FF63
:102B400008BD08B505F078FBFFF7F2FF08BD0000EF
:102B500010B505F071FB074B04461A78824207D086
:102B6000187005F0CBFD044B18602046FFF7E0FF1E
:102B700010BD00BFD4100020D010002030B587B0A9
:102B80006C4684E803009DF804309DF80550002B46
:102B900039D094E803000022FFF772FE1E4B35B1D6
:102BA00000211E4A1880117001F01AF905E01B88F7
:102BB000834202D10122194B1A700023ADF8123062
:102BC000ADF81430164B94E803005B7803905B0774
:102BD000ADF810100DD5134B5B8853B101F0AAF876
:102BE00010B1022001F048FA01F082F808B101F0BA
:102BF00089F99DF8103003AC43B994E8070001F05F
:102C00000DF807B030BD002DD7D0CDE72046FFF737
:102C10006CFE0028F1D1F4E7D6100020DA10002075
:102C2000342F00207C3000200379012B02D1008852
:102C300000F020BD704708B529B104F0EBFCBDE8F9
:102C4000084004F0BBBD04F043FDF8E710B50446AE
:102C5000002840D0031FDBB2A02B0ED805F06EFB7E
:102C600020B1204605F0F8FB01F0C0F9204605F040
:102C7000D5FBBDE8104001F0B9B900F12003DBB28B
:102C8000072B07D800F007040120A040C0B201F0D4
:102C90007BF8EEE700F15B03DBB2022B05D8BDE861
:102CA00010400D4AD05C05F0EBBA00F15803DBB2DE
:102CB0001A2B06D8BDE81040084A32F8130005F078
:102CC000FBBA3334E4B2122C05D804F0A3FCBDE8FF
:102CD000104004F073BD10BD26BE00082ABE0008D7
:102CE00008B50346A0B3021FD2B2A02A05D805F04A
:102CF000B3FBBDE8084001F079B900F12002D2B27F
:102D0000072A07D800F0070301209840C0B201F05D
:102D100043F8EEE700F15B02D2B2022A04D8BDE824
:102D20000840002005F0ACBA00F15802D2B21A2ACD
:102D300004D8BDE80840002005F0BEBA3333DBB24A
:102D4000122B05D804F0C4FCBDE8084004F036BDE1
:102D500008BD000070B50C460546FFF777FF84B14B
:102D600040F2E7300021084E4FF47A720023E6FB70
:102D70000401FFF77BFA06F020FE2846FFF7B0FFBC
:102D800070BD0120F7E700BFA086010008B5044B25
:102D900039280CBF198CD98BFFF7DCFF08BD00BFA9
:102DA0007C30002008B528B100F0EEFFBDE80840F7
:102DB00001F01CB908BD08B528B100F0EDFFBDE871
:102DC000084001F013B908BD08B528B100F0F8FFBC
:102DD000BDE8084001F00AB908BD08B528B100F007
:102DE000F7FFBDE8084001F001B908BD08B50020B3
:102DF00005F046FA002005F05FFA00F0F1FF01F05F
:102E0000F5F804F0F7FCBDE8084004F0D7BC08B5BD
:102E100005F040FBBDE80840FFF7E8BF08B500F04B
:102E2000C3FFBDE80840FFF7F2BFC0F303320E3224
:102E300002F00F02092A10B5C4B21BD8012101FA11
:102E400002F340F20332134203D113F010000DD10C
:102E500010BDF02C10D004D8E72C8CBF002001202E
:102E6000F6E7F42C14BF00200120F1E7E72C03D98A
:102E7000F12CF7E70020EBE70846E9E708B5034641
:102E8000007958B1188928B101F0DCFABDE8084092
:102E9000FFF7CBBF188800F0EDFBF7E708BD000097
:102EA0002DE9F74FEA46814606220C460146504678
:102EB000FFF78EFB99F8066099F8055000F054FF73
:102EC0003609804618B3A8460DB3C4F3072303F0B0
:102ED000F002402A0CD0E1B201F12002D2B2072A5E
:102EE00027D903F0E003202B02D1012921D91EB3F9
:102EF000AB4B93F8018018F0040808D0022001F0D1
:102F0000BBF800F031FF80F001005FFA80F8C4F3F5
:102F100003330B2B44D8DFE813F0110011007500C8
:102F2000750002011801430043001D018101920157
:102F300092014FF00008EAE7B046E8E7C4F3072340
:102F4000C4F3032713F0F00F18BF3F015FFA84FBAF
:102F500095B167B10BF12003DBB2072B384602D9DC
:102F6000BBF1000F05D100F00FFF01F03FF858460C
:102F700069E000F025FFF8E75846FFF7B1FE7FB1A2
:102F80000BF12003DBB2072B384602D9BBF1000F4F
:102F900002D100F001FF01E000F01AFF01F026F875
:102FA000C4F30333083B032B05D805F045F9FFF7BD
:102FB000BFFD4FF000082046FFF737FF40B1002D5E
:102FC00000F0D681002E00F0CB810022754B1A70E4
:102FD000B8F1000F00F0FC8100F0A4FE10F0010039
:102FE00040F0F68189F8050000F096FE00F084FAC2
:102FF000484600F015FA00F08FFE03B0BDE8F04F30
:1030000000F086BAC4F3072303F0F003C4F30327E8
:10301000202B5FFA84FB18BF3F01BBF1000F06D0E5
:10302000BBF1010F4ED0002D5BD0C6B19FE75C4BCA
:103030005B785A0711D44DB127B1384600F0A4FE91
:1030400000F0D4FF0020FFF701FEA9E72846FFF7B4
:1030500047FE002FA4D038469BE7D5B11EB93846AD
:10306000FFF7A0FE9CE7012E03D1384600F004FFD5
:1030700096E74D4B1B7F012B92D9B34290D1384636
:10308000FFF790FE384600F00DFF384600F0D2FE04
:1030900086E74EB93846FFF78EFE384600F002FF4D
:1030A000384600F0D5FE7BE73F4B1B7F012B7FF6B8
:1030B00077AF012E7FF474AF00F060FE38423FF42A
:1030C0006FAFE7E7384B93F822301DB19E423FF6D1
:1030D00067AFC4E79E42BFF463AF3846FFF76BFEAD
:1030E0005EE7002EF9D0BBF1390F2F4B15D11F8CA5
:1030F00067B140F2E7300021DFF8B0C04FF47A72D8
:103100000023ECFB0701FFF7B1F800E0012006F017
:1031100054FC5846FFF7E4FD42E7DF8BE8E7C4F3D1
:10312000812343B1012B7FF43BAF65B1C4F30900A8
:1031300005F0C2F834E725B1C4F3090005F0A0F8A2
:103140002EE72846FAE72846F2E72946E0B2FFF7DD
:1031500072FD25E714F4407F30D1002D7FF420AFBD
:10316000C4F342108000C3B204F00F009840C2B212
:1031700014F010001EBF0F209840C043C4F38123F9
:1031800018BFC0B2022B40EA020011D013D8012BA5
:1031900002D000F089F903E700F07EF900E700BFF4
:1031A000342F0020DA1000207C300020A08601009F
:1031B00000F082F9F4E600F06CF9F1E6C4F30122C4
:1031C000D3B205B302F00103002B3FF4E9AEC4F320
:1031D00042108000C3B204F00F009840C2B214F055
:1031E00010001EBF0F209840C043C4F3812318BFB6
:1031F000C0B2022B40EA02000AD00CD8012B04D046
:1032000000F0A6F9CCE65B08DEE700F099F9C7E626
:1032100000F0A6F9C4E600F05DF9C1E65FFA84FBB0
:10322000C4F3032725B1384600F066F9584617E77E
:103230005846FFF7C0FD384600F06AF9B0E6E7B23D
:10324000A7F1F003042B63D8DFE803F00327131A78
:103250002300614B93F822303DB19E42BFF4A0AEF3
:10326000C4F3042000F060F99AE69E423FF698AE5F
:10327000F6E7C4F30420002DDED100F03DF98FE61F
:1032800025B1C4F3042000F030F989E600F02AF9F2
:1032900086E6524B5B785B0704D4C4F30420002D10
:1032A000CAD0EAE74C4F3B7F012B20D9ADB100F0EB
:1032B00039FD042808D100F0D1FEC4F3042000F049
:1032C00027F94FF000086BE63B7FB342F9D90321A1
:1032D000C4F3042000F0A4FEF3E7B34203D800F0E7
:1032E000BDFE0421F4E7012000F0C6FEE9E72DB1A0
:1032F0000321C4F3042000F093FE51E6012000F006
:10330000BBFE012E7FF64CAE022000F0B5FE47E674
:103310002DB10EB1384696E6C4F30420ADE7E6B110
:10332000392F2D4B16D1B3F820C0BCF1000F0CD0B3
:1033300040F2E7300021DFF8B8E04FF47A72002362
:10334000EEFB0C01FEF792FF00E0012006F035FBDA
:103350003846DFE6B3F81EC0E7E7C4F304206BE7A6
:103360001F4C204B22781A7000F008FD20702FE6C9
:103370008DF805502A469AE80300FFF781FA0546C2
:1033800000F0FCFC07462EB10022174B1A70144BBC
:103390001F701DE6154B1888A842F8D1494602F067
:1033A00023FC0028F0D0104B1B78002BECD00D4DE7
:1033B0002878FFF7F7FC012006F0FFFAE0B2FFF7EC
:1033C000E5FC012006F0F9FA2878FFF7F4FCDBE7CA
:1033D00003B0BDE8F08F00BF7C300020342F002008
:1033E000D9100020D8100020DA100020D6100020BC
:1033F000A086010038B50446008960B101F022F8CA
:10340000054600F0B5F800F043F829462046BDE82F
:103410003840FFF745BD2188607900F037F9EFE7C4
:10342000037910B50446B3B1FFF746FB68B900F065
:103430009BFC80B1637973B1074B5B785B070AD55E
:10344000BDE81040022000F017BE2046FFF7D2FF73
:103450002046FFF768FA10BD342F002082B002AB7F
:1034600003E9030002B0704784B004AB03E907002E
:1034700004B07047704708B5FFF7FCFF08BD0000B7
:1034800008B5FFF7F8FF014B187008BDDB100020EE
:103490007047FFF7F5BF0000024B1B781843FFF79A
:1034A000EFBF00BFDB100020024B1B781840FFF776
:1034B000E7BF00BFDB100020024B1B785840FFF72E
:1034C000DFBF00BFDB100020704708B5FFF7FCFF2F
:1034D00008BD000008B5FFF7F8FF014B187008BDE4
:1034E000DC1000200020FFF7F5BF012303FA00F0F5
:1034F000C0B2FFF7EFBF0000012303FA00F0034B57
:103500001B781843C0B2FFF7E5BF00BFDC100020F6
:10351000012303FA00F0034B1B7823EA0000FFF7B6
:10352000D9BF00BFDC100020012303FA00F0034BD9
:103530001B785840C0B2FFF7CDBF00BFDC100020A1
:10354000024B1B781843FFF7C5BF00BFDC100020FB
:10355000024B1B781840FFF7BDBF00BFDC100020F6
:10356000024B1B785840FFF7B5BF00BFDC100020AE
:10357000704701F00703C90830B501EB4101012490
:1035800001390A4400219C40E4B212F8015F20FA9C
:1035900001F343F300036B40234001316B400329E7
:1035A0001370F2D130BD002210B500F00704C0083E
:1035B00000EB4000014410468B5CE34003F0010344
:1035C000934001321843032AC0B2F5D110BD000068
:1035D00017B40C46C0F307210129ADF804000BD83D
:1035E0009DF80430012B07D82046054A03EB410122
:1035F00003B010BCFFF7BDBF03B010BC704700BFE5
:10360000DD10002082B0ADF80400C0F307200128CF
:1036100009D89DF80430012B05D8044903EB40007C
:1036200002B0FFF7C0BF002002B07047DD100020DD
:1036300073B503240D4BADF804001E780C4B1B78BA
:103640001E4346FA04F3DB07E5B206D414F1FF3457
:10365000F7D20025284602B070BD0199284600F037
:10366000EBFF80B20128F1D0F4E700BFDC100020AE
:10367000DB10002007B5ADF804000198FFF7D8FF74
:10368000019903B05DF804EB00F0D6BF13B5104B01
:10369000ADF804101B782BB1019802B0BDE81040C2
:1036A000FFF7E8BF70B10198FFF7C2FF044601467B
:1036B0000198FFF78DFF2046019902B0BDE8104048
:1036C00000F0BABF0198FFF79DFF0446F3E700BF83
:1036D000D510002010B5012404FA02F204FA01F119
:1036E0001143C9B231EA000204FA03F306BF1843DA
:1036F000C0B2984310BD000008B513460A46014603
:1037000003480078FFF7E6FFBDE80840FFF7E2BE98
:10371000DC100020F8B50A270D4B0E4E1C780E4D1C
:103720003378A34200D1F8BD07FB04F2AB18A85AC6
:10373000B3F802C09A88D98840EA0C4042EA0141B5
:1037400001341A89FFF790FE04F00704E8E700BF90
:103750003B1100203A110020EA100020064B10B463
:103760009A885C881888D98840EA044042EA014176
:1037700010BC1A89FFF778BEE0100020F0B50A27C8
:103780000D4B0E4A1B7816780D4CB34202D1002225
:103790001046F0BD07FB03F5621992F801C08C4595
:1037A00005D1655D854202D15279002AF0D10133FD
:1037B00003F00703E9E700BF3B1100203A110020A6
:1037C000EA1000202DE9F047204CA37913F0F00F08
:1037D0000CD1637953B1A0461D4BDFF878A01D785A
:1037E000DFF874909AF80030AB4201D1BDE8F08761
:1037F0000A236B4309EB0306327912B339F803202D
:1038000023889A421DD17179D9B963887788404657
:10381000FF1AFFF75BF8414601F0E8FFBFB28742AD
:103820000FD20122A379094862F30713A371B37978
:1038300062F30713B371FFF7F3FDBDE8F047FFF73D
:1038400069BF013505F00705CCE700BFE010002097
:103850003B1100203A110020EA1000202DE9F04F22
:1038600004468DB0B84D0146062204A8FEF7B0FE0E
:10387000297922796779A946E1B922B9012630462A
:103880000DB0BDE8F08F8FB12046FFF7F7FA06467E
:1038900060B10A2221462846FEF79AFE2846FFF725
:1038A000C3F9FFF78FFFFFF759FFE8E72046FFF75F
:1038B000B7FDE3E72378002128460392019394F8AB
:1038C00001A0B4F80280FFF701F86E790290039A24
:1038D000002E00F0ED8000212846B5F802B0FEF77A
:1038E000F5FF294601F082FFA8EB0B0B1FFA8BFBBB
:1038F0008345039A80F08980002ABFD0AA7928885E
:1039000012F0F00F218842D1884213D128892189F1
:1039100088420FD1002F40F07081012363F307121A
:10392000AA71FFF71BFF2846FFF77AFDAB79A37159
:103930000026A4E7002F40F0608151460198FFF770
:103940001DFF002800F028817F49029802F030F91D
:10395000002800F021817C48FFF762FD0A22002147
:103960007948FEF7ABFEFFF7F9FEE1E710F4706F60
:1039700000F03981A27912F0F00F40F034812E4628
:103980007DE7EF2BFBD90F33DBB2022B2EE1884210
:103990000ED12889218988420AD14FB9A2712046C7
:1039A000FFF73EFD0A2221462846FEF711FE7AE780
:1039B0002046FFF763FA00283FF478AF002F3FF46A
:1039C00075AF99F806201F2A15D9B9F80010B9F873
:1039D0000830ADF8181099F80410ADF81A808DF879
:1039E0001C1000218DF81E208DF81D10ADF8203020
:1039F00006A8FFF715FD0A2221465348FEF7E8FD09
:103A0000FFF7E0FEFFF7AAFE38E7A97911F0F00B07
:103A100016D1019B8DF814208DF810308DF811A06F
:103A200004ABADF812808DF8157093E80300FFF732
:103A300015FD2846FFF7F4FC0A225946284690E770
:103A4000002A3FF41BAF2888228890420ED1288993
:103A5000228990420AD14FB9A1712046FFF7E0FCBC
:103A60000A2239462846FEF729FE08E72046FFF7D6
:103A700005FA00283FF41AAF002F3FF417AF99F86A
:103A800006201F2AB7D9B9F80010B9F80830ADF8E8
:103A9000241099F80410ADF826808DF82810002124
:103AA0008DF82A208DF82910ADF82C3009A8A0E750
:103AB000314628460292B5F802B0FEF707FF2946C4
:103AC00001F094FEA8EB0B0B1FFA8BFB8345029AC7
:103AD0004CD2002A3FF4D2AE3E46002F3FF4E6AE71
:103AE00029882288914231D12989228991422DD178
:103AF0006A8800212846A8EB0208FEF7E7FE29465F
:103B000002F068F81FFA88F8804517D2AA79D3071F
:103B100014D412F0F00211D0AB79F02AA37106D0C0
:103B2000DBB2C3F30312013262F30713A371204621
:103B3000FFF776FC0A222146034836E70A2221468F
:103B40000148FEF745FD9AE6E01000202046FFF709
:103B500095F900287FF44FAF99F80620204642F0EF
:103B6000010289F80620FFF75BFC88E6019B8DF8CF
:103B700014208DF810308DF811A0ADF812808DF85A
:103B8000157004AB93E80300FFF768FC0A22314686
:103B90002846FEF793FD86E651460198FFF7EEFDB5
:103BA000054600287FF4C4AE019B8DF811A08DF866
:103BB00010300498FFF75EFDC0F303310B2917D8CE
:103BC00001228A4012F4406FC3B27FF4DAAE12F0E1
:103BD0000C0F7FF4CBAE92070AD010F4706F02D0B6
:103BE000002B3FF4CCAE2033DBB2072B7FF6C7AE01
:103BF0002046FFF715FC3546C1E699F80620064930
:103C000042F00102029889F8062001F0D9FF00284D
:103C10003FF48EAE9FE600BFE0100020F0B589B003
:103C200001AC84E807002046FFF718FE294E07463E
:103C3000294D70B19DF808301BB194E80700FFF7DB
:103C400013FC0A24254F28783378834226D109B003
:103C5000F0BD05AB94E8070003C31A809DF8083057
:103C6000002BEED033782A785C1C04F007049442D1
:103C70000AD00A22194805A902FB0300FEF7A8FC96
:103C80003470FFF747FDDCE7FFF7C8F80A22394632
:103C9000134837702F70FEF711FDD2E704FB007058
:103CA000FFF7DCFD0028D2D02A786243BB18B85A4F
:103CB000B3F802C09A88D98840EA0C4042EA014130
:103CC0001A89FFF7D1FB2B78013303F007032B7020
:103CD000B9E700BF3A1100203B110020EA10002094
:103CE000E0100020014B1878704700BF90110020B1
:103CF00010B5074C608850B104F036FD054B1B88A9
:103D0000C01A638880B283428CBF0020012010BD9E
:103D10007C30002092110020014B1878C0087047B9
:103D20008C110020024B187800F00700704700BF8C
:103D30008C11002008B504F017FD084B1B88C01A31
:103D4000074B80B25B88834297BF064B00201878F0
:103D500080F0040098BFC0F3800008BD8E110020E1
:103D60007C3000208C110020034B187810F00700E5
:103D700018BF0120704700BF8C110020014B18783C
:103D8000704700BF94110020024A13781843107046
:103D9000704700BF94110020024A137823EA000004
:103DA00010707047941100200022014B1A70704768
:103DB00094110020014B1878704700BF9611002025
:103DC000024A137818431070704700BF9611002004
:103DD000024A137823EA0000107070479611002001
:103DE0000022014B1A70704796110020014B187089
:103DF000704700BF971100200022014B1A707047D6
:103E000097110020014B1870704700BF95110020DA
:103E10000022014B1A70704795110020014B187851
:103E2000704700BF91110020704708B5FFF7FCFFF5
:103E300008BD000008B5054A137830EA030103D035
:103E400018431070FFF7F1FF08BD00BF901100206C
:103E500008B5054A1378034204D023EA0000107025
:103E6000FFF7E3FF08BD00BF90110020704708B5C1
:103E7000FFF7FCFF08BD000038B5084D04462B785D
:103E800030EA030309D004F06FFC054B18802B784F
:103E9000204623432B70FFF7EAFF38BD9111002025
:103EA0009211002010B5084C237803420AD023EA6F
:103EB0000000207008B104F057FC044B18802078F3
:103EC000FFF7D5FF10BD00BF911100209211002017
:103ED00038B5094B04465B785B070BD5074D2B784B
:103EE000834207D004F040FC054B2C70188020461C
:103EF000FFF7BDFF38BD00BF342F00209111002017
:103F00009211002008B5054B1A782AB100201870CC
:103F1000034B1880FFF7ABFF08BD00BF91110020D5
:103F20009211002038B50F4B0F4D1C780F4B2A789B
:103F30001878044372B10E4B5B8823B1FFF7D8FEAB
:103F400008B1FFF7DFFF2B781C4304F0D1F908B16B
:103F5000FFF7D8FF074B084A1B78107824EA0304C0
:103F6000204338BD941100209111002096110020AB
:103F70007C300020951100209711002038B50B4CA3
:103F80002568FFF7CFFF28702468082208492046DB
:103F9000FEF7EEFA48B1214608220548FEF718FB65
:103FA0002046BDE8384004F04FB938BD000C002071
:103FB0006411002038B50B4C2568FFF7B3FF68701B
:103FC0002468202208492046FEF7D2FA48B121464B
:103FD00020220548FEF7FCFA2046BDE8384004F0F0
:103FE0003BB938BD040C00206C11002008B504F06A
:103FF000EFFA012808D1064B93F90030002B03DAC1
:10400000BDE80840FFF7D6BFBDE80840FFF7B6BFE0
:10401000342F0020704708B5FFF7FCFF08BD0000F3
:104020000B4A10B5527852070ED50A4C41EAC0012E
:104030002170FFF761FA04F097FB074B1880207896
:10404000C008FFF7E8FF10BDBDE81040FFF754BA05
:10405000342F00208C1100208E110020002008B584
:10406000034B1870034B1880FFF7D5FF08BD00BF46
:104070008C1100208E11002008B50A4A137823EA1B
:104080000000107042070CD198420AD0064B5B78B2
:104090005B0706D5C008FFF73BFABDE80840FFF70D
:1040A000DDBF08BD8C110020342F0020094A08B55F
:1040B0005378C3F3800181420AD060F382035370C6
:1040C000108800F041F8BDE808400220FFF7D4BF97
:1040D00008BD00BF342F0020044B5878C0F3800087
:1040E00080F0010000F00100FFF7E0BF342F002056
:1040F0000120FFF7DBBF0020FFF7D8BF08B5002085
:1041000000F05AFDBDE808404FF6FF71002000F0B6
:1041100035BD08B5002000F0CAFC4FF6E5639842B3
:1041200003D1BDE8084003F04CBF002008BD0220C9
:1041300000F0AEBC032000F0ABBC0146032000F051
:104140000FBD042000F0B3BC0146042000F016BDF2
:1041500001460F2000F020BD0146132000F01CBDD9
:104160000020FFF7F9BF08B50020FFF7F1FFFFF7C8
:10417000F7FF08BD07B5002000F01EFD4FF6E56112
:10418000002000F0FBFC0021022000F0E9FC0120EF
:104190001B4B1870FFF7D1FF4FF4A051042000F023
:1041A000EDFC0021062000F0DBFC0021072000F0E0
:1041B000D7FC0021082000F0EFFC0021232000F0B4
:1041C000CFFC00210C2000F0CBFC00210D2000F0E2
:1041D000C7FC002300226846CDE9002317210822EE
:1041E00000F0A4FC00211F2000F0D6FC002003F00A
:1041F000FDFE03F020FFFFF7B6FF03B05DF804FB00
:10420000DB100020FFF7B6BF01460E2000F0A8BC6F
:1042100073B504F0A9FA0B4C0546238883420ED0EF
:104220000026ADF8006004F09FFAADF80460ADF828
:10423000020002AB13E90300FEF7A0FC258002B0E8
:1042400070BD00BFA011002008B504F057FA024B62
:104250001860024B186008BD981100209C110020C6
:104260007047704708B5FFF7FCFF08BD704708B5F9
:10427000FFF7FCFFFFF7F6FF08BD704708B5FFF733
:10428000FCFF08BD704708B5FFF7FCFFFFF7F6FF1E
:1042900008BD01207047000008B5074800F0D6FAB5
:1042A00000F088FC01F068F801F0CEFBFFF7D8FFC2
:1042B000BDE80840FFF7DBBF254800080120704734
:1042C00008B5FFF7FBFF08BD70477047704708B59A
:1042D000FFF7FAFFFFF7F9FFFFF7F8FF08BD00004F
:1042E00008B5FFF716FF08B9FFF78CFFFFF71FFFB0
:1042F000084B1870FFF725FF074B188002F010F9E4
:10430000FFF718FFFFF7C5F8044B1878BDE8084021
:10431000FFF7DBB8A4110020342F0020DC100020B0
:1043200008B504F0E9F903F096FE00F027FBFFF76B
:10433000D7FFFEF7FCFB002001F012FDBDE80840AE
:10434000FFF7A1BF08B502F095FE03F0C3FD02F030
:10435000FBF9BDE8084001F07FBF00002DE9F04FF8
:1043600085B0FFF796FF074680B9FFF751FF00279A
:10437000FFF7E8FF01F058FE0FB101F059FD03F01F
:1043800061FA05B0BDE8F04FFEF7E2BB2B4C00F040
:104390000BFB0020257800F069FA854205D1012049
:1043A000647800F063FA8442DFD0254B1B789B07CA
:1043B00001D500F061FAFFF783FF4FF00008DFF846
:1043C0007CB000905FFA88F9484600F04FFA1BF87D
:1043D000015B0646A84226D0002201244540EDB2EA
:1043E0000DF1080A2C4219D0009BBBB18DF80820B2
:1043F00001928DF8099004F0B7F9344214BF0121FD
:1044000000214FF00103ADF80A008DF80C308DF853
:104410000D109AE80300FEF7B1FB019A6400E4B2C4
:1044200052B10BF8016CB8F1000F02D0FFF70CFF8E
:104430009EE74FF00108C5E70122D3E7A211002053
:10444000A411002038B500F003F9B0F5A04F0446E0
:1044500022D2B0F5804F77D2DF2812D8CD2861D292
:10446000A7280AD8A5284ED2012804D003B233B118
:10447000032898BF0024204638BDC2284AD900240A
:10448000F9E7B0F5005F80F0A280B0F5807F4DD2F3
:10449000E82828BF0024EEE745F25F23984216D8AB
:1044A00045F2402398425FD245F21F23984254D8E8
:1044B000B0F5A44F7CD30123C4B2A00804F00304D8
:1044C00003FA04F444EA401444F40D442CE045F2A9
:1044D0009F23984207D8B0F5A54F52D300F01F0490
:1044E0004AF2F4003DE045F2BF23984256D945F226
:1044F000DF239842C3D8040204F4F85444F420445F
:1045000044F0F004B7E75B34394BE4B21C5D44F48B
:104510008044B0E75834374BE4B233F8144044F4E5
:104520008844A8E740F4A044A4B2A4E7C0F307205D
:1045300000F016F90546E0B200F08AF82D0205F405
:10454000F855284384B296E7C0B200F081F804F42D
:104550007064044344F42044E6E700F01F044AF288
:10456000F10040EA042486E70123C4B2C4F38200C8
:1045700004F0030403FA04F444EA401444F40C4441
:10458000D2E70123C4B2C4F3820004F0030403FAA7
:1045900004F444EA401444F40A44C5E700F01F0060
:1045A00000F0DEF8040204F4F85444F4005462E726
:1045B00000F01F0000F0D4F8C306C4F3431448BF52
:1045C0000001240200B2044344F41044ACE7C0F3F9
:1045D000042000F0C5F80546E0B200F039F82D02DD
:1045E00005F4F85545EA000444F400549CE700BF84
:1045F00060BE000864BE00080D4B82B01B68ADF8B9
:1046000004109BB99DF805109DF80420F02906D1EF
:10461000F02A01D1074B1B88184602B070470129C8
:10462000FAD8012AF8D802B002F064BB0023F3E7FD
:10463000F02900207A30002007B5ADF80410019968
:10464000FFF7DAFF03B05DF804EBFFF7FBBE0000F5
:10465000822825D00CD8312867D004D829285AD0F0
:104660002A2869D07047352850D0392818D070478B
:10467000E32833D004D8E0281CD0E22829D07047A2
:10468000E62835D0E72838D0E42835D1334B5A789E
:10469000910731D51B7813F0100F08BFE72015E004
:1046A0002E4B1A78920752D15B7813F0080F18BF7F
:1046B00029207047294A1378D90744D4527812F038
:1046C000010F19D013F0100F08BFE32018BF00200E
:1046D0007047224B1B7813F0040FF2E71F4A137840
:1046E000590732D45278D20731D413F0100FEDE7C6
:1046F0001A4B1B781A07CED47047184A137819073B
:1047000027D452789107F0D5E4207047134B1B78DB
:1047100013F0200FCBE7114B1A7892061BD45B786D
:1047200013F0080F18BF392070470C4B1B7813F09B
:10473000400F18BF2A207047084B1B7813F0400F1A
:1047400018BF3120704739207047E2207047E020C1
:104750007047E62070473520CEE700BF342F002099
:1047600010B52F4C21784B0713D500F01402A2F19D
:10477000040C00F01803DCF1000242EB0C02A3F180
:10478000080CDCF1000343EB0C039A4218BF80F0E5
:104790000C000B0713D500F01402A2F1140C00F06A
:1047A0001803DCF1000242EB0C02A3F1180CDCF15F
:1047B000000343EB0C039A4218BF80F00C006478AE
:1047C000E30713D500F0110202F1FF3C00F01803DB
:1047D000DCF1000242EB0C02A3F1080CDCF1000357
:1047E00043EB0C039A4218BF80F00900A30711D5D0
:1047F00000F0110200F01803A2F111046242A3F1CB
:10480000180C6241DCF1000343EB0C039A4218BF21
:1048100080F00900CB0648BF00F0E70010BD00BFE4
:10482000342F002000207047A0F5A543603B1F2BCC
:1048300010B507D84C791CB900F01F00FEF787F8B7
:10484000204610BD0124FBE700207047014B186093
:10485000704700BF080C0020704708B5FFF7FCFF49
:1048600008BD704708B5FFF7FCFF08BD014B185C99
:10487000704700BF382F002070474FF4076004F0E6
:1048800017BF00BF00BF00BF00BF00BF00BF00BF19
:1048900000BF00BF00BF00BF00BF00BF00BF00BF20
:1048A00000BF00BF00BF704708B5FFF7E6FF08BDB7
:1048B00008B5302383F31188012100F00F039940DC
:1048C000032220F00F0006F0A5FB002383F31188DC
:1048D00008BD000008B50748FFF7EAFF0648FFF7E4
:1048E000E7FF0648FFF7E4FFBDE808400448FFF78C
:1048F000DFBF00BF030C0140040C0140070801406A
:10490000080801401B4B2DE9F04153F821500746A0
:104910006B1C0E462BD0302383F31188012405F045
:104920000F039C4025F00F0806222146404606F062
:1049300071FBC8F81440002383F31188FFF7A1FF2F
:104940000D4B28469C689B68C4F3C01413F4807F09
:1049500014BF0023022384F001041C43FFF7A8FFC7
:10496000211C18BF01213046FFF79EFFBC55BDE852
:10497000F08100BF9CBE00080008014008B5FFF7A9
:10498000A9FF0023064A022013705370054A1370D2
:10499000537000F033F8BDE80840FFF75EBF00BF7A
:1049A000382F0020362F002013B5002101A8ADF8C4
:1049B0000410FFF7A7FF012101A8FFF7A3FF0222C0
:1049C00001A90C48FDF7D4FD002814BF01240024E0
:1049D00004D0022201A90748FDF7FAFD234602226E
:1049E0000549044800F00CF80446FFF73BFF204659
:1049F00002B010BD362F0020382F00207047000075
:104A00002DE9F84380460F4691461C46114D43B1AF
:104A100001232B7003F072FE0F4B18600020BDE8DD
:104A2000F8832E78002EF9D00B4B186803F023FE84
:104A30000428F3D94A4641463846FDF799FD28B186
:104A40004A4641463846FDF7C3FD3446002320461A
:104A50002B70E4E7A5110020A8110020FFF77EBC11
:104A600008B503F00EFE04F0A2F9FFF715FC04F000
:104A7000A1F9FFF755FC04F0B3F904F0B7F9FFF71B
:104A8000EDFF04F0CDF904F06DF9FFF720FCF4E739
:104A9000002307B5014601220DF107008DF807300C
:104AA00000F08CF89DF8070003B05DF804FB0023CC
:104AB00007B5014602220DF10600ADF8063000F000
:104AC0007DF8BDF8060003B05DF804FB07B50422CD
:104AD000002301460DEB0200019300F06FF80198EE
:104AE00003B05DF804FB07B501228DF807100146FD
:104AF0000DF1070000F067F803B05DF804FB07B59F
:104B00000222ADF8061001460DF1060000F05BF838
:104B100003B05DF804FB07B50422019101460DEBDB
:104B2000020000F050F803B05DF804FBF8B505464C
:104B30001446D31D23F0070300AFADEB030D684609
:104B40000E4600F03BF8224669462846FDF710FD68
:104B500020B122463146284600F035F8BD46F8BD62
:104B600038B50C460546FFF793FFA04205D0214615
:104B70002846BDE83840FFF7B6BF38BD38B50C460B
:104B80000546FFF794FFA04205D021462846BDE820
:104B90003840FFF7B4BF38BD38B50C460546FFF7BF
:104BA00095FFA04205D021462846BDE83840FFF7D2
:104BB000B2BF38BD00F0A0B900F03CB80B460146CA
:104BC000184600F051B80B460146184600F0D8B818
:104BD00008B5064B4FF4805218460021FDF76EFDD4
:104BE00041F2080200F580531A6008BDAC110020A4
:104BF00038B541F20404054D2B5D2BB900F040FAA5
:104C000008B10120285538BD0220FCE7AC11002076
:104C100038B541F20404064D2B5D33B100F07EFA45
:104C200010B1002301202B5538BD0220FCE700BF46
:104C3000AC11002038B5FFF7DBFF044618B9FFF7C9
:104C4000E7FF204638BD00F027FA0546FFF7C0FF12
:104C5000012C06D1FFF7DCFF00280CBF002505F072
:104C600001052C46EDE7000008B5034608469918F3
:104C7000B1F5805F05D804491944FDF7A9FC01206E
:104C800008BD0020FCE700BFAC110020F8B50646C7
:104C90000F4615460024AC4201D10120F8BD60004A
:104CA0003918304400F094FA0028F7D00134F2E7C4
:104CB000F8B506460F4615460024AC4201D1012046
:104CC000F8BD37F8141006EB440000F007FA00288E
:104CD000F6D00134F1E7000037B5FFF789FF4FF454
:104CE0000062054612490020FFF7E2FFD0B10EA393
:104CF000D3E900234FF480510D4800F0BBFF04229C
:104D0000CDE9000169464FF48050FFF7D1FF00283C
:104D100014BF02240024012D01D1FFF779FF2046A2
:104D200003B030BD0446F6E725232284E49CF2CB91
:104D3000AC11002010B5084C2368B3F5005F08D310
:104D400000F0AAF920B1FFF7C7FF41F20803236082
:104D500010BD0120FCE700BFAC21002010B5074CBE
:104D60000146206800F0BAF930B1236802332360AD
:104D7000BDE81040FFF7DEBF10BD00BFAC21002032
:104D80002DE9F04F8B468118B1F5805F85B007465D
:104D9000154604D90024204605B0BDE8F08F554CD7
:104DA000044421465846FDF7E3FB002800F09F80AD
:104DB0002A4659462046FDF70BFCFFF719FF0190E4
:104DC00030B14FF0000835B9FFF7B4FF044684E076
:104DD000FFF71EFFDEE7012D9BF8001023D9FB072C
:104DE00021D4B7F5804F1ED29BF8012041EA022260
:104DF000012A18D8002A14BF6FF05F026FF07F02FB
:104E000042EA572262F307097A0862F30F291FFA70
:104E100089F0FFF7A3FF012804465AD1023D02376B
:104E20000BF1020BCFE73F2F11D847F0400262F39E
:104E3000070A61F30F2A1FFA8AF0FFF78FFF012894
:104E4000044646D1013D01370BF1010BBBE7052DAF
:104E50002E4628BF0526C7F3024242EAC6028DF855
:104E600008203A0AADF80A808DF80920ADF80C80C8
:104E70005A46ADF80E808DF80A700DF10B01B3445F
:104E800012F8010B5A4501F8010BF9D1BDF80800E1
:104E9000FFF764FF012804461BD1BDF80A00FFF7A5
:104EA0005DFF0128044614D1012D0BD8032D06D92E
:104EB000BDF80E00FFF752FF0128044609D1AD1BD3
:104EC000374480E7BDF80C00FFF748FF012804468F
:104ED000ECD014B1022C18BF0024019B012B7FF4ED
:104EE0005AAFFFF795FE00283FF454AF53E7012473
:104EF00051E700BFAC1100202DE9F04385B0FFF76A
:104F000067FE00F013F928B9FFF762FE002005B034
:104F1000BDE8F0834FF4006257490020FFF7B6FE6A
:104F2000554D10B9FFF754FEEEE751A3D3E9002326
:104F30004FF48051284600F09DFE0F46064604229D
:104F400002A94FF48050FFF7A1FEDDE902239F4242
:104F500008BF964201D0FFF73BFE41F208060DF173
:104F60000601304600F034F900286AD0BDF806305A
:104F7000002B65D0DAB29109012906F10204ADF8DF
:104F8000083047D029B102294AD000205AE02646ED
:104F9000E5E70DF10A01204600F01AF90028F4D0E7
:104FA0009DF809309DF80A209DF8088043EA022305
:104FB0004FEA08475BBA9BB207F4E0274FEAD808EC
:104FC0001F4308F0070907EB0903B3F5805F06F1FB
:104FD0000404DAD818F0060F06D003A9204600F022
:104FE000F7F80028D1D0B41D18F0040F07D00DF148
:104FF0000E01204600F0ECF80028C6D002344A46E4
:105000000DF10B01E819FDF7E3FAB4F5005FBED32B
:10501000012017E002F03F02C3F30723AB54F4E78B
:10502000510201F478511B0A41EA4303591CB1F5BE
:10503000805FAAD2C2F34012EA5400236B54E4E723
:10504000012034460D4D2C6068B900F025F8002889
:105050003FF45AAFFFF740FE41F208032B600028EF
:105060007FF455AF50E7FFF765FEF8E7AFF3008038
:1050700025232284E49CF2CBAC110020AC2100203B
:1050800008B50021034805F027F9B0FA80F040097F
:1050900008BD00BF30350020F8B5002501240C4FB5
:1050A0000C4E3B68AB4201D82046F8BD30680A4B35
:1050B0001968036829445B6998470128306888BFEC
:1050C000002405F0ABF8012888BF00240135E8E78B
:1050D000140C0020B8210020100C002013B50C4A3D
:1050E0000B46ADF8061011680A4A0144127812B155
:1050F000DB43ADF80630084B022218680368DC6811
:105100000DF10603A047B0FA80F0400902B010BDCF
:105110000C0C0020BC210020B821002008B502485A
:1051200005F0E8F8012008BD303500202DE9F843EE
:105130001E4B1F4C2360FFF7F1FF206803685B687C
:1051400098471C4B05461A681B4B03EA82290378D3
:105150001A4A03F001031370836813B9184804F066
:1051600081FA0026B046AD68164FB5421BD9691EBC
:10517000891B2068396005F073F8484502D33D6803
:105180000136F2E73968206805F077F88044B8F511
:10519000005FF5D339680C4B6D1A20681D6005F06F
:1051A0005FF80A4B18600120BDE8F8833035002015
:1051B000B8210020E0F7FF1F00FCFF03BC21002006
:1051C000A4BE0008100C0020140C00200C0C0020C1
:1051D00038B50F4B0C4619680E4B0144186805F0A2
:1051E00059F8012302880C480C4D037000230C4928
:1051F0002D780B700DB1D24392B20370087818B1BC
:1052000000200B70238038BD22800120FBE700BF07
:105210000C0C0020B8210020BD210020BC21002062
:10522000B4210020002210B5064B074C074808495E
:105230009A610132202A9C60D860196103F11C0335
:10524000F6D110BD60230020B55700081D57000897
:10525000415600087FB54FF4A07200211148FDF7B8
:105260002DFA4FF4C07200210F48FDF727FA0024F1
:105270000C4E0D4D01A9E0B22E6001F066FC38B96C
:10528000082201A93046FDF7A3F9BDF80C30AB8028
:105290000134202C06F10A0605F10C05EAD104B010
:1052A00070BD00BF3A2F0020E0210020F0B500259E
:1052B000294C2A4E85B001A9E8B201F068FC0746E6
:1052C000002842D11022014604F10800FDF7F6F94A
:1052D000BDF80430277223809DF80A30A370BDF812
:1052E0000830E3709DF80B3023719DF80C3063712A
:1052F000BDF80630E3809DF80D3013F0800F0CBF31
:10530000324600226261DA0744BF012222729F07FF
:1053100042BF227A42F002022272580742BF227A2A
:1053200042F004022272190742BF227A42F00802B8
:105330002272DA0642BF227A42F0100222729B06E3
:1053400042BF237A43F0200323720135202D04F15C
:105350001804B0D105B0F0BDEC260020EA260020EC
:10536000B0F5F84F04D1034B1B68002B08BF002099
:10537000704700BF180C002008B5FFF753FFFFF778
:1053800069FFBDE80840FFF791BF000030B5202954
:1053900085B0044625D143780D2B22D8DFE803F0F1
:1053A00007232A2121404B54215E67717A7D2022F8
:1053B0000021FDF783F90623237000236370A37097
:1053C000E370D1232371B3236371E923A3717223A3
:1053D000E371A42323725B236372C523A372812329
:1053E000E37205B030BD84230370002343708370E3
:1053F000C370F6E7C178837803EB01235B01832B4D
:1054000003F12002EDD8842A94BFC3EB0202C3F15A
:1054100084026449194405B0BDE83040FDF7D8B8AE
:105420002022FF21FDF74AF95F4B1B6823705F4B79
:105430001B686370D5E701225C4B1A6032225C4B1B
:105440001A6003F091F9CCE7574B1B680370574B78
:105450001B684370564B1B688370C2E7A378C07803
:105460002022214643EA002000F03CFBB9E7C07847
:10547000A3781F22611C43EA002000F05DFB20702E
:10548000AFE7A378C0781C22211D43EA002000F07A
:105490006BFBF4E700F0F2FAA3E78378062BA0D8C1
:1054A000DFE803F0040D1E444E626C00202500214D
:1054B0002A46FDF703F925706570A57091E7002372
:1054C00001A9C07801930293ADF80C3001F01DFBE7
:1054D00004F8010B0A2201A92046FDF779F880E7BC
:1054E0000A22011DC57801A8FDF772F8BDF8040075
:1054F000FFF736FFADF80400BDF80600FFF730FFF8
:10550000ADF80600BDF80800FFF72AFFADF8080067
:10551000BDF80A00FFF724FF01A9ADF80A002846EC
:1055200001F003FB2070FFF77DFE5AE7002301A97D
:10553000C07801930293ADF80C3001F006FBC7E789
:10554000C5780A22011D01A8FDF742F8BDF80C003C
:10555000FFF706FF01A9ADF80C00284601F006FB95
:105560002070FFF777FE3CE7002301A9C078019384
:105570000293ADF80C3001F00AFBA9E7C5780A22C6
:10558000011D01A8FDF724F8BDF80600FFF7E8FEAD
:1055900001A9ADF80600284601F00AFB2070FFF7CC
:1055A00085FE1EE71BBF0008180C0020F029002014
:1055B000EC29002007B5104AB0F5005F108004D236
:1055C00003B05DF804EBFDF713B94FF2F003ADF84B
:1055D000003003F0C9F840F2011340F00100ADF8CB
:1055E0000430ADF8020002AB13E9030003B05DF82C
:1055F00004EBFDF7C3BA00BF7A30002007B50F4AAD
:10560000B0F5005F108004D203B05DF804EBFDF745
:1056100005B94FF2F003ADF8003003F0A5F801230F
:1056200040F00100ADF80430ADF8020002AB13E920
:10563000030003B05DF804EBFDF7A0BA7A30002058
:10564000F8B5CCB205462049204601F05EFA0028A4
:1056500039D11E4BD98BD9B140F2E73600271C480F
:105660004FF47A72E0FB0167002330463946FCF7BD
:10567000FDFD04F0A2F90021164AA970135D115531
:10568000013B042B1FD8DFE803F01A050C0F1A00AA
:105690000120EEE70C4B588890B1BDE8F840FFF7C9
:1056A000ADBF094B9888F7E7074BD8880028F4D19D
:1056B0001A8858882AB10028EFD11046EDE7024B2E
:1056C00018880028E9D1F8BDE02600207C300020B1
:1056D000A0860100BE210020D0B50446FFF76AFF76
:1056E0000C4BD98B99B140F2E73600270A484FF4AA
:1056F0007A72E0FB0167002330463946FCF7B6FDBD
:1057000004F05BF92046BDE8D040FFF777BF0120E9
:10571000F6E700BF7C300020A0860100F8B5234CDE
:10572000CDB206462146284601F0EFF9274600286B
:1057300038D1B2781E4B012A0ED171794E0703D5AC
:1057400038885A5570B312E0C807F9D5022260882C
:105750005A5560B92088F5E7022A21D1727951079C
:1057600017D4D20707D40322A0885A5598B1BDE8B0
:10577000F840FFF71FBF0422E0885A550028F6D1F1
:10578000208880B1FFF7A8FF60880028EFD120882B
:10579000EDE705225A55208820B1FFF79DFFF6E777
:1057A00006225A55F8BD6088CCE700BFE0260020ED
:1057B000BE21002038B50C4C0546C8B2214601F088
:1057C000A4F980B9248874B1AB78032B0AD12046A0
:1057D000FFF782FF2046FFF77FFF2046BDE83840F5
:1057E000FFF77ABFF9D838BDE026002030B5A0F524
:1057F000AE43FF2B85B004460D4608D801A9C0B2C0
:1058000001F083F918B9BDF80C0005B030BD294688
:10581000204600F0C7F9F8E7202070471F289DBFF9
:105820001C22024B02FB0030002070476023002046
:1058300038B54B79D3B9A0F5AE4084B2FF2C15D85A
:10584000134DE0B2294601F060F978B91C231148E4
:1058500003FB04039B78012B0AD12B8833B16B889F
:1058600023B1AB88EA8813439BB233B1012038BD22
:10587000022BFBD1AB88002BF8D01C2303FB0400C8
:1058800043796FF30003437102F096FAEEE700BF2D
:10589000E026002060230020202070471F289DBFA5
:1058A0001822024B02FB003000207047EC2600203B
:1058B0000A200F4B0F4A9988B1FBF0F11170D9887B
:1058C0000D4A117059890D4A117099890C4A11704D
:1058D000DA890C49B2FBF0F20A70198A0A4A11708F
:1058E000598A0A4A11709A8A094B1A70704700BF88
:1058F0007C300020280C0020290C00202A0C0020DD
:105900002B0C00202C0C00202D0C00202E0C002035
:105910002F0C0020032A07B5084614D90B4A137828
:10592000527802F0010143EA0123C2F3400243EA44
:10593000422304220DEB02010193FCF749FE0020F3
:1059400003B05DF804FB4FF0FF30F9E7342F00207F
:1059500008B5034608465988914205D80A46596851
:10596000FCF736FE002008BD4FF0FF30FBE70000DB
:10597000032A07B539D904220DEB0200FCF728FEF3
:10598000FDF74CFA1A49019A0B78C2F3400062F312
:10599000000360F34103C2F3800060F38203C2F3AB
:1059A000C00060F3C303C2F3001060F30413C2F33A
:1059B000401060F34513C2F3801060F38613C2F306
:1059C000C01060F3C7130B704B78C2F3002060F374
:1059D0000003C2F3402262F341034B700888FEF7D4
:1059E000B3FB002003B05DF804FB4FF0FF30F9E794
:1059F000342F0020014B188800F070BC7C30002050
:105A000070B50024074DA6B2304601F071F815F8C4
:105A1000011B884202D0304601F071F80134242C79
:105A2000F1D170BD7C30002008B54388934207D87F
:105A30001A464068FCF7CCFDFFF7E2FF002008BDE6
:105A40004FF0FF30FBE7000038B50024094DA0B24D
:105A500001F04EF80134242C05F8010BF7D1002495
:105A6000054D2B6903B198470134152C05F1140538
:105A7000F7D138BD7C300020A0BF0008AF2208B5A8
:105A8000164B14211A8041F288325A800A229A80D9
:105A90005A81DA8128229A8232220820DA82C822A8
:105AA000D9801E21188158821A83002005229981ED
:105AB000502158839A831982D883198483F822202D
:105AC000FFF79EFFFDF7AAF94FF48060044B1880A2
:105AD000FEF73AFBBDE80840FFF7B6BF7C30002078
:105AE000342F00202DE9F3470D4600240746FF21FF
:105AF000284690464FF0140AFCF7E0FD2046DFF8F8
:105B00003490861C464511D80AFB04F333F809305B
:105B1000BB42ADF8063006D902220DF10601284439
:105B2000FCF756FD30460134152CEAD102B0BDE831
:105B3000F08700BFA0BF0008F0B400241426094B72
:105B400006FB04F5EF5A874206D1581983683BB922
:105B50004FF0FF30F0BC70470134152CF0D1F7E75F
:105B6000F0BC1847A0BF0008F8B5002314260C4C61
:105B700006FB03F52F5B874205D12C44E36833B95C
:105B80004FF0FF350AE00133152BF1D1F8E720463D
:105B90009847054610B9236903B198472846F8BDD0
:105BA000A0BF0008014B188B704700BF7C3000205D
:105BB000024B587F00F00100704700BF7C3000208E
:105BC000034B587F80F00200C0F34000704700BFD5
:105BD0007C300020034B5A7F520754BF188B0020A3
:105BE000704700BF7C300020024B587FC0F3C000DC
:105BF000704700BF7C300020014BD88A704700BF3F
:105C00007C300020272805D81E2819D2042810D25D
:105C10000020704738280AD82D2801D22B28F7D128
:105C20000B4BD87E80F00400C0F3800070476428DE
:105C3000F5E7074BD87E80F01000C0F300107047E6
:105C4000034BD87E80F00800C0F3C000704700BF4F
:105C50007C300020024BD87EC0F34010704700BF5C
:105C60007C300020024BD87EC0F38010704700BF0C
:105C70007C300020F0B50144884202D3104619461A
:105C8000F0BD002710F8014B4FEA031C6240941846
:105C90004FEA021E43EB03054CEA127C14EB0E04A0
:105CA00045EB0C054FEA421EA4184FEA431C43EB98
:105CB00005054CEAD26C14EB0E0445EB0C054FEADB
:105CC000C21E4FEAC31C4CEA526C14EB0E044FEA9E
:105CD000022645EB0C054FEA032C4CEA126CA41982
:105CE00045EB0C033A19B64646EB0303C4E708B587
:105CF0000A4664230146782002F096FDB0FA80F04F
:105D0000400908BD08B5FFF7F2FF08BD642307B5D9
:105D10000246009378200B46402102F0B3FDB0FA12
:105D200080F0400903B05DF804FB02F053BD7047FA
:105D30007047000008B5074B4FF4806218460021F9
:105D4000FCF7BCFC044A054B10604FF6FF721A804A
:105D500008BD00BFA0300020A4340020F629002098
:105D600010B5FFF7E4FFFFF7E3FF10F0010F0CBFE2
:105D700080224022184B194C1A702070FFF7D5FF73
:105D80000B211748FFF7BEFF10B90024204610BDB5
:105D9000237805219B071DD41248FFF7B3FF002885
:105DA000F3D00D211048FFF7ADFF04460028ECD0DA
:105DB00002F0A4FC0D4B00F56A4060301860FFF75C
:105DC000B9FF01230A4A13700A4A137000220A4BD2
:105DD0001A70DBE70948E0E7FA290020F9290020DA
:105DE00052C1000849C100085DC10008A03400206C
:105DF000F8290020F4290020FB29002044C10008D4
:105E0000084B00EB40001B78400003FB010189B206
:105E1000B1F5806F28BF0021034B1944034B196073
:105E2000704700BFFA290020A0300020A4340020D1
:105E30000C4B10B51B780C4C0BB9207810BD02F040
:105E40005DFC0A4B00F56A40603018602378002B37
:105E5000F3D102210648FFF755FF0028EDD00123BA
:105E60002370EAE7F8290020F4290020A03400205C
:105E700050C100082DE9F04F514E87B0338804908F
:105E80007BB1504B1B7863B14F4B1D784DB9FFF779
:105E9000CFFF2C46338823B115F0FF0F06D0049AAC
:105EA00022B907B0BDE8F08F0134E4B243FA04F23E
:105EB000D207F9D5454B1B7813F0010F444B25D180
:105EC000A201C2F3C71102F040029A703F32597129
:105ED000DA70997107213E48FFF709FF0028E0D0EA
:105EE0003A4B4FEA84181B78DB0719D44021394814
:105EF0004044FFF70BFF0028D3D0012303FA04F23C
:105F00003388013523EA02033380C3E7E200D2B2CB
:105F10009A7007320021DA70072259719A71D9E715
:105F2000402200212C48FCF7C9FB0020DFF8ACB070
:105F3000DFF8ACE000271BF8013B264A434413443A
:105F40001EF8012B0293244B013A1A44C7F10703B0
:105F5000DBB2039301234FF0000C03FA07FA12F8A7
:105F6000019F5FFA8AFA029B13F80C10039B0AEA5E
:105F70000101A3EB0C0303F00703019301FA03F300
:105F80000593019B0CF1010C5B4203F0070321FA1E
:105F900003F30599BCF1080F43EA010349EA03033F
:105FA0005FFA83F9DFD10137082F82F80090CDD155
:105FB0000130C0B20828BDD14021074899E700BF91
:105FC000F6290020F8290020FB290020F9290020CB
:105FD0001C0C0020A0300020FC2900206AC1000811
:105FE00072C1000838B50A4B0A4C1B782078254648
:105FF00013B980F0010006E040B102210648FFF726
:1060000081FE08B9207838BD002323702878F0E796
:10601000F8290020F42900204EC100080120704713
:1060200008B5FFF7FBFF08BD08B50E4B1B78BBB1E9
:1060300000210846FFF7E4FEFFF7F2FF0020FFF71C
:1060400019FF094B1B785BB102F058FB074B1B682B
:10605000C01A074B984203D8BDE80840FFF7C2BFFB
:1060600008BD00BFF8290020F4290020A03400203A
:10607000FEFFFF7F10B50F4C022023786FF3C303A0
:106080002370FDF7A5FE2378D90605D56FF3041319
:1060900002202370FDF778FE23789A0605D56FF36A
:1060A000451320202370FDF76FFEBDE81040FDF77B
:1060B0009DBF00BF230C002010B5044611B1022083
:1060C000FDF77EFEA4F50053B3F5405F38BFE4B2A0
:1060D0002046BDE81040FCF78BBBA0F50053B3F59C
:1060E000405F38BFC0B2FCF799BB000030B500F08C
:1060F0000F02C0F303150120064C904034F915300F
:1061000000B219B1034324F8153030BD23EA00036F
:10611000F9E700BF482A0020054BC0F3031233F80B
:10612000123000F00F0043FA00F000F00100704759
:10613000482A00202DE9F843414C1E462378814629
:1061400013F0040F0F4690463E4D6BD0288848450B
:1061500002D0B9F1000F65D123786FF3820399075C
:10616000237037D4384B394A1B881188FB1A9BB2ED
:1061700099428CBF00210121237861F341032370F0
:10618000FFF7B4FFFDF7FAFD820706D5237802205A
:1061900043F010032370FDF7FFFDFDF7EFFD8306CD
:1061A00006D52378202043F020032370FDF7F4FD6B
:1061B00021783246C1F340012888FFF77DFFB8F10E
:1061C000000F09D1224BB3F81EC0BCF1000F11D152
:1061D00001201BE00121CFE731462888FFF73AFD77
:1061E0000028EFD031462888FFF73CFD0028E9D190
:1061F000BDE8F88340F2E7300021DFF858E04FF4C3
:106200007A720023EEFB0C01FCF730F803F0D5FBAB
:1062100021783246C1F340012888FFF75EFFFFF77F
:1062200029FF0AE04846FFF777FF32460146484615
:10623000FFF753FF2B884B45F1D0034B1F80D7E767
:10624000230C00203C2A0020682A0020240C002077
:106250007C300020A086010010B50E4BDB7EDA07F3
:1062600016D50D4B1B785B0712D502F07DFA0B4B50
:106270000B4A1B881288C31A9BB29A42014607D860
:10628000BDE810400748084B01220088FFF752BFC5
:1062900010BD00BF7C300020230C0020682A0020A5
:1062A000240C00203C2A00203E2A002005490B78BF
:1062B000C3F3000282F0010262F300030B70FFF7E8
:1062C000D9BE00BF230C0020034B1A786FF30002E5
:1062D0001A70FFF7CFBE00BF230C0020014B1880BF
:1062E000704700BF240C00202DE9F047794B05468C
:1062F000DA7E0F4612F0010F9A4603D101242046A0
:10630000BDE8F08702F030FA7B79804643B3724CE7
:1063100023785E0705D500220146704B1046FFF733
:1063200009FF47F614439D4217D047F615439D4297
:1063300008D047F613439D4206D1237843F001036A
:10634000237001E0FFF7B2FFA5F50053B3F5405FFE
:106350000DD20022624B1A80D0E7FFF7B5FFF3E7BA
:10636000E12D38D15C4A117863F3041111705A4E53
:106370003378D807C2D539462846FFF743FC7C79E5
:10638000002800F0A380002C00F09980FDF7F6FCB7
:106390000446FDF743FD204310F0FD0FDFF8409168
:1063A00026D000239AF81B40A9F8003014F002040C
:1063B0001ED121462846FFF799FE3A462846FFF7A8
:1063C0007BFEFDF72BFD00F0FD00FDF781FD0220B7
:1063D000FDF752FE93E7E52D04D13F4A117863F3B0
:1063E0004511C3E7A5F50053B3F5405FBFD285E77C
:1063F0003A4B0A2218463946FCF7EAF80022B9F867
:10640000003042809D42DFF8DCA03AD13946284670
:10641000FFF720FCA8B3337899072BD43946B9F895
:106420000000BAF80040FFF7E1F9A8EB0404A4B2B9
:10643000844226D2FDF7A2FC820706D533780220DB
:1064400043F010033370FDF7A7FCFDF797FC8306BC
:1064500006D53378202043F020033370FDF79CFCF1
:1064600031783A46C1F34001B9F80000FFF724FE45
:10647000002444E73946B9F80000FFF7F3FB002891
:10648000CCD1FDF77BFC0446FDF7C8FC33782043F4
:10649000C0F3400060F341033370FDF7BFFC00F030
:1064A000FD00FDF715FD3378022043F00403A9F841
:1064B0000050AAF800803370FDF7DEFDD8E73B46B8
:1064C000224641462846FFF735FE18E7002C7FF4A8
:1064D00040AF13E77C300020230C00203E2A002030
:1064E0003C2A0020682A0020FDF708BE08B50020DD
:1064F000FEF7BCF900F0010008BD08B5FEF754FA3C
:1065000040F6B83003F059FAFEF74EFAFFF7EEFF07
:1065100028B1FFF7E9FFBDE8084002F03DB908BD2A
:1065200008B5FFF7EAFF08BD704700002DE9F84302
:106530001C4E33785BB14FF00E091B4DDFF86C80B9
:106540002C783378A34204D8002333702B70BDE835
:10655000F88309FB04F208EB0203671C1979FFB208
:106560002F7079B1198979B94FF6FF71588988422E
:106570000AD00121FFF7D8FF002309FB048423710F
:10658000FDF72EFC3C46DCE738F80200B3F802C009
:106590009A88D98840EA0C4042EA01411A89FDF7FD
:1065A0003DFBE9E7E52A0020E42A0020742A0020C8
:1065B000704700000023064A1380064AD17909B9C2
:1065C000917111720133202B02F10C02F6D1704748
:1065D000E62A0020E021002070B50F4A0F4B117809
:1065E0001C780B460E4D9C4210D035F81360864245
:1065F0000DD10C250B4C8B4205FB00404FF00104E4
:10660000847103D1234403F00303137070BD01337D
:1066100003F00303E7E700BF722A0020732A00207B
:106620006A2A0020E02100208B792DE9F74F002B0A
:1066300041D1224D1F46A8464FF6FF794FF0010C7D
:106640001F4A92F800B0DAB293452BD94FF0000EF2
:106650004FF6FF740A68B5F80CA00192019E5FFA2C
:106660008EF236F812602EB1B24508BF94B20EF128
:10667000010EF3E74C451BD00CFA04F427430CFA47
:1066800002F2FFB2013ABA4211D10E2253438C8872
:1066900008EB030214810424147128F8036050816C
:1066A00081F807C003B0BDE8F04FFFF795BF2E712A
:1066B00001330E35C7E703B0BDE8F08F742A002020
:1066C000E52A0020F8B50C4B0C4D1C780C4E0D4FF4
:1066D0002B78A34205D1FFF729FFBDE8F840FFF76B
:1066E00069BF0C2136F81400013401FB0071FFF77B
:1066F0009BFF04F00304EBE7722A0020732A0020BA
:106700006A2A0020E02100200023F0B51A461C462A
:10671000D0F800E0DDB23EF8156076B1D1F800C0E7
:10672000002503E0BE4208BF01220135ECB23CF86F
:106730001470002FF6D10133ECE71AB1AC4238BF28
:106740000846F0BD1046FCE70F4B70B51B789BB1B7
:106750000E4C208880B101F087FF0D4E33888342B4
:106760000AD20C4B00251A780B4B1B789A4204D0A6
:10677000FFF7A8FF3580258070BDFFF7D7FE258085
:10678000BDE87040FFF716BF260C0020E82A002065
:10679000E62A0020722A0020732A002008B5002370
:1067A000064A1380064A1370064B1A78064B1A7075
:1067B000FFF700FFBDE80840FFF7B8BEE82A002059
:1067C000260C0020732A0020722A0020034B1A781E
:1067D0000AB1FFF7E3BF01221A707047260C0020B0
:1067E00047F650432DE9F04F984289B080460F4656
:1067F00008D14D79C5B10122984B1A70284609B0CD
:10680000BDE8F08F47F65143984204D14D795DB110
:10681000FFF7C4FFF2E747F65243984204D14D799F
:1068200015B1FFF7D3FFE9E78D4B18788D4B1B7837
:106830001843FCF75FF90446FFF7BAFE844203D021
:106840003988FDF7D9FE80464FF00009864CCDF817
:10685000049000234FF6FF7622681FFA89FB5FFA47
:1068600083FA32F81A502DB1A84508BF1FFA8AF6EC
:106870000133F4E74FF6FF739E4230D0A379002B2B
:1068800062D1764A10787D79002D00F09980002839
:1068900000F0968021465846FFF7AEF9E2790346AC
:1068A0004AB90122B240267A1643704A26721188EC
:1068B000814238BF10800126227A06FA0AFA0AF1CC
:1068C000FF3A92450BD16A4A108800283ED00293C5
:1068D00001F0CAFE029B834238D23546A671019B65
:1068E00009F101091D43EBB2B9F1200F019304F145
:1068F0000C04AED17B79002B00F09F80019B002B14
:1069000000F09B8001F030FF594B1880594B1C78E8
:10691000072C14D8621C1A7039460A2205A8FBF706
:1069200057FE0E22544B05A902FB04330A221846D7
:10693000FBF74EFE4FF6FF72A0F80C804281019BE0
:10694000B3FA83F56D0959E728469CE74B4B4C4A4F
:106950001B780020029392460C231678029A9642E6
:106960000DD1414A03FB09239842B8D0454B23F887
:1069700016B00136414B06F003061E70AFE7414AE0
:10698000394932F8162003FB0212214610460392C1
:10699000FFF7BAFE0C2378B10121A04281719ED08D
:1069A0009AF80010039A8E4206D1824202BF721CEE
:1069B00002F003028AF80020013606F00306CDE754
:1069C000E579227AA5B9012101FA0AFA0AF1FF3A1A
:1069D000924502D143B900EA01050123B340267A6A
:1069E00026EA030626727AE75846FFF7F5FDF4E734
:1069F000531E42FA06F1134001F001011BD1D1B13F
:106A0000A188A1B10593069301F0AEFE04238DF891
:106A10001830A3880DF1140AADF81600ADF81C303B
:106A20009AE80700FDF7FAF80023E371D5E7584626
:106A3000FFF77AFDF8E7CDB2CFE7114B1A780F4B8D
:106A40001B789A4202D0FFF73DFE78E7FFF76EFD14
:106A50000022074B1A80FFF7ADFD70E7260C0020DF
:106A6000DC100020DB100020E0210020E62A0020BE
:106A7000E82A0020E52A0020742A0020732A00203A
:106A8000722A00206A2A002004207047520002EB7C
:106A9000810202EBC00028307047032838B510D8B7
:106AA00001290ED8012A0CD8FFF7F0FF0546FDF7A3
:106AB000EFFF000284B2681CFDF7EAFF204380B2BA
:106AC00038BD0020FCE7032870B51C460FD801290B
:106AD0000DD8012A0BD8FFF7D9FF0546190AFEF792
:106AE0003FF8E1B2681CBDE87040FEF739B870BDF0
:106AF000232802D84830FDF7CBBF00207047232859
:106B000002D84830FEF72CB8704708B503461F2B53
:106B1000084607D80A2202FB03F16C31FEF74EF853
:106B2000002008BD4FF0FF30FBE708B503461F2BE0
:106B3000084607D80A2202FB03F16C31FEF743F83E
:106B4000002008BD4FF0FF30FBE708B503461F2BC0
:106B5000084608D80A2202FB03F101F5D671FEF7B8
:106B60002DF8002008BD4FF0FF30FBE708B50346C5
:106B70001F2B084608D80A2202FB03F101F5D67143
:106B8000FEF721F8002008BD4FF0FF30FBE708B505
:106B900003461F2B084608D80A2202FB03F101F521
:106BA0003B71FEF70BF8002008BD4FF0FF30FBE70C
:106BB00008B503461F2B084608D80A2202FB03F13A
:106BC00001F53B71FDF7FFFF002008BD4FF0FF30DE
:106BD000FBE7000001232DE9F04300272C4D8BB08B
:106BE0002E682B604FF00009FCB201E04FF0010964
:106BF0005FFA89F8002241462046FBF7AFFD0022EC
:106C0000034641462046FFF75EFF012241462046EB
:106C1000FBF7A4FD0122034641462046FFF753FF40
:106C2000B9F1000FE2D00137042FDBD1FEF726FFC8
:106C30000024C82301940294ADF80C30E0B201A9FD
:106C40000134FFF772FF202CF8D10024CDE9044471
:106C5000ADF81840E0B204A90134FFF787FF202CFB
:106C6000F8D100244FF6FF730894ADF820300723C5
:106C7000ADF8244007948DF82530E0B207A901341F
:106C8000FFF796FF202CF8D12E600BB0BDE8F08303
:106C9000180C0020F8B51446002700F128055618F6
:106CA000B44200D1F8BDA5F128031F2B06DC28460D
:106CB000FDF7EEFE207001350134F1E72770FAE7A9
:106CC0001F28F8B50E46174608D8C0F120038B429E
:106CD00004DB002500F12804B54200D1F8BDA4F181
:106CE00028031F2B03DC795D2046FDF739FF0134B3
:106CF0000135F1E7032810B406D8012904D8012A88
:106D000002D810BCFFF7C9BE002010BC704710208D
:106D1000704740F6D43070472DE9F04114460546DF
:106D200040F6D3374FF000085618B44205F22C4015
:106D300001D1BDE8F081BD4205DCFDF7A9FE207060
:106D400001340135F1E784F80080F9E7F8B514461D
:106D5000054640F6D3375618B44205F22C4000D110
:106D6000F8BDBD4202DC2178FDF7FAFE01340135A1
:106D7000F2E710B540F22C44204600210134FDF723
:106D8000EFFEB4F5805FF7D110BD0F282DE9F34178
:106D9000054600F2838040F6FF70FDF779FE00287B
:106DA0007CD140F22C4405BB20460195FDF770FED6
:106DB000661C8DF80400002870D0012869D1304687
:106DC000FDF766FEA71C8DF80500002866D0431E5F
:106DD000022B1AD83846FDF75BFEE61C8DF806003C
:106DE00078B101A800F01AFF0BE0B4F5805F55D030
:106DF0002046FDF74DFE08B9013DEDB20134D2E762
:106E000046463446D0E73E46FBE7431F022B28D8D0
:106E10003846FDF73DFE04F103088DF80600002812
:106E2000EED04046FDF734FE261D8DF80700002801
:106E3000E7D0BDF806009DF80530B0F57F4F84BF60
:106E4000000280B2062B06D0072B07D0052BD8D125
:106E5000FEF742FCD5E7FEF7ADFBD2E7FEF7CEFB2F
:106E6000CFE70428CFD13846FDF712FE0746E01CD5
:106E7000261DFDF70DFE8FB180B1441EC4EB042426
:106E8000013F3C4414F1FF34BBD3642002F095FD74
:106E9000F8E7002101A800F0B5FEB2E702B0BDE8B6
:106EA000F081000047F61643984210B50C4635D1E4
:106EB000FCF764FF1A4A00F0AA03927ED10703D5BB
:106EC00010F0440F18BF0023910703D510F0110FE5
:106ED00018BF0023510703D510F0880F18BF0023F7
:106EE000120703D510F0220F18BF002361790D4A55
:106EF00061B1002B15BF0123002335202920137019
:106F000001F08CFAFDF772F8002010BD1378002B09
:106F100014BF3520292001F09FFAF3E70120F4E7A0
:106F20007C300020EA2A0020F8B50B4E0746306876
:106F300001F0A1FBB0F5FA7F084D094C07D2336888
:106F40002B604FF4FA732360064B1F80F8BD01F0ED
:106F5000D5FB32232860F6E7002B0020F82A00201A
:106F6000F42A0020FC2A00200379194215D18378E5
:106F7000ABB1027A1940120703D5081C18BF0120D3
:106F8000704703F00F0001F00F0240EA131042EACD
:106F90001111431A58425841704700207047012090
:106FA000704700002DE9F041264E07463568002D58
:106FB0003ED00022244B1A80FCF72AFFFCF71CFF6E
:106FC0003568E888A0F58073B3F5F85F3CBF20F41E
:106FD000F85080B2EB6810F0FF0414BF4FF00108C6
:106FE0004FF0000823B129690020984708EA0008FB
:106FF000B8F1000F06D0231FDBB2A02B1BD8204610
:1070000001F02AFA114C77B133681A7AD2060AD401
:10701000227842B147F63E621888431E9BB29342E3
:1070200001D8FFF781FFFCF7E1FF002333602370F5
:107030002846BDE8F081FCF7D9FF2046FBF750FE5B
:10704000E0E700BFEC2A0020FC2A0020F02A002004
:107050000020024B1870FFF7A5BF00BF270C0020CF
:10706000034B1A780AB1FFF7F3BF01221A70704779
:10707000270C002070B5094C238873B1084E094DC8
:10708000306801F0F8FA2B68984206D32088FBF7A5
:10709000AFFB0023238033602B6070BDFC2A0020EF
:1070A000F82A0020F42A00202DE9F74F4D79824676
:1070B0008946B5B147F65E4290420BD047F65F4233
:1070C00090420BD047F65D4290420AD1FFF7C8FFCD
:1070D00000270AE00122954B1A70F9E7FFF7B8FF85
:1070E000F6E7924A177827B90127384603B0BDE87A
:1070F000F08FFCF743FE0646FCF7F4FD0446FCF770
:107100008DFEAAF1E0081FFA88F804433443B8F171
:10711000070F64B200F2A08001200AF0070290403D
:1071200040B2002D00F095800443E4B2B9F80000AD
:10713000FCF768FA0646FEF7AFFB002800F0DE8099
:1071400001224FF0000902FA06F30193FEF7A4FBB7
:107150005FFA89F6864280F0D1803046FEF79EFBCA
:107160000646002800F0CA801CB98278002A40F048
:10717000AA80F278019B1A4200F0A580327A12F0C0
:10718000070F08BF0722B8F1070F76D8002D71D07E
:10719000C2F34002002A00F09680B6F800B0DA454B
:1071A00002D1002D00F08F80614B19688E4200F0F3
:1071B0008A80716919B10978002900F0848021461C
:1071C0003046FFF7D1FE00287DD0DA4540F0A88098
:1071D000BAF1000F55D14FF0000B0020FFF7E2FE8F
:1071E0000121534B70791E60524B1970FCF70AFE57
:1071F0004DB9BBF1000F06D03388D8B2043BA02BA9
:1072000047D801F029F9F488A4F58073B3F5F85F45
:1072100047F63E633CBF24F4F854A4B2671EBFB2E5
:107220009F42F3688CBF002701271BB13169012001
:107230009847074057B1F088FBF7A2FAFCF7D6FD54
:10724000B8F1070F28D82046FFF76EFEFCF7CEFEF8
:1072500029E024EA000468E7E4B2374A002D45D06B
:10726000A2F800A001F04AFA0021344A1060344A22
:1072700011805BE7C2F380028CE725B302F00102C4
:1072800088E7002DA9D12C4B19888B451BD10025EF
:10729000A3E7FBF725FDB6E7E6B2043CA02C08D82F
:1072A000304601F0BBF8002D3FF41EAFFCF79EFE08
:1072B0000EE7FCF79BFE4FF47A7002F07EFB30463F
:1072C000FBF7C4FCEFE709F101093FE702885245EB
:1072D00004D135B9174B1D7000201EE0002D3FF47E
:1072E00003AF037A9B063FF5FFAEF5E711885145E2
:1072F00004D11580114A1560114A15800C4A106896
:1073000000283FF4F1AEB8F1070FDFD82146FFF7B0
:107310002BFE00287FF4E8AE0120FFF743FEE4E6F1
:10732000BBF1000FAFD15D4655E700BF270C002031
:10733000EC2A0020F02A0020FE2A0020002B00204A
:10734000FC2A002038B505464879002800F0DC808A
:10735000A5F5E045ABB2222B00F2BB80FCF7F1FEB5
:107360006A4C013D2080212D12D8DFE805F04DBD8B
:10737000551B1F59235D692FB5336D3771973B75C9
:107380009F417B8327612B65477F8EA9B31651C52B
:10739000237843F00103237095E0637843F00803FA
:1073A000637090E0237843F00203F4E7237843F01E
:1073B0000403F0E7237843F00803ECE7637843F035
:1073C0000103EDE7637843F00203E9E7237843F034
:1073D0001003E0E7237843F02003DCE7237843F051
:1073E0004003D8E7FBF71AFD237843F08003D2E788
:1073F000237823F00C0343F00C03CCE7637823F0ED
:10740000030343F00303CBE723786FF30003C2E7E2
:1074100063786FF3C303C3E723786FF34103BAE7DD
:1074200023786FF38203B6E723786FF3C303B2E7E1
:1074300063786FF30003B3E763786FF34103AFE75B
:1074400023786FF30413A6E723786FF34513A2E7BD
:1074500023786FF386139EE7FBF7E0FC23786FF346
:10746000C71398E7237823F00C0394E7637823F09D
:10747000030395E72378C3F3800282F00102D2B2BE
:1074800062F3820362F3C30385E76378DA4302F0B1
:10749000010262F3000362F3410381E72378C3F33F
:1074A000801282F0010262F3861374E7FBF7B6FCE8
:1074B0002378C3F3C01282F0010262F3C7136AE7B4
:1074C0000120FCF7A1FE2088FCF73EFEFBF7A6FC9E
:1074D000002038BD0020F4E72378C3F3001282F0C7
:1074E000010262F3041356E72378C3F3000282F02B
:1074F000010262F300034EE76378C3F3C00282F037
:10750000010262F3C3034BE70120E2E7342F0020BE
:1075100000EB4003C3EB031300EB830003B2002B2B
:1075200007DAB3F1800001D503F17F0040F30720B3
:10753000704703F18000F9E7184B194A1B7810894E
:10754000D90709D5174B1B785843C0F38F007F2804
:1075500020D808B3C0B270479A0705D5114B1B78E5
:107560005843C0F34F00F2E75B0704D50D4B1B787F
:10757000584380B2EBE70C4B1B78002BE7D009494E
:107580000A4A09781278484393423CBF5843B0FBFB
:10759000F2F0EEE77F207047012070470E2B0020AD
:1075A0007C3000202A0C00200F2B00202B0C002008
:1075B000144B1B78D90705D5134B18788008F8B100
:1075C000C0B270479A0703D50F4B18784008F6E70A
:1075D0005B0705D50C4B18787F28F0D97F207047C2
:1075E0000A4B1B7853B10A4A07491278087893422C
:1075F00036BF584380B2B0FBF2F0EDE70120DFE781
:10760000012070470E2B00202E0C0020102B002094
:107610002F0C0020CD2808B505D1FFF78DFF404283
:10762000294BD87008BDCE2802D1FFF785FFF7E7B8
:10763000CF2805D1FFF780FF4042234B9870F1E738
:10764000D02802D1FFF778FFF7E7D92804D1FFF758
:10765000AFFF1D4B1871E5E7DA2803D1FFF7A8FF4C
:107660004042F6E7DB2805D1FFF7A2FF4042164B68
:107670005871D7E7DC2802D1FFF79AFFF7E700F14E
:107680002F03DBB2072B08D801230F4AD13803FAA6
:1076900000F0537818435070C4E7DD2805D10B4A39
:1076A000137843F001031370BCE7DE2804D1074AC6
:1076B000137843F00203F6E7DF28B3D1034A1378C7
:1076C00043F00403EFE700BF082B00200E2B00203F
:1076D000364BCD2893F902200AD193F903100029E3
:1076E0000CDA0021D97052B90021314A117006E03C
:1076F000CE280DD193F903100029F2DC72B11A796A
:107700005B7913435BB2002B4FD12A4A1370704749
:10771000CF2806D1002AF1DA00229A7093F90320CB
:10772000E1E7D02802D1002AF6DCE7E7D92893F96F
:10773000041004D10029E1DD00211971DEE7DA2807
:1077400002D10029DADAF7E7DB2893F9051004D132
:107750000029D3DA00215971D0E7DC2802D10029B1
:10776000F8DCCBE700F12F01C9B2072907D80121C6
:10777000D1388140587820EA01005870BEE7DD28F2
:1077800005D10D48017821F001010170B6E7DE282E
:1077900004D10948017821F00201F6E7DF28ADD1D4
:1077A0000548017821F00401EFE77047082B00201D
:1077B0000F2B0020102B00200E2B002008B500F00E
:1077C000D3FF094BDA7899780A431CBF074A108027
:1077D0001A795B7913431CBF054B18800248BDE83A
:1077E000084000F043BD00BF082B0020042B002000
:1077F000062B002008B5062200210548FAF75EFF97
:107800000023044A1370044A1370044A137008BD1D
:10781000082B00200F2B0020102B00200E2B002007
:1078200090F902305BB990F9033043B990F9043014
:107830002BB990F90500003018BF012070470120D6
:107840007047000037B5594C062221466846FAF7C2
:10785000BFFE00239DF80220A370E37023716371C3
:107860009DF8033013430AD0514B188800F0FCFEFA
:10787000504A13783BB35049097888422CDC9DF874
:1078800004209DF8053013430BD04C4B188800F0B2
:10789000EBFE4B4A1378002B4ED04A4909788842B8
:1078A00053DC6946414800F013FE18B93F48FFF722
:1078B000B7FF08B1FFF782FF062269463B48FAF797
:1078C00087FE03B030BD40490D780A2169438842E4
:1078D000D5DD0133137001E0FF2BFAD19DF9025081
:1078E0003DB1FFF729FE002DCCBF0123FF235843F4
:1078F000A0709DF903503DB1FFF71EFE002DCCBFD7
:107900000123FF235843E07094F902000028B6D009
:1079100094F90320002AB2D0FFF7FAFD30B1A0702D
:107920001046FFF7F5FD20B1E070A8E70123A37032
:10793000F6E70123E370A2E724490D780A216943A1
:107940008842AEDD0133137001E0FF2BFAD19DF9BF
:1079500004503DB1FFF72CFE002DCCBF0123FF23C7
:10796000584320719DF905503DB1FFF721FE002DD0
:10797000CCBF0123FF235843607194F90400002811
:107980008FD094F90520002A8BD0FFF7C1FD30B1CC
:1079900020711046FFF7BCFD20B1607181E7012323
:1079A0002371F6E7012363717BE700BF082B0020FA
:1079B000042B00200F2B0020290C0020062B002078
:1079C000102B00202D0C0020280C00202C0C002057
:1079D0000246036813F8010B136070474D4B2DE905
:1079E000F0410C464C49C2081F5C4C4B8E5C4C4924
:1079F0009B5C00F0070011F802800341064113F080
:107A0000010548FA00F006F0010600F0010812D066
:107A1000E120FBF71BF9002C6ED040F2E73000218B
:107A2000DFF800C14FF47A720023ECFB0401FAF78F
:107A30001DFC01F0C2FF96B1E620FBF707F9002C10
:107A40005CD040F2E7300021DFF8D8C04FF47A7202
:107A50000023ECFB0401FAF709FC01F0AEFF21461C
:107A60003846FBF777F9002C4AD040F2E730002186
:107A70002C4F4FF47A720023E7FB0401FAF7F6FB70
:107A800001F09BFF86B1E620FBF72AF9D4B340F260
:107A9000E7300021234E4FF47A720023E6FB040105
:107AA000FAF7E4FB01F089FF85B1E120FBF718F953
:107AB00054B340F2E73000211A4D4FF47A7200239C
:107AC000E5FB0401FAF7D2FB01F077FFB8F1000FF4
:107AD0001ED02C20FBF75AF9C4B140F2E730002148
