:020000040800F2
:1020000000040020392200083B2200083B2200087F
:102010003B2200083B2200083B2200083B2200082C
:102020003B2200083B2200083B220008995400088C
:102030003B2200083B2200083B220008754E0008A6
:102040003B2200083B2200083B2200083B220008FC
:102050003B2200083B2200083B2200083B220008EC
:102060003B2200083B2200083B220008995100084F
:1020700085510008715100085D5100084951000860
:1020800035510008215100083B2200083B2200087E
:10209000A94B00083B2200083B2200083B22000815
:1020A0003B2200083B2200083B2200083B2200089C
:1020B0003B2200083B2200083B2200083B2200088C
:1020C0003B220008A54F0008D94E00083B2200081B
:1020D0003B2200083B2200083B2200083B2200086C
:1020E0003B2200083B2200083B2200083B2200085C
:1020F0003B2200083B2200083B2200083B2200084C
:102100003B2200083B2200083B2200083B2200083B
:102110003B2200083B2200083B2200083B2200082B
:102120003B2200083B2200083B2200083B2200081B
:102130003B2200083B2200083B2200083B2200080B
:102140003B2200083B2200083B2200083B220008FB
:102150003B2200083B2200083B2200083B220008EB
:1021600072B6264880F30888254880F309882548F8
:1021700025490860022080F31488BFF36F8F02F0B6
:1021800012FD03F0B7FC4FF0553020491B4A914235
:102190003CBF41F8040BFAE71D49194A91423CBF84
:1021A00041F8040BFAE71B491B4A1C4B9A423EBFFD
:1021B00051F8040B42F8040BF8E700201849194ABB
:1021C00091423CBF41F8040BFAE703F075FC03F0C1
:1021D00090FC154C154DAC4203DA54F8041B8847AB
:1021E000F9E706F03DF9124C124DAC4203DA54F80F
:1021F000041B8847F9E703F07BBC000000040020C3
:10220000000C00200020000808ED00E00000002085
:102210000004002020B20008000C0020C0100020A4
:10222000C0100020F4350020602100086021000863
:10223000602100086021000892E700F000F8FEE746
:102240002DE9F04FC1F80CD0C3689D46BDE8F08F72
:10225000002383F311882846A047002003F006FBE3
:10226000FEE703F00FFB00DFFEE7000053B94AB9B9
:10227000002908BF00281CBF4FF0FF314FF0FF308E
:1022800000F074B9ADF1080C6DE904CE00F006F869
:10229000DDF804E0DDE9022304B070472DE9F047E2
:1022A0008C460446089E002B40F086808A421546E4
:1022B00048D9B2FA82F24AB1C2F1200701FA02F318
:1022C00020FA07F7954047EA030C94404FEA154E71
:1022D000BCFBFEF71FFA85F80EFB17C307FB08F9D6
:1022E000210C41EA0343994509D9EB1807F1FF3165
:1022F00080F0E180994540F2DE80023F2B44A3EB61
:102300000903B3FBFEF00EFB103300FB08F1A4B28F
:1023100044EA0344A14209D92C1900F1FF3380F0AB
:10232000C880A14240F2C58002382C4440EA0740F0
:102330000027641A1EB10023D440C6E90043394681
:10234000BDE8F087002A54D0B2FA82F2002A40F0A9
:10235000B4800127491B4FEA15481FFA85F9B1FBE4
:10236000F8FE08FB1E1109FB0EF04FEA144C4CEA74
:102370000143984207D9EB180EF1FF3102D298427F
:1023800000F2EB808E461B1AB3FBF8F008FB10330B
:1023900009FB00F9A4B244EA0344A14507D92C196A
:1023A00000F1FF3302D2A14500F2DB801846A4EB16
:1023B000090440EA0E40BDE78B4208D9002E75D0D3
:1023C0000027C6E9000138463946BDE8F087B3FA70
:1023D00083F77FB98B4202D3824200F2BC80841A19
:1023E00061EB030301209C46002EA8D0C6E9004CF7
:1023F000A5E7FFDEC7F12005BB4022FA05FC4CEA49
:10240000030C21FA05F44FEA1C4EB4FBFEF91FFA47
:102410008CF80EFB194420FA05F3B94009FB08FAC1
:1024200019430B0C43EA0444A24502FA07F200FAEE
:1024300007F30BD91CEB040409F1FF3080F089800D
:10244000A24540F28680A9F102096444A4EB0A0483
:10245000B4FBFEF00EFB104400FB08FA89B241EA1F
:102460000444A24508D91CEB040400F1FF316CD2EE
:10247000A2456AD90238644440EA0940A0FB0289B7
:10248000A4EB0A044C454146CE4655D352D0002E0B
:102490006AD05A1A64EB0E0404FA05F522FA07F31F
:1024A000FC401D43C6E90054002748E73746304644
:1024B00045E718463AE70F4621E79540C2F1200369
:1024C00021FA03F04FEA1548B0FBF8F71FFA85F937
:1024D00008FB170E24FA03FC914007FB09FA4CEAAB
:1024E0000101080C40EA0E40824504FA02F407D9C3
:1024F000281807F1FF332AD2824528D9023F284401
:10250000A0EB0A00B0FBF8FC08FB1C000CFB09F375
:1025100089B241EA00418B4208D969180CF1FF30B9
:1025200011D28B420FD9ACF1020C2944C91A4CEAE2
:10253000074714E74345AAD2B8EB020169EB0C0246
:1025400001389646A3E78446F0E7084694E71F461D
:10255000D6E781467AE7384646E7AEF1020E2B44CD
:1025600011E702382C4422E73746E8E6704700BFFF
:10257000844641EA000313F0030349D1403A23D3D0
:102580000B6803604B6843608B688360CB68C360F3
:102590000B6903614B6943618B698361CB69C361DB
:1025A0000B6A03624B6A43628B6A8362CB6AC362C3
:1025B0000B6B03634B6B43638B6B8363CB6BC363AB
:1025C00040304031403ADBD230320BD30B680360ED
:1025D0004B6843608B688360CB68C36010301031F8
:1025E000103AF3D20C3205D351F8043B40F8043BC7
:1025F000043AF9D2043208D0D2071CBF11F8013BCB
:1026000000F8013B01D30B8803806046704700BF90
:10261000082A13D38B07B1D010F00303AED0C3F157
:102620000403D21ADB071CBF11F8013B00F8013B81
:10263000A4D331F8023B20F8023B9FE7043AD9D3F8
:10264000013A11F8013B00F8013BF9D20B78037015
:102650004B7843708B78837060467047F0B4860780
:1026600046D0541E002A3CD0CAB2034602E014F100
:10267000FF3436D303F8012B9D07F8D1032C29D959
:10268000CDB245EA05250F2C45EA054533D9A4F11D
:102690001006360903F1200707EB061703F11002B5
:1026A00042E9045542E902551032BA42F8D1721C8F
:1026B00014F00C0F03EB021204F00F0613D0331FBB
:1026C00023F003030433134442F8045B9342FBD129
:1026D00006F003042CB1C9B21C4403F8011B9C4250
:1026E000FBD1F0BC704734461346002CF3D1F8E719
:1026F00014460346C2E71A462646E0E7032A70B4AA
:1027000012D940EA0105AD0704460B4620D119460F
:10271000204653F8045B54F8046BAE4218D1043AD7
:10272000032A20461946F2D8541E72B103780A785B
:102730009A4208BF241806D00CE010F8013F11F8A7
:10274000012F934206D1A042F7D1002070BC704700
:10275000541EEBE7981A70BC704700BF10B50A4AC8
:1027600013699C68A1420CD85C6881600360446076
:10277000206058609868411A99604FF0FF33936168
:1027800010BD091B1B68ECE7D0130020F0B50A2729
:102790000D4B0E4A1B7816780D4CB34202D1002225
:1027A0001046F0BD07FB03F5621992F801C08C4595
:1027B00005D1655D854202D15279002AF0D10133FD
:1027C00003F00703E9E700BFAD250020AC2500209A
:1027D0005C25002000238268037503691B689968E3
:1027E0009142FBD25A6803604260106058607047A3
:1027F00070B56FF0010400250368984200D170BDE8
:102800001A689968026050601A699C611D751268A7
:1028100096688E42FBD251681A6059600B60536013
:10282000EAE70368984207D01A6802605060002205
:1028300018469A61FFF7CEBF70470000F0B501253A
:10284000244A05FA00F4176803463C428C463ED100
:102850002B4442F833C0DFF888C002EBC303C3F84F
:1028600004C027431C4B17605F691C4906012F43B6
:102870005F6188195B69D2F804C083681CEA030FA2
:1028800014D14FF0500EC37B03F1604707F5614749
:1028900087F800E303F01F075B099B0003F1604327
:1028A000BD4003F56143C3F880511D6044EA0C0448
:1028B00054608C196368647B1A68895922F00F028E
:1028C0001A600E22A2404A6000221A60F0BD002069
:1028D000FCE700BF9015002000100240C4A80008CB
:1028E000BC35002000EB8103F0B5DE68336813F0DF
:1028F000030348D0022B49D9032B0CBF4FF4C0620D
:102900004FF40072224B0F011C6D736904F1804477
:1029100004F5C0443D1973B100236B60338AD0F8CD
:1029200084C0013323F001036344C0F8843042F0D3
:10293000200247F804C0B369DBB1748A42F4005244
:10294000631E3E2C93BF43F00103124E5B0901331B
:102950008BBF46EA83235B029BB203F47C43EB60AC
:10296000D0F88430013424F001041C44C0F88440C1
:10297000AB608B0003F1804303F5B84318680A434A
:1029800018601A60F0BD4FF40072BBE70022B9E78F
:10299000005C00400080FFFF002180220A4B0B48B2
:1029A00019655964DA644268D2688A420CBF4FF4F0
:1029B0003C424FF43E421A644023C0F88430044B3A
:1029C000C360FFF78FBF00BF005C00400411002010
:1029D00038AA00080E4B00011B6D10B503F18043AF
:1029E00003F5C043C418C358114403F1005303F561
:1029F00040535B006260002AA1EB020400DC10BDC2
:102A000020786478023A40EA042043F8040BF2E7A5
:102A1000005C00404FF40042436B1A6000221A60D1
:102A20005A605A61036B59680A6822F00F020A6003
:102A30005A7B19680E2303FA02F24A60C26A506890
:102A4000016821F00F0101601168527B93404B60D7
:102A50007047000010B40468437B21684268D94085
:102A6000126801F00E010A420ED0827B01FA03F3D4
:102A70006360064B013253F832402CB103EBC203C2
:102A80005868234610BC184710BC704790150020AA
:102A9000012270B5847B194E02FA04F3DB4371689E
:102AA00035681D400B40816873600B40356014D160
:102AB000C17B01F01F0002FA00F04A09920002F106
:102AC000604202F56142C2F88000C2F8800101F163
:102AD000604202F5614282F800330022631C46F82E
:102AE000332006EBC3035A606B0605D1044B5A69C9
:102AF00022F001025A615B6970BD00BF9015002091
:102B0000001002400379052B0AD1C269D36813F083
:102B1000010307D1116921F036011161022202710E
:102B20000020704701200029FBD008607047072073
:102B30007047F7B50479052C43D004241F254FF6C0
:102B4000FF7C0471C469E560256945F001052561D4
:102B500072B31E4621F00105ADF804C005F1006511
:102B600016F8017B01F001030DF1080E734412F118
:102B7000FF3203F8047C01F10101334601D0CF0795
:102B8000EED4BDF804702F80E668F607FCD4E66842
:102B900006F01F0E16F0100FC4F80CE007D17607F0
:102BA00003D42D88ADB2AF42D2D0032200E006227A
:102BB000236923F00103236102230371104603B04C
:102BC000F0BD0122FAE70000004870471CAA000887
:102BD00038B50C46012511460289A54015430581EB
:102BE00000EB8400C26800255069128A03609A4293
:102BF00028BF1A4681604560C56002612046A40076
:102C000004F1804404F5B844FFF7E4FE236823F49C
:102C1000F04323F0400383F0300343F4004343F0D8
:102C20008003236038BD000090F8642038B5152A71
:102C3000044617D80123934040F6416213421ED147
:102C400013F480150FD19B020CD50B2380F8643050
:102C5000302383F311882B462A462946FFF7B8FF15
:102C600085F3118838BDC3689B695B68002BF9D177
:102C7000036F03B19847002384F86430F2E748F209
:102C800080050D490B6823F4F04323F0400383F0E3
:102C900010022A430A600B6823F4904323F0700368
:102CA00083F480532B430B6043681B680BB10621F0
:102CB00098470623E0E700BF005C004070B50124A0
:102CC000468904FA01F53543458100EB8100C5686A
:102CD000A8698260002203604260C2602BB16A8AE8
:102CE000013B1344B3FBF2F39CB2890001F1804134
:102CF00001F5B8410B68048223F4904323F070037C
:102D000083F4405343F4004343F080030B6070BDF1
:102D100038B590F864300446152B39D8DFE803F055
:102D20003E38383838383E38380B29393838383852
:102D3000383838383E3E90F87B1090F87A20C36ED1
:102D400042EA0122934214D2C268128AB3FBF2F51E
:102D500002FB15356DB9302383F311882B462A46C3
:102D60002946FFF735FF85F311880A2384F864307C
:102D70000EE0142384F86430302383F31188002399
:102D800020461A461946FFF799FF002383F311885E
:102D900038BD036F03B198470023E7E748F280008E
:102DA0000D490B6823F4F04323F0400383F0100235
:102DB00002430A600B6823F4904323F0700383F40A
:102DC000805303430B6063681B6813B106212046E0
:102DD00098470623CAE700BF005C004090F87630B1
:102DE000074A80F87E3043F0800310B5D36443680F
:102DF00004461B680BB1012198470323237010BDC3
:102E0000005C0040036810B55B680C469847C368D7
:102E100013B153F8340010BD00696043FBE710B5EF
:102E200003790446052B12D0FFF7ECFF00F1006098
:102E3000031F00F57F7053F8042F013205D1834240
:102E4000F9D100200223237110BD0520FAE70120EB
:102E5000FAE710B503790446052B14D005231F2289
:102E60000371C369DA601A6942F002021A61FFF75E
:102E7000C9FFE36900F10060586100201A6942F05F
:102E800040021A6110BD0120FCE703691960C268A5
:102E9000013AC260C269134482690361934224BF4C
:102EA000436A036100238362036B03B118477047D1
:102EB000436902699A4201D1C26822B9184650F8A2
:102EC000043B0B60704700231846FAE7026AC260B1
:102ED000426A4261026100228262C262FFF788BCDC
:102EE000302383F311880D4B5B6813F4006312D019
:102EF000EFF309834FF08072203BDA6183F3098896
:102F0000074A1168D2688968926891428CBF054A65
:102F1000054A9A61704783F31188704700ED00E01D
:102F2000D01300206322000866220008034610B573
:102F30001B68984203D09C688A689442F8D25A6809
:102F40000B604A601160596010BD03682BB100220C
:102F5000026099611846FFF73DBC7047F8B590F8DC
:102F60006430044613B1002380F86430A44B04F1AC
:102F700074021B6D03F1804303F5C04303EB01139F
:102F80009B6803F1005303F540535B0003F110010C
:102F900053F8040B8B4222F8020BF9D163689B684B
:102FA0001BBB94F8743013F0600546D048F28000E3
:102FB00093490B6823F4F04323F0400383F010029D
:102FC00002430A600B6823F4904323F0700383F4F8
:102FD000805303430B6063681B6813B106212046CE
:102FE0009847062384F86430F8BD204698470028A7
:102FF000D7D094F87B2094F87A3043EA0223E26E2B
:103000009A4288BFE36694F97430E56E002B4FF066
:10301000300380F25F81002D00F04E81092284F898
:10302000642083F311880021E36EA26E2046FFF72F
:10303000CFFD002383F31188D6E794F8752003F0C1
:103040007F0343EA022340F20232934200F01381ED
:1030500025D8022B00F0BA8009D8002B3ED0012BD6
:10306000A4D1684BA3660223E36600233BE0B3F5DB
:10307000817F00F0CF80B3F5407F36D0B3F5807FFD
:1030800094D194F87630012B90D1B4F87C3023F0B1
:103090000203A4F87C30A566E5662567A9E740F23F
:1030A000016293420AD8B3F5C06F28D2B3F5A06F7E
:1030B0007FF47CAFA566E566534B14E0B3F5106F63
:1030C00033D040F602429342CBD0B3F5006F7FF489
:1030D0006DAF04F17F03A366012324E004F17C02B9
:1030E000A2660222E266236783E794F87630012B1A
:1030F0007FF45CAFB4F87C3043F00203C9E794F886
:103100007920616894F878304E6843EA022394F895
:10311000771094F876202046B04700283FF446AF59
:103120004368A3660368E366B7E72378042B3CD1C2
:10313000302383F31188A36804F1100603F0011310
:10314000A36004F12C0756F8043B7BB1586920B109
:103150006FF001010C30FFF7F8FE56F8043C986957
:1031600020B16FF001010C30FFF7EFFEB74246F8D7
:10317000045CE8D1402301220021C4F8843093008C
:1031800003F1804303F5B84318680132082A186038
:103190001960F4D181F3118884F87F1003216368EA
:1031A00021701B680BB12046984794F876304BB1DC
:1031B00084F87F300423237063681B6813B10221F5
:1031C000204698470023A366E3668CE794F878309E
:1031D00003F00F0213F0800F094B53F8223008D090
:1031E00013F030033FF4E2AE102B14BF074B084B33
:1031F00038E713F440533FF4D9AEB3F5805FF4E7FA
:10320000005C004008B20008DD2D000834A9000869
:103210005CAA000894F87630002B7FF4C7AE94F8CF
:10322000782012F00F03CDD09B0003F1804312F001
:10323000800F03F5B8431A680DD002F03002302A2F
:10324000C0D01A6822F4F04222F0400282F020023C
:1032500042F400420BE002F44052B2F5405FB1D0BC
:103260001A6822F4F04222F0400242F4204242F076
:1032700080021A60A6E794F87630002B7FF496AEB1
:1032800094F8782012F00F039CD09B0003F1804348
:1032900012F0800F03F5B8431A6806D022F4F0420A
:1032A00022F0400282F01002D2E722F4904222F093
:1032B000700282F48052CBE7142284F8642083F3F6
:1032C00011882B462A4629462046FFF7F7FC85F34E
:1032D000118889E65DB1152284F8642083F3118892
:1032E0000021E36EA26E2046FFF7E8FCA1E60B2268
:1032F00084F8642083F311882B462A462946204609
:10330000FFF766FCE3E700BF30BFFDE708B53023F9
:1033100083F311880A7D0023052A06D8DFE802F02E
:103320000C050503130F8A6913604FF0FF3308463D
:103330008B61FFF74FFA002383F3118808BD8A6978
:103340009368013393604A680B6813605A60ECE736
:1033500072B6014BD865FEE7D01300200B0710B5FD
:10336000446B02D50948FFF7F3FF036B59680A68FD
:1033700022F00F020A60597B1A680E238B405360BB
:10338000636843F40073636010BD00BF5EAA000869
:1033900038B511F00804436B02D01248FFF7D8FF8C
:1033A000C26A5568296821F00F012960557B1168B0
:1033B0000E22AA404A605A6822F480525A601A6863
:1033C00022F480621A601A6842F400721A60302394
:1033D00083F3118821461C30FFF7B7FD84F3118871
:1033E00038BD00BF5EAA00080829D0B501D9002069
:1033F000D0BD50F82130002BF9D0302383F3118851
:1034000050F8213000221C685B6882F31188002C80
:10341000EDD04FF47A700027084A094ED169094A65
:10342000C91AE0FB0167002330463946FEF71EFF4C
:1034300084428CBF00200120DAE700BFD0130020B7
:103440009F860100A0860100082906D850F82100B7
:1034500020B10068C0F3870070470020704700006B
:103460004B1E072B0BD850F8213043B19100196047
:1034700003490B78002A18BF43F001030B70704713
:10348000611E00200368D0B50BB90020D0BD3023E9
:1034900083F31188036800221C685B6882F311883B
:1034A000002CF2D04FF47A700027084A084ED169F8
:1034B000084AC91AE0FB0167002330463946FEF787
:1034C000D5FE84428CBF00200120DFE7D01300200E
:1034D0009F860100A0860100006810B10068C0F35B
:1034E00087007047036843B19100196003490B7866
:1034F000002A18BF43F001030B707047611E0020C3
:10350000302383F31188026943699A420FD1C3685B
:103510007BB10123026F90F8741012898B40134223
:103520000CBF01200020002383F311887047002086
:10353000F9E71846F7E700EB8103F7B59C6A054603
:103540000E46002C3CD0302383F3118800232269DF
:1035500084F8883063699A4201D1E36813BB05EBB4
:103560008603DB685B691B68E3B1D4F88C3053B128
:1035700001A92046FFF79CFCD4F88C3001469F68D7
:10358000019A1868B847E368E2690133E360636948
:1035900020461344A2696361934224BF636A636156
:1035A000FFF73FF901A92046FFF782FC024648B128
:1035B000019B31462846FFF70BFB002383F311885C
:1035C00003B0F0BD05EB8603DB681A68022AF4D16C
:1035D0005A691268002AF0D01B8A013B1340ECD1D3
:1035E00005F17402E5E713B5446B226F1378042BE1
:1035F00012D1012394F8741012898B4013420BD11D
:1036000001A92046FFF754FC024628B1019B94F81B
:103610007410206FFFF7DCFA02B010BD10B403463F
:10362000006F0278042A13D1012293F874104489A0
:103630008A4022420CD11A695C69A24201D1DC683D
:1036400034B9043204D0DB6910BC043BFFF736BB4D
:1036500010BC704701F1110310B550F8234034B38A
:10366000302383F3118800EB8100C3689B695B689A
:10367000BBB194F87420236F204603EB8203DB6810
:103680009B695A6823691A60E2680132E260E26964
:103690001344A2692361934224BF636A2361FFF745
:1036A000C0F82046FFF7BAFF002383F3118810BD4E
:1036B000406BFFF7B3BF000070B590F8743004465C
:1036C00003F07F02212A40F0AA8013F080025BD031
:1036D000002A00F0A48090F87520022A35D0032A31
:1036E00023D0012A50D190F87830022B01D9002044
:1036F00070BD90F876100829F9D85F4AD35C022B88
:10370000F5D890205D4A00FB0323D3F88C30002BC2
:10371000EDD05B4D5E6818682A46B04705F1080396
:10372000A366AB6CE366002344E090F8782090F841
:10373000791052EA012227D1524B53498366012066
:103740008978E06619702267D2E790F87830022B0A
:10375000CDD890F876100829C9D8474AD35C022BF7
:10376000C5D89020454A00FB0323D3F88C30002BAA
:10377000BDD05A6918689047444B1870A366012061
:103780000023E0662367B3E794F875200A2A26D061
:103790000B2A12D0092A42D194F8782094F8791093
:1037A00052EA012201D0022A39D1394BA366022301
:1037B000E366384B236701209AE794F8783094F851
:1037C000792053EA022306D194F876302E4A00334A
:1037D00018BF012393700023A366E366EAE72A4B30
:1037E00094F877201A7094F87830022B3FF67FAF68
:1037F00094F8761008293FF67AAF1F48C35C022B75
:103800003FF675AF90251D4805FB0303D3F88C30B8
:10381000002B3FF46CAF1D691868A847DBE703F085
:103820009F03812B18D194F87530062B14D194F88E
:103830007920616894F878304D6843EA022394F85F
:10384000761094F877202046A84700283FF44FAF21
:103850004368A366036865E70025084ED6F8843000
:103860002BB90135032D06F19006F7D13FE720462D
:1038700098470028F5D03BE7CCB10008880E00201F
:10388000C41D00204C190020840E002018160020B2
:10389000681E00209938000890F87A1090F87B0094
:1038A000064B41EA002102291A7804D1012A01D0ED
:1038B000062A02D15A78024B5A707047681E0020BF
:1038C000840E002010B5084A084C117824784B1C4F
:1038D00003F00F039C421DBF054C13706054002081
:1038E00018BF012010BD00BF0816002009160020D7
:1038F000F815002090F8772090F8763090F878103E
:1039000043EA022390F8792041EA02211A0A032AA5
:1039100012D006D8012A25D0022A26D000231A4622
:1039200019E0212A11D0222AF8D10229F6D8104B09
:1039300053F821200F4B06E0DBB2032BEED80E4AE2
:103940000E4952F823205B5C05E00229E6D80C4BB7
:1039500053F8212009230B48002A4260036008BF66
:10396000104670471223084AF5E75B23074AF2E73F
:10397000F4A6000800A7000898A60008A8A600085A
:10398000E8A60008881500205EA7000803A7000825
:10399000014B5878704700BF840E002010B5124BC1
:1039A0009A78012A12D1114B93F90030002B0DDACD
:1039B000C1081D2909D80E4B00F007000B4402FA7C
:1039C00000F09A7822EA0000987010BD06230021CA
:1039D000084A12F8014B013BA04208BF02F8011C43
:1039E00013F0FF03F5D1F0E7840E00204E190020FC
:1039F000941100208E11002010B5174B9B78012BDD
:103A000010D1164A92F90020002A0BDAC1081D29AC
:103A100007D8134A00F007000A4483409078034314
:103A2000937010BD4FF0FF3300220E4C14F8011BB1
:103A30008842F6D0B3F1FF3F02D1002908BF1346F8
:103A40000132D1B206294AB2F0D15A1CE9D0064A55
:103A500013449870E5E700BF840E00204E19002043
:103A6000941100208E1100208C1100200B4B07B503
:103A70001A8882420FD01880094B1B685BB1042260
:103A80008DF80500000A8DF806008DF804201B69EA
:103A90000DEB0200984703B05DF804FB50190020BD
:103AA000D01500200B4B07B51A8882420ED0188023
:103AB000094B1B6853B103228DF80500000A8DF8ED
:103AC00006008DF804201B6901A8984703B05DF833
:103AD00004FB00BF82190020D0150020024B18689B
:103AE00008B1036818477047D015002002B110478D
:103AF00070470000364BCD2893F902200AD193F984
:103B0000031000290CDA0021D97052B90021314A82
:103B1000117006E0CE280DD193F903100029F2DCD4
:103B200072B11A795B7913435BB2002B4FD12A4AE9
:103B300013707047CF2806D1002AF1DA00229A705C
:103B400093F90320E1E7D02802D1002AF6DCE7E769
:103B5000D92893F9041004D10029E1DD002119715D
:103B6000DEE7DA2802D10029DADAF7E7DB2893F971
:103B7000051004D10029D3DA00215971D0E7DC28DF
:103B800002D10029F8DCCBE700F12F01C9B20729E7
:103B900007D80121D1388140587820EA01005870B7
:103BA000BEE7DD2805D10D48017821F00101017043
:103BB000B6E7DE2804D10948017821F00201F6E7D2
:103BC000DF28ADD10548017821F00401EFE7704707
:103BD000961900209D1900209E1900209C19002094
:103BE000144B1B78D90705D5134B18788008F8B10A
:103BF000C0B270479A0703D50F4B18784008F6E714
:103C00005B0705D50C4B18787F28F0D97F207047CB
:103C10000A4B1B7853B10A4A074912780878934235
:103C200036BF584380B2B0FBF2F0EDE70120DFE78A
:103C3000012070479C1900207E0E00209E19002054
:103C40007F0E0020184B194A1B781089D90709D517
:103C5000174B1B785843C0F38F007F2820D808B338
:103C6000C0B270479A0705D5114B1B785843C0F373
:103C70004F00F2E75B0704D50D4B1B78584380B229
:103C8000EBE70C4B1B78002BE7D009490A4A09786F
:103C90001278484393423CBF5843B0FBF2F0EEE742
:103CA0007F207047012070479C190020E010002001
:103CB0007A0E00209D1900207B0E0020CD2808B52B
:103CC00005D1FFF7BFFF4042294BD87008BDCE2871
:103CD00002D1FFF7B7FFF7E7CF2805D1FFF7B2FF13
:103CE0004042234B9870F1E7D02802D1FFF7AAFF9A
:103CF000F7E7D92804D1FFF773FF1D4B1871E5E7EB
:103D0000DA2803D1FFF76CFF4042F6E7DB2805D144
:103D1000FFF766FF4042164B5871D7E7DC2802D107
:103D2000FFF75EFFF7E700F12F03DBB2072B08D8A0
:103D300001230F4AD13803FA00F05378184350702A
:103D4000C4E7DD2805D10B4A137843F00103137053
:103D5000BCE7DE2804D1074A137843F00203F6E7F4
:103D6000DF28B3D1034A137843F00403EFE700BF21
:103D7000961900209C19002000EB4003C3EB0313AD
:103D800000EB830003B2002B07DAB3F1800001D50A
:103D900003F17F0040F30720704703F18000F9E74B
:103DA0000379194215D18378ABB1027A1940120711
:103DB00003D5081C18BF0120704703F00F0001F065
:103DC0000F0240EA131042EA1111431A58425841B7
:103DD0007047002070470120704700000A200F4BF9
:103DE0000F4A9988B1FBF0F11170D9880D4A117012
:103DF00059890D4A117099890C4A1170DA890C4958
:103E0000B2FBF0F20A70198A0A4A1170598A0A4AFA
:103E100011709A8A094B1A70704700BFE010002099
:103E2000780E0020790E00207A0E00207B0E0020F4
:103E30007C0E00207D0E00207E0E00207F0E0020D4
:103E4000024B1A88024B1A80704700BFE010002016
:103E50004A0E0020002210B5064B074C07480849BF
:103E60009A610132202A9C60D860196103F11C0319
:103E7000F6D110BD701E0020ED5E0008555E0008F2
:103E8000315D0008B0F5F84F04D1034B1B68002BDF
:103E900008BF0020704700BF5825002038B5104BE0
:103EA0000D461C680F4B0444186803685B6898470C
:103EB00043690D491A5B01230C4C0D482370002304
:103EC0000978037009B1D24392B22370017819B115
:103ED000037000202B8038BD2A800120FBE700BF43
:103EE000500E00200C16002010160020191600207D
:103EF000D815002013B50C4A0B46ADF80610116812
:103F00000A4A0144127812B1DB43ADF80630084B7F
:103F1000022218680368DC680DF10603A047B0FAB6
:103F200080F0400902B010BD500E00201016002095
:103F30000C16002041F204020A4910B58B5C7BB1DB
:103F4000302383F31188084CE069036943F0800350
:103F5000036101200023207183F311888B5410BD6D
:103F60000220FCE7B0250020C010002070B541F20F
:103F700004040E4D2B5DB3B9302282F311880C4935
:103F80000C48CA698B6056683043506056680A48CE
:103F900030435060094A136102220A7183F3118889
:103FA0000120285570BD0220FCE700BFB02500208D
:103FB000C010002023016745AB89EFCD00200240EF
:103FC0002DE9F743FFF7D2FF00250446304E36F8BF
:103FD000021B2846FFF78EFF002856D00235B5F5A4
:103FE000805FF4D128462B4B2B49294E4FF0000C13
:103FF00016F8018B88EA030293184FEA01184FEA7A
:10400000021941EB010E48EA127813EB09034EEB5B
:10401000080E4FEA42199B184FEA41184EEB010E69
:1040200048EAD26813EB09034EEB080E4FEAC219B7
:104030004FEAC11848EA526813EB09034EEB080E29
:1040400017024FEA0128DB1948EA12684EEB080113
:1040500013EB0C0347EB01010138C7D16E4641F267
:104060000807CDE9003136F8021B2846FFF742FF6A
:1040700058B10235BD42F6D10225012C01D1FFF71E
:1040800059FF284603B0BDE8F0830546F5E700BFB9
:10409000B025002025232284E49CF2CB0020704729
:1040A0000020704710B52F4C21784B0713D500F036
:1040B0001402A2F1040C00F01803DCF1000242EB40
:1040C0000C02A3F1080CDCF1000343EB0C039A4251
:1040D00018BF80F00C000B0713D500F01402A2F1FA
:1040E000140C00F01803DCF1000242EB0C02A3F107
:1040F000180CDCF1000343EB0C039A4218BF80F06C
:104100000C006478E30713D500F0110202F1FF3CC4
:1041100000F01803DCF1000242EB0C02A3F1080CE2
:10412000DCF1000343EB0C039A4218BF80F0090056
:10413000A30711D500F0110200F01803A2F1110439
:104140006242A3F1180C6241DCF1000343EB0C0363
:104150009A4218BF80F00900CB0648BF00F0E70084
:1041600010BD00BF4E190020822825D00CD8312860
:1041700067D004D829285AD02A2869D07047352812
:1041800050D0392818D07047E32833D004D8E0281D
:104190001CD0E22829D07047E62835D0E72838D04F
:1041A000E42835D1334B5A78910731D51B7813F079
:1041B000100F08BFE72015E02E4B1A78920752D156
:1041C0005B7813F0080F18BF29207047294A13782D
:1041D000D90744D4527812F0010F19D013F0100F00
:1041E00008BFE32018BF00207047224B1B7813F054
:1041F000040FF2E71F4A1378590732D45278D207D6
:1042000031D413F0100FEDE71A4B1B781A07CED4F8
:104210007047184A1378190727D452789107F0D5B8
:10422000E4207047134B1B7813F0200FCBE7114BA2
:104230001A7892061BD45B7813F0080F18BF392048
:1042400070470C4B1B7813F0400F18BF2A207047A3
:10425000084B1B7813F0400F18BF312070473920EE
:104260007047E2207047E0207047E6207047352015
:10427000CEE700BF4E19002038B5FFF775FFB0F547
:10428000A04F044622D2B0F5804F77D2DF2812D853
:10429000CD2861D2A7280AD8A5284ED2012804D05B
:1042A00003B233B1032898BF0024204638BDC2288A
:1042B0004AD90024F9E7B0F5005F80F0A280B0F59C
:1042C000807F4DD2E82828BF0024EEE745F25F2327
:1042D000984216D845F2402398425FD245F21F23F8
:1042E000984254D8B0F5A44F7CD30123C4B2A0089F
:1042F00004F0030403FA04F444EA401444F40D44C3
:104300002CE045F29F23984207D8B0F5A54F52D331
:1043100000F01F044AF2F4003DE045F2BF2398424A
:1043200056D945F2DF239842C3D8040204F4F85466
:1043300044F4204444F0F004B7E75B34394BE4B272
:104340001C5D44F48044B0E75834374BE4B233F892
:10435000144044F48844A8E740F4A044A4B2A4E77D
:10436000C0F30720FFF79EFE0546E0B2FFF7FCFE14
:104370002D0205F4F855284384B296E7C0B2FFF742
:10438000F3FE04F47064044344F42044E6E700F0D0
:104390001F044AF2F10040EA042486E70123C4B274
:1043A000C4F3820004F0030403FA04F444EA401462
:1043B00044F40C44D2E70123C4B2C4F3820004F0F5
:1043C000030403FA04F444EA401444F40A44C5E73D
:1043D00000F01F00FFF766FE040204F4F85444F4F2
:1043E000005462E700F01F00FFF75CFEC306C4F351
:1043F000431448BF0001240200B2044344F41044B3
:10440000ACE7C0F30420FFF74DFE0546E0B2FFF72E
:10441000ABFE2D0205F4F85545EA000444F40054BF
:104420009CE700BFACA60008B0A60008024A1378BB
:1044300023EA000010707047C11D0020024A137863
:1044400018431070704700BFC11D0020054B064A7D
:104450001B7812789A4200D17047013303F00703AA
:10446000F8E700BFAD250020AC25002030B50124C1
:10447000084D04FA01F104FA00F02B780843C0B2A9
:1044800030EA030104FA02F206BF1343DBB293439E
:104490002B7030BD901900200123044A03FA00F06C
:1044A000137823EA00031370704700BF90190020AF
:1044B0000123034A03FA00F0137818431070704781
:1044C00090190020C0F303320E3202F00F02092AC5
:1044D00010B5C4B21BD8012101FA02F340F2033235
:1044E000134203D113F010000DD110BDF02C10D0E9
:1044F00004D8E72C8CBF00200120F6E7F42C14BF71
:1045000000200120F1E7E72C03D9F12CF7E7002088
:10451000EBE70846E9E7000021B1064A137843F0CB
:1045200002031370A0F50053B3F5405F38BFC0B26B
:1045300005F054BFAE25002070B500EB81030546A1
:1045400050690E461446DA6018B114220021FEF7B5
:1045500085F8A06918B114220021FEF77FF83146D2
:104560002846BDE87040FEF7BDB9000070B50529CA
:104570007CD8DFE801F0507B0350507C302383F37C
:1045800011880025424C04F1380294F87410206F11
:10459000FFF7D2FF2046FEF799FC04F1C80294F819
:1045A00004112572D4F80001FFF7C6FF04F1900052
:1045B000FEF78CFC04F5AC7294F8941184F89850D2
:1045C000D4F89001FFF7B8FF04F59070FEF77EFC79
:1045D00084F828512F4C04F1380294F87410206F9D
:1045E000FFF7AAFF636A204663612361E560A56265
:1045F000E562FEF7FDF82572FFF710F885F31188E4
:10460000254B1B7813B10520FFF75CF90220BDE8AC
:104610007040FFF757B90846FFF754F9302383F38A
:104620001188002501261A4C20462672FEF7E0F874
:10463000FEF74CFCD4F88C3013B1DA681868904758
:104640000135032D04F19004EED101230025114C16
:1046500023722046FEF7CCF8636AE560636123614C
:10466000A562E562FEF7C4F885F3118870BD3023BA
:1046700083F311880023064A137282F8983082F877
:104680002831044A137283F311880520BFE700BF65
:10469000880E0020381000208119002070B50026F7
:1046A000051F00F1200455F8040F38B1826C002179
:1046B0000830FDF7D3FF2B681E605E60A542F2D183
:1046C00070BD10B50446006840B1826C002108300E
:1046D000FDF7C4FF002223681A605A6010BD000075
:1046E000084B9B78012B09D1074B93F90030002B25
:1046F00004DA1E2200210548FDF7B0BF0622002182
:104700000348F9E7840E00204E190020961100207E
:104710008E11002008B5064B4FF480521846002138
:10472000FDF79CFF41F2080200F580531A6008BDB6
:10473000B025002038B50446007905280DD00320A7
:104740001F252071E06901F10061C5601846FDF781
:104750000FFF02230020237138BD0120FCE7082948
:10476000134609D850F8211031B18A6C03F10800C2
:104770009A640831FDF7FCBE704700000B7810B456
:10478000082B0BD850F8230040B1054B8264DB693D
:10479000083040F8043C10BCFDF7EABE10BC70477E
:1047A000D01300200168134631B18A6C03F1080070
:1047B0009A640831FDF7DCBE70470000006810B451
:1047C00040B1054C8264E469083040F8044C10BCE8
:1047D000FDF7CEBE10BC7047D0130020032A07B5EA
:1047E000084614D90B4A1378527802F0010143EAC3
:1047F0000123C2F3400243EA422304220DEB0201EB
:104800000193FDF7B5FE002003B05DF804FB4FF007
:10481000FF30F9E74E19002008B5034608465988CD
:10482000914205D80A465968FDF7A2FE002008BD4E
:104830004FF0FF30FBE7000008B503460846991823
:10484000B1F5805F05D804491944FDF791FE0120B8
:1048500008BD0020FCE700BFB02500201F2808B5D8
:1048600006D80A2250435430FFF7E6FF002008BD67
:104870004FF0FF30FBE700001FB5A0F5AE43FF2B64
:1048800009D801A9C0B2FFF7E9FF20B9BDF80C00B3
:1048900005B05DF804FB014B188BF9E7E010002030
:1048A000F0B54FF435750027314C324E85B00A22F1
:1048B00001A92846FFF7C0FF1022002104F10800DB
:1048C000FDF7CCFEBDF80430277223809DF80A3036
:1048D0000A35A370BDF80830183404F8153C9DF86B
:1048E0000B3004F8143C9DF80C3004F8133CBDF870
:1048F000063024F8123C9DF80D3013F0800F0CBFE9
:1049000032460022D90744F8042C44BF012204F89F
:10491000102C9A0742BF14F8102C42F0020204F83F
:10492000102C580742BF14F8102C42F0040204F86F
:10493000102C190742BF14F8102C42F0080204F89A
:10494000102CDA0642BF14F8102C42F0100204F8C2
:10495000102C9B0642BF14F8103C43F0200304F8CF
:10496000103C40F214439D42A1D105B0F0BD00BF00
:104970004C2200204A2200207FB54FF4A072002173
:104980001248FDF76BFE4FF4C07200211048FDF78E
:1049900065FE4FF4CA740D4E0D4D0A2201A9204642
:1049A0002E60FFF749FF3046082201A9FDF7E0FD20
:1049B0000A34BDF80C30B4F5357FAB8006F10A0639
:1049C00005F10C05E9D104B070BD00BF0C18002042
:1049D0008C160020002307B501220DF107018DF888
:1049E0000730FFF729FF9DF8070003B05DF804FBCF
:1049F00008B52720FFF7EEFF08BD08B52420FFF714
:104A0000E9FF722801D0002008BD2520FFF7E2FF52
:104A1000C528F8D12620FFF7DDFFA0F12803584272
:104A20005841F1E738B5450005F12800FFF7D2FFFE
:104A3000000284B205F12900FFF7CCFF204380B2C9
:104A400038BD000038B53024094D2046FFF7C2FFBD
:104A50000134542C05F8010BF7D10024054D2B69C6
:104A600003B198470134152C05F11405F7D138BD71
:104A7000E010002098AB0008054BD968087518684D
:104A8000026853601A6001220275D860FDF7D8BB36
:104A9000D013002070B5302300F10C0683F3118889
:104AA000174B4469DD689CB92B6A456183612E62AE
:104AB00022E0A360237D83B1062B15D123686268B1
:104AC000A069214613605A60FEF730FAA3699C681A
:104AD000AB68A2689342ECD806E06268236820467F
:104AE00013605A60FDF776FE30462946FEF71EFA3F
:104AF000AE610620FFF7C0FF002080F3118870BD73
:104B0000D013002070B5114D4B1C86B00646EC68E2
:104B100019D00F4B68460393002304940593FDF7C7
:104B20001DFE3046FFF7A8FF009B4BB19A68029923
:104B30000A449A60019A13605A604FF0FF33AB61E8
:104B4000A06906B070BDFFF797FFF9E7D01300200A
:104B50000D33000808B50A4664230146782005F0A5
:104B6000A3FCB0FA80F0400908BD000038B50A4B3C
:104B70000A4C1B782078254613B980F0010006E026
:104B800040B102210648FFF7E5FF08B9207838BD9B
:104B9000002323702878F0E7AE1D0020A419002020
:104BA000FEA90008704770472DE9F84FA94B5F6CCC
:104BB000FA435A647B0531D50025022208264FF0BE
:104BC0003009A54C2270E567A56004F10C0858F87F
:104BD000043BABB189F3118858F8043C586920B103
:104BE0006FF001010C30FEF7B0F958F8043C9869F9
:104BF00020B16FF001010C30FEF7A7F985F31188A1
:104C0000013E48F8045CE2D184F86460FDF7C4FE1C
:104C100063681B6813B131468F4898473E050BD433
:104C2000FD043ED4B80504D58B484368DB6803B166
:104C30009847894D894EABE0864A874C136C43F008
:104C4000080313642378052BEAD084F88030052309
:104C5000237063681B6813B1042120469847002520
:104C600008264FF03008A5607D4C54F8043BABB1EA
:104C700088F3118854F8043C586920B16FF00101A1
:104C80000C30FEF762F954F8043C986920B16FF0DB
:104C900001010C30FEF759F985F31188013EE4D18A
:104CA000BEE76C4B9A6C1404BCD41A6C6A4822F0B0
:104CB00008021A6401780529B4D190F88030037095
:104CC00043681B68002BADD09847ABE707F00F0097
:104CD000840004F1804400F1020804F5B84405EBB7
:104CE0008803F9062268D3F804C042D42368DCF8AC
:104CF0001470334043F400437A68396923603B6899
:104D00000A449B1A7A6017D0BCF810209A4228BF38
:104D10001A46BB683A611944B960FDF75BFE236827
:104D200023F4F04323F0400383F0300343F40043C3
:104D300043F08003236029E0012303FA00F22B896A
:104D400023EA02032B81DCF8083013B10146284620
:104D50009847302383F31188002105EB8808D8F8A1
:104D6000043058690C30FEF7F0F8002383F3118803
:104D70000CE02368120503EA060343F08003236076
:104D8000C1B20BD5DCF8043028469847314B5F6C34
:104D90003B049BD4BDE8F84FFEF7A2B8DCF818201E
:104DA0002C4BD2F808E01B6DF04603F1804303F56D
:104DB000C04303EB0017BB68FF6803F1005303F522
:104DC0004053C7F309075B004FEA570903EB890A11
:104DD000534508F1020833D16FF0010808FB097848
:104DE000B8F1000F02D01B680EF8193093683B44ED
:104DF000936053683B4453601368DB1B1360138A52
:104E0000013B9BB21382BCF81220BA4200D84BBBC4
:104E1000012303FA00F26B89841C23EA02036B81ED
:104E200005EB84035B68DB680BB1284698473023A9
:104E300083F3118805EB840463689869416891E7FE
:104E400053F804BB08F802BC4FEA1B2B08F801BC5E
:104E5000BEE700BF005C0040041100200F07FFFF09
:104E600010110020236823F4904323F0700383F48F
:104E700040535BE770B5302383F31188154E3046FD
:104E8000F1690131F16150F8101F814206D1002310
:104E900083F31188BDE87040FEF722B81D468A688A
:104EA000013A8A603469A368002BF0D122686168F6
:104EB0000A605160236083F31188E368216920460A
:104EC000984785F3118861690029EBD02046FDF7EA
:104ED00045FCE7E7D0130020F8B5304B596B4C691F
:104EE00004F45F40C0434861186BA2B2466835685D
:104EF00025F00F053560457B06680E2000FA05F5A4
:104F00007560DD6A6F683E6826F00F063E602E68A9
:104F10006D7BA840706012F4807018BF012098600B
:104F2000900542BF986840F00200986057050BD585
:104F30004D68986825F400754D600D6840F00400D8
:104F400045F400750D609860160542BF996841F000
:104F500008019960550442BF996841F020019960A9
:104F6000D00442BF9A6842F010029A6021049A6805
:104F70000ED542F040029A60302383F311886FF01F
:104F800001010748FDF7E1FF002383F3118801E0E9
:104F9000002AF1D1BDE8F840FDF7A2BFBC350020E2
:104FA000D8350020404870B5446B404AA369656914
:104FB00045EA034303F0FF13934202462BD014D873
:104FC0003B498B4205D001318B4228D0B3F1011F00
:104FD0001CD1128C130A18D003F0060302F0010250
:104FE000134343F0F003236110E0324A93422CD084
:104FF0000232934234D0304A934207D1FDF70AFD82
:10500000636823F40073636000E0226115F00A0F07
:1050100018BFA36931E0038CC3F34703E3E7636878
:1050200023F400736360C36A5B681A6842F001028C
:105030001A60626842F4805262605B68012BE5D8B6
:10504000236823F480632360E0E7636823F400733C
:105050006360036B5A68136843F001031360D5E77C
:105060002369C36A5B685E685EB1038C43F0010329
:105070000384236843F4A0632360BDE87040FDF718
:105080002FBF636823F400736360236843F40073E5
:105090002360302383F3118831461C30FDF755FF20
:1050A00086F31188B2E700BFBC350020080003007A
:1050B000010003008200070011000300032AF0B57D
:1050C00028D10161154B9F5C002308221D461C4618
:1050D0001E4611F0800F4FEA04144FEA03134FEA03
:1050E00006164FEA05150CBF44F00F043B4311F4BC
:1050F000004F0CBF46F00F063D43013A4FEA410115
:10510000E7D1426832402A4342600268224013439A
:105110000360F0BD042A08BF4161D3E7D6A90008A7
:1051200008B50348FDF796FCBDE80840FDF7D8BE7A
:1051300024A9000808B50348FDF78CFCBDE8084029
:10514000FDF7CEBE14A9000808B50348FDF782FCA0
:10515000BDE80840FDF7C4BE04A9000808B503482F
:10516000FDF778FCBDE80840FDF7BABEF4A80008DA
:1051700008B50348FDF76EFCBDE80840FDF7B0BE7A
:10518000E4A8000808B50348FDF764FCBDE8084042
:10519000FDF7A6BED4A8000808B50348FDF75AFCE1
:1051A000BDE80840FDF79CBEC4A80008F8B59C46C1
:1051B0000446089F302686F3118800258560032069
:1051C000490020702184606B85F31188216BA36AEC
:1051D00049680B60CA60C1F804C041F2873CE36AC9
:1051E000626A5B681A60069ADA60079A5A60314B05
:1051F000D96986F311888269920702D40268920500
:1052000024D5DA69521A62451DD9236B59680A6898
:1052100022F00F020A605A7B19680E2303FA02F289
:105220004A60E26A5068016821F00F01016011686C
:10523000527B4FF0FF3093404B60052323700023D7
:1052400083F31188F8BD85F31188D2E74268DB68E3
:1052500042F400724260026842F48072026004F11B
:105260001C020FB3E36139469A610320FFF74AFC41
:10527000E8B1236B59680A6822F00F020A605A7B72
:1052800019680E2303FA02F24A60E26A5568296837
:1052900021F00F0129601168527B9340421C4B6042
:1052A0000CBF05230223C9E74FF0FF30E1E70223DB
:1052B000C4E700BFD013002010B53023044683F3A9
:1052C00011880378012B22D0FDF7A4FB206BFDF79A
:1052D000DFFBE06AFDF7DCFB0022104B22639C42FF
:1052E000E26214D102210E4BC3F88410C3F884117A
:1052F000042183F82123C3F88410C3F8841183F8B0
:105300002223084BDA6922F48002DA61DB69002388
:1053100001226360227083F3118810BDBC35002028
:1053200000E100E000100240F8B50446302383F3AA
:10533000118803784160012B456B35D19A23836234
:105340008A2343624C4B98422ED14C4E4C493369D0
:10535000042043F480033361336923F48003336111
:105360003369FDF76BFA4749E0620320FDF766FAFF
:1053700050220221F369206343F48003F361F3694F
:10538000414B83F82123C3F88411596083F8222309
:105390000422C3F884215A60636A43F44053636271
:1053A000A36A43F44053A362E36A616B5A6805F150
:1053B00010039360226B6068526893604FF400435F
:1053C0004FF410622B6000232B606A604E684268C5
:1053D00026F03F063604360C077A4E604E6846F0DB
:1053E00024064E60294EB2421FDC294B520093FB2B
:1053F000F2F32522C3F30B030A62CB6102780B6838
:10540000022A9BB22FD0032A33D0012A02D123F0E3
:105410000A039BB20B602B68002043F001032B6052
:105420000223237080F31188F8BD1A4EB242E4DCE7
:10543000022F0AD102EB4206154AB2FBF6F292B2F3
:105440001A4342F400430B22D6E7032F03BF19236C
:1054500053430F4A40F6FF7202BFB2FBF3F24FF420
:10546000804392B2ECE723F008039BB243F00203BF
:10547000D0E743F00A03CDE7BC350020001002401E
:10548000913300085D33000800E100E0A0860100D0
:1054900000512502801A0600EFF30983203383F3BD
:1054A0000988002383F31188704708B5014630232B
:1054B00083F311880820FFF725FB002383F311886D
:1054C00008BD00002DE9F74F0025012440F2E73820
:1054D0004FF00009184F3B68AB4203D8204603B099
:1054E000BDE8F08F154E164B3068196803682944E3
:1054F0005B699847012888BF00243668DFF844A01C
:10550000336801A99B6930469847012802D010D81A
:105510000135E0E7C346CC4601994FF47A72EAFBC5
:1055200001BC002361465846FCF7A0FEFFF7BDFF13
:10553000E6E70024ECE700BF800E00200C160020F8
:10554000700E0020A086010038B5FEF70FFD04465E
:1055500018B9FEF7EFFC204638BDFFF7B3FF05464C
:10556000FFF7D8F8012C06D1FEF7E4FC00280CBFA9
:10557000002505F001052C46EDE7000010B5084CAC
:105580002368B3F5005F08D3FFF79CFF20B1FEF757
:1055900017FD41F20803236010BD0120FCE700BFA6
:1055A000B035002010B5074C01462068FEF7A2FC7C
:1055B00030B1236802332360BDE81040FFF7DEBF3F
:1055C00010BD00BFB03500202DE9F04F8B4681188B
:1055D000B1F5805F85B00746154604D90024204602
:1055E00005B0BDE8F08F554C044421465846FDF700
:1055F00085F8002800F09F802A4659462046FCF78F
:10560000B7FFFEF7B3FC019070B34FF00008012D17
:105610009BF800102BD9FB0729D4B7F5804F26D271
:105620009BF8012041EA0222012A20D8002A14BF57
:105630006FF05F026FF07F0242EA572262F3070ABF
:105640007A0862F30F2A1FFA8AF0FFF7ABFF0128EE
:10565000044662D1023D02370BF1020B002DD6D178
:10566000FFF78CFF04465CE0FEF764FCB6E73F2FD3
:1056700011D847F0400262F3070961F30F291FFABE
:1056800089F0FFF78FFF0128044646D1013D01371D
:105690000BF1010BE2E7052D2E4628BF0526C7F3C7
:1056A000024242EAC6028DF808203A0AADF80A80A2
:1056B0008DF80920ADF80C805A46ADF80E808DF8B3
:1056C0000A700DF10B01B34412F8010B934501F878
:1056D000010BF9D1BDF80800FFF764FF012804466B
:1056E0001BD1BDF80A00FFF75DFF0128044614D165
:1056F000012D08D9BDF80C00FFF754FF012804461E
:105700000BD1032D02D8AD1B3744A7E7BDF80E001F
:10571000FFF748FF01280446F5D014B1022C18BF4A
:105720000024019B012B7FF45AAFFEF703FC0028F5
:105730003FF454AF53E7012451E700BFB0250020E8
:10574000002337B50C4602220DF10601ADF80630F4
:105750000546FFF771F8BDF806309C4207D00222DB
:105760000DF106012846ADF80640FFF72DFF03B006
:1057700030BD37B5042200240DEB0201054601942B
:10578000FFF75AF8019B33B1042228460DEB0201C2
:105790000194FFF719FF03B030BD37B50C4605463D
:1057A000FFF718F9A04207D001220DF107012846A2
:1057B0008DF80740FFF708FF03B030BD10B5041E99
:1057C00014BF7221FF212420FFF7E7FF002C14BF34
:1057D000C521FF212520FFF7E0FF002C18BF28215D
:1057E000BDE8104008BFFF212620FFF7D6BF38B51F
:1057F0000D46440004F12800090AFFF7CEFFE9B284
:1058000004F12900BDE83840FFF7C7BF10B540F2EA
:105810001444204600210134FFF7BFFFB4F5805F38
:10582000F7D110BD38B53024074D2046FFF7D2F828
:1058300015F8011B814202D02046FFF7AEFF01346C
:10584000542CF2D138BD00BFE010002008B54388C9
:10585000934207D81A464068FCF78AFEFFF7E2FF3A
:10586000002008BD4FF0FF30FBE70000302383F33A
:105870001188034BDB6898610F20FFF7FDB800BF6C
:10588000D01300200C4B10B41868D968026853601C
:105890001A600122D860002302758A680B750B69B3
:1058A0001B689C689442FBD85A680B604A6010BC25
:1058B00011605960FCF7C4BCD0130020044B1A6877
:1058C000DB6892689B689A4201D9FFF7DBBF70479B
:1058D000D0130020164A38B500F10C010346D068F9
:1058E000302282F31188DC689A69A14202621BD0DF
:1058F000446A82B98460D8680268DA605160026ADA
:1059000058619A610162FCF765FFFFF7D7FF00203D
:1059100080F3118838BD1568AA4203D0AD68AC4247
:1059200038BF2C46D268E4E700225A61EFE700BF97
:10593000D01300202DE9F74F302382468B46914645
:1059400083F311889025504B05FB00352A6F009397
:1059500012780020042A04D080F3118803B0BDE837
:10596000F08F95F8883042F21078002B18BF4FF076
:10597000000880F311882C46302383F31188002619
:105980005F46A36A3BB9E36853B323691A1DA26259
:10599000E2691344E362A06AE36AA9EB06021B1AF8
:1059A000934228BF1346402B48D939464022FCF782
:1059B000DFFDA36A40374033A3624036A26AE36A40
:1059C0009A4204D3E16928460439FDF75EFA0023C0
:1059D00083F31188B1451AD9302383F31188D0E7B6
:1059E000237A7BB9294BDB68B8F1000F0AD06A68CB
:1059F0001D605A604146136004206B60FFF782F817
:105A00000028C0DA002787F31188B14522D8302357
:105A100083F311889023009A03FB0A2ADAF82810EE
:105A200039B1DAF810300439C91A02D02846FDF726
:105A30002CFA002383F3118801208FE71A46394698
:105A40000193FCF795FD019BA26A1F441A44A262D0
:105A50001E44B3E7302383F3118894F88830284636
:105A6000002E14BF1E4643F00106012384F888600F
:105A70002372FCF7BDFEFDF729FA2772FFF71EFF20
:105A800087F3118878E700BF880E0020D01300202C
:105A9000014603220020FFF74DBF014606220020E9
:105AA000FFF748BF014620220020FFF743BF014611
:105AB00008220120FFF73EBF70B5082000240B4BE1
:105AC00093E826000439954207D8D968914209D84D
:105AD000013803F11003F3D170BD51F8046F42F89F
:105AE000046BF0E742F8044BF0E700BF3CAD000860
:105AF000FEE77047194B1A6842F001021A601A68F3
:105B00009007FCD51A6802F0F9021A6000225A6068
:105B10005A6812F00C0FFBD11A6842F480321A60F6
:105B20001A689103FCD55A6842F4E8125A601A6860
:105B300042F080721A601A689201FCD51221084A5C
:105B40005A60084A11605A6842F002025A605A6864
:105B500002F00C02082AFAD1704700BF0010024080
:105B600000641D0000200240BFF34F8F0549064B23
:105B7000CA6802F4E0621343CB60BFF34F8F00BFEB
:105B8000FDE700BF00ED00E00400FA0570B5EFF39B
:105B9000118525B9EFF30583302282F31188174B65
:105BA000174E184ADC6933681168E41AA142164995
:105BB0000AD9A3F58333E03B08683360134B04F53F
:105BC00083340344E0340B6014600E6835B9EFF39E
:105BD0000583C3F308036BB185F311884FF47A751D
:105BE00000210B480B4A0023E5FB0401FCF73EFBB8
:105BF000304470BDFFF762FEEEE700BFD013002017
:105C00004422002088190020A019002088598F0202
:105C10009F860100A086010010B5FFF7B7FF0D4B6E
:105C200080B2DA7899780A4318BF0B4A197918BFFD
:105C300010805A790A431CBF084A1080084A12682B
:105C400032B1022119700348D368BDE810401847EB
:105C500010BD00BF961900208C1900208E1900205D
:105C6000D0150020F8B50C4E07463468FFF78EFFBC
:105C7000001BB0F5FA7F094D094C07D233682B6041
:105C80004FF4FA732360074B1F80F8BDFFF77EFFC8
:105C900032232860F6E700BF541900208015002049
:105CA0007C150020841500200C4B10B51B780C4C83
:105CB0000BB9207810BDFFF769FF0A4B00F56A4069
:105CC000603018602378002BF3D102210648FEF7DC
:105CD00041FF0028EDD001232370EAE7AE1D00202C
:105CE000A4190020B41D002000AA000807B50F4A1F
:105CF000B0F5005F108004D203B05DF804EB04F04F
:105D000052BB4FF2F003ADF80030FFF73FFF012325
:105D100040F00100ADF80430ADF8020002AB13E929
:105D2000030003B05DF804EB04F030B91216002054
:105D3000F8B5CCB2054620492046FEF78FFD002875
:105D400039D11E4BD98BD9B140F2E73600271C4818
:105D50004FF47A72E0FB0167002330463946FCF7C6
:105D600085FAFFF7A2FB0021164AA970135D1155B1
:105D7000013B042B1FD8DFE803F01A050C0F1A00B3
:105D80000120EEE70C4B588890B1BDE8F840FFF7D2
:105D9000ADBF094B9888F7E7074BD8880028F4D1A6
:105DA0001A8858882AB10028EFD11046EDE7024B37
:105DB00018880028E9D1F8BDFA210020E010002061
:105DC000A08601005215002007B5104AB0F5005F0B
:105DD000108004D203B05DF804EB04F0FFBA4FF278
:105DE000F003ADF80030FFF7D1FE40F2011340F0B0
:105DF0000100ADF80430ADF8020002AB13E9030076
:105E000003B05DF804EB04F0C1B800BF1216002027
:105E1000D0B50446FFF7D8FF0C4BD98B99B140F2AF
:105E2000E73600270A484FF47A72E0FB0167002347
:105E300030463946FCF71AFAFFF737FB2046BDE833
:105E4000D040FFF753BF0120F6E700BFE01000206D
:105E5000A0860100F8B5234CCDB20646214628465F
:105E6000FEF7FCFC2746002838D1B2781E4B012AE9
:105E70000ED171794E0703D538885A5570B312E0A8
:105E8000C807F9D5022260885A5560B92088F5E71D
:105E9000022A21D17279510717D4D20707D40322DD
:105EA000A0885A5598B1BDE8F840FFF78DBF04228D
:105EB000E0885A550028F6D1208880B1FFF7A8FF66
:105EC00060880028EFD12088EDE705225A55208808
:105ED00020B1FFF79DFFF6E706225A55F8BD60880E
:105EE000CCE700BFFA2100205215002038B50C4C39
:105EF0000546C8B22146FEF7B1FC80B9248874B1CA
:105F0000AB78032B0AD12046FFF782FF2046FFF72C
:105F10007FFF2046BDE83840FFF77ABFF9D838BD8B
:105F2000FA210020F8B5154B154D9B682A786FEAC9
:105F3000531303F001039A42124E09D02B70012330
:105F40003370FFF723FE104B186000242046F8BD85
:105F50003478002CF9D00C4B1F68FFF717FEC01BDC
:105F60000428F2D9094A297813788B424FF00003AC
:105F700014BF11701C463370E8E700BF000C0140ED
:105F8000C01D0020721500207415002094190020F7
:105F900073B5FFF7FBFD0B4C85B22388AB420ED0E7
:105FA0000026ADF80060FFF7F1FDADF80460ADF834
:105FB000020002AB13E9030003F0E8FF258002B002
:105FC00070BD00BF8619002038B5074B05465B78C9
:105FD0005B0708D5054C2378834204D0FFF7D6FD34
:105FE000034B2570188038BD4E190020BD1D0020C0
:105FF000BE1D002008B5074A1378034208D023EAE3
:106000000000107010B1FFF7C1FD80B2024B188084
:1060100008BD00BFBD1D0020BE1D0020094A08B5F7
:10602000527852070AD5084B41EAC0011970FEF7B1
:106030003FFAFFF7ABFD054B188008BDBDE80840EF
:10604000FEF736BA4E190020B81D0020BA1D0020F8
:1060500070B50F4A0F4B11781C780B460E4D9C42C1
:1060600010D035F8136086420DD10C250B4C8B42B5
:1060700005FB00404FF00104847103D1234403F079
:106080000303137070BD013303F00303E7E700BFA0
:106090005015002051150020481500208C160020B6
:1060A0000023064A1380064AD17909B99171117209
:1060B0000133202B02F10C02F6D170479219002017
:1060C0008C16002017B40F4BADF804101A68A2B953
:1060D0009DF805309DF80410F02B06D1F0290CD165
:1060E000094B188803B010BC70470B4305D1032837
:1060F00005D803B010BCFEF795BC0020F2E71846A7
:10610000F0E700BF5025002012160020034A137844
:106110001BB100231370024A13807047BD1D00207D
:10612000BE1D0020024A137823EA00001070704759
:10613000AE25002010B50A490B7823EA000010F0C4
:10614000070408700BD1984209D0064B5B785B07B7
:1061500005D5C008FEF7A0F9034B0C701C8010BDDC
:10616000B81D00204E190020BA1D0020094A08B5AC
:106170005378C3F3800181420BD060F382035370E4
:1061800004201188FFF7DCFABDE808400220FFF781
:10619000D1BF08BD4E19002010B5074C608850B122
:1061A000FFF7F4FC054B1B88C01A638880B283425A
:1061B0008CBF0020012010BDE0100020BE1D00207B
:1061C00038B51D4B1D4D1C781D4B2A78187804439B
:1061D000FAB11C4B5B8823B1FFF7DEFF08B1FFF774
:1061E00095FF2B781C43184B9B78012B19D1174B2B
:1061F000174993F90030002BA8BF0622154BBCBFEE
:106200001E220B46991800228B420DD10AB1FFF7CE
:106210007DFF114B114A1B78107824EA03042043B8
:1062200038BD06220B4BEDE713F8010B0028EBD02D
:106230000132D2B2E8E700BFC11D0020BD1D002021
:10624000AE250020E0100020840E00204E19002012
:10625000961100208E1100206D1E0020AF25002019
:1062600010B51B4B9B78012B1DD11A4B93F90030B5
:10627000002B18DAFFF7A4FF174C20226070174993
:106280002046FCF73BFA10B3202221461348FCF7C6
:106290006FF9134B1B68D3B106229B68227020460E
:1062A000BDE810401847FFF78BFF0E4C0822207006
:1062B0000D492046FCF722FA48B1082221460A4837
:1062C000FCF756F9064B1B680BB15B68E7E710BD9E
:1062D000840E00204E190020941100206119002026
:1062E000D01500208C1100205919002010B504464B
:1062F00002698169FDF7FAFBE078FFF713FF207967
:10630000FEF794F8FFF7ACFF00232360A38010BDD5
:10631000437910B59A07044611D40F4A43F002039B
:1063200011784371C37800790B431370FEF786F838
:10633000FFF796FFE268A1692046FDF7D7FB002230
:10634000064B1A806379DB0704D42046BDE8104071
:10635000FFF7CCBF10BD00BFAE2500209A13002070
:106360000F4908B50B7802206FF3C3030B70FFF7DA
:10637000D9FE0B78D80605D56FF3041302200B70F5
:10638000FEF75CF80B789A0605D56FF345132020CD
:106390000B70FEF753F8BDE80840FFF761BF00BF80
:1063A000480E00202DE9F843454C814623780E46DF
:1063B00013F0040F1746434D70D0B5F800808045A8
:1063C00001D000286AD123786FF3820323709B07E2
:1063D0005DD43D4B19883D4B711A1B8889B28B42A5
:1063E0008CBF002101212378394861F341032370D8
:1063F000012308F00F0EC8F3031C03FA0EF330F963
:106400001C201BB2002944D0134320F81C30314B10
:106410001A78994612F0020F06D02378022043F032
:1064200010032370FEF702F899F80030980606D59D
:106430002378202043F020032370FDF7F7FF404628
:10644000FEF76AF8244B27B1DA7E910601D5520691
:1064500033D5D98B01B340F2E7384FF000091F481C
:106460004FF47A72E0FB0189002340464946FBF76E
:10647000FDFEFFF71AF82888A0F50053B3F5405F3A
:1064800038BFC0B203F08FFFFFF76AFF13E00121AE
:10649000A9E722EA0303B8E70120EAE7A9F50053D8
:1064A000B3F5405F34BF5FFA89F0484603F07BFFE5
:1064B0002B884B45E8D0044B1E80BDE8F88300BF15
:1064C000480E00209C130020C81300204A0E002014
:1064D000A8130020C11D0020E0100020A0860100AC
:1064E000002210B5064C217820FA02F34B4003F04D
:1064F000010301324B40032A04F8013BF3D110BDE4
:106500006A1E00207FB50324104BADF804001E78EE
:106510000F4B1B781E4346FA04F3DB07E5B206D4A3
:1065200014F1FF34F7D20025284604B070BDBDF841
:1065300004302846ADF80C300399FFF7C3FDFDF792
:106540009BFE80B20128EBD0EEE700BF901900203F
:10655000791500201FB5ADF804000198FFF7D2FFB0
:10656000BDF80430ADF80C300399FFF7ABFD05B072
:106570005DF804EBFDF780BE08B50346007958B11D
:10658000188928B1FDF778FEBDE80840FDF79ABFED
:106590001888FFF7DFFFF7E708BD000040EA10208A
:1065A00010F0FF0F82B00FD1084B587800F00102B5
:1065B00018789B7800F0010040EA420003F00103E4
:1065C00040EA830002B070470020FBE76A1E00200B
:1065D00010B500240E4B1C70FEF782F82046FDF724
:1065E00061FA2046FDF742FA0A4B1C70FFF738FEAD
:1065F000214606220848FCF731F8084B1C70084B6E
:106600001C70084B1C70BDE81040FFF705BB00BFB5
:10661000C11D0020AE250020961900209D190020E4
:106620009E1900209C190020AF2208B5174B142199
:106630001A8041F288325A800A229A805A81DA817D
:1066400028229A8232220820DA82C822D9801E218A
:10665000188158821A83002005229981502158837D
:106660009A831982D883198483F82220FFF7DAF8F5
:10667000FFF7AEFF4FF48061054B04201980FFF750
:106680005FF8BDE80840FEF7DDB900BFE01000206C
:106690004E190020F0B50124264D8BB004210020B6
:1066A0002E682C60FFF7A3F821462046FFF79FF8DD
:1066B00021460220FFF79BF821460320FFF797F8B9
:1066C000FFF7B2FF002307930893C8235424ADF8C3
:1066D000243020460A2207A90A34FEF775FFB4F5D4
:1066E000CA7FF6D10023CDE90433ADF81830204637
:1066F0000A2204A90A34FEF767FFB4F5357FF6D104
:1067000000230293ADF80C3001934FF6FF73ADF800
:106710000830072340F214478DF80D3020460A2236
:1067200001A90A34FEF750FFBC42F7D12E600BB02E
:10673000F0BD00BF5825002008B50020FFF73EF847
:1067400027200021FFF729F8FFF7A4FFFFF75EF8E5
:10675000BDE808400120FFF731B80000032A07B563
:106760003AD904220DEB0200FBF702FFFFF730FFDE
:106770001B49019A0B78C2F3400062F3000360F3F7
:106780004103C2F3800060F38203C2F3C00060F3F0
:10679000C303C2F3001060F30413C2F3401060F3AC
:1067A0004513C2F3801060F38613C2F3C01060F388
:1067B000C7130B704B78C2F3002060F30003C2F3E1
:1067C000402262F341034B7004200988FEF7B8FFB2
:1067D000002003B05DF804FB4FF0FF30F9E700BF85
:1067E0004E19002008B528B1FDF720FEBDE808408D
:1067F000FFF736BD08BD08B528B1FDF71FFEBDE89F
:106800000840FFF72DBD08BD08B50346A0B3021F21
:10681000D2B2A02A05D8FDF7C1F8BDE80840FFF7BD
:106820001FBD00F12002D2B2072A07D800F00703EB
:1068300001209840C0B2FDF7F9FDEEE700F15B02E0
:10684000D2B2022A04D8BDE808400020FDF72AB9D8
:1068500000F15802D2B21A2A04D8BDE8084000203C
:10686000FDF704B93333DBB2122B05D8FDF742F93B
:10687000BDE80840FFF7D0B908BD00002DE9F041A0
:10688000254E07463568002D3DD00023234AE88871
:106890001380234A1370234A1370A0F58073B3F555
:1068A000F85F3CBF20F4F85080B2EB6810F0FF04B2
:1068B00014BF4FF001084FF0000823B129690020F0
:1068C000984708EA0008B8F1000F06D0231FDBB292
:1068D000A02B1BD82046FDF761F8134C77B1336825
:1068E0001A7AD2060AD4227842B147F63E62188854
:1068F000431E9BB2934201D8FFF7B4F9FFF7B0FCF7
:106900000023336023702846BDE8F081FFF7A8FC20
:106910002046FFF779FFE0E794130020841500205C
:106920006D1E0020AF2500209813002010B50446EE
:10693000002859D0031FDBB2A02B27D82B4B9B7804
:10694000012B13D12A4A92F90020002A0EDA294A93
:1069500000F0070102EBD00292788B401A420ED071
:106960002046FDF71BF8FFF77BFC08E00023224AD6
:1069700012F8011B8C42F3D00133062BF8D12046CC
:10698000FDF73AF8BDE81040FFF76ABC00F12003BC
:10699000DBB2072B07D800F007040120A040C0B2EB
:1069A000FDF74CFDEEE700F15B03DBB2022B05D8EF
:1069B000BDE81040114AD05CFDF774B800F15803EF
:1069C000DBB21A2B06D8BDE810400D4A32F813008E
:1069D000FDF74CB83334E4B2122C05D8FDF76EF94C
:1069E000BDE81040FFF718B910BD00BF840E0020AD
:1069F0004E190020941100208E110020ACA6000832
:106A0000B0A6000870B50C460546FFF78FFF8CB1A5
:106A100040F2E7300021084E4FF47A720023E6FB83
:106A20000401FBF723FCFEF740FD2846BDE870405B
:106A3000FFF7EABE0120F6E7A0860100034B3928E4
:106A40000CBF198CD98BFFF7DDBF00BFE010002011
:106A50002DE9F84F05464F4E4F4FDFF848812B6820
:106A6000194611F8012B296082B1012A48D15C78BE
:106A70009A1C012C2A600BD1987803332B60FFF706
:106A8000DDFF0120FEF711FD002CE8D1BDE8F88FF5
:106A9000022C05D1987803332B60FFF747FFF0E70E
:106AA000032C05D1987803332B60FFF7ADFEE8E7A0
:106AB000042CE6D14FF0000C0A219C78374A0333AE
:106AC0002B60A35C5B0711D4BCF1000F16D040F221
:106AD000E7300021DFF8D0E04FF47A720023CEFBDC
:106AE0000C01FBF7C3FBFEF7E0FCCAE72B68303C68
:106AF00001FB0C4C13F8014B2B60E2E70120F2E79D
:106B0000D10827487B5C10F801A0B45C18F801900C
:106B100002F00702134149FA02F913F0010B4AFA95
:106B200002F209F0010902F0010A05D0E120FFF7A5
:106B3000FDFE0120FEF7B9FCB9F1000F05D0E620FB
:106B4000FFF7F4FE0120FEF7B0FC20460021FFF71E
:106B500059FF0120FEF7A9FCB9F1000F05D0E6208E
:106B6000FFF752FE0120FEF7A0FCBBF1000F05D09D
:106B7000E120FFF749FE0120FEF797FCBAF1000F74
:106B80003FF46DAF2C20FFF759FF0120FEF78DFC7D
:106B900065E700BF46A90008C6A9000895A500083A
:106BA00036A9000836A90008A08601002DE9F047A3
:106BB000144642791D4680468A469DF82090274B10
:106BC0006AB11C70FEF7E2FF254B04F00704188041
:106BD0000120A040C0B2BDE8F047FFF70CBE1E7810
:106BE000A64234D11E4B1F88FEF7D0FF4146C71B7B
:106BF0005046FDF741FEBFB2B84228D9AE4205F17A
:106C0000200415D006F12003DBB2072B06D80120A3
:106C100006F00706B040C0B2FFF7E4FDE3B2072B71
:106C200006D8012005F007039840C0B2FFF7E3FD46
:106C30004846E4B2FFF702FF072C0DD8012005F00B
:106C40000705A840C0B2BDE8F047FFF7CBBD012063
:106C500004F00704A040F5E7BDE8F087621E0020BD
:106C6000641E00202DE9F04F03798DB00546002BFE
:106C700000F00D81012103F07AF96B790446DBB154
:106C8000844B1E88C6B1B04216D0F2B216F0E006B0
:106C900041F0CC801C2353437F49C8184279CC5221
:106CA00042F004024271FFF733FB7C4B012128467E
:106CB0001E7003F05CF904466B79002B00F097809E
:106CC000A4F5EE439BB27F2B00F2AC80E4B20F2C14
:106CD00000F2D08040F6FF70FDF77CFE002840F007
:106CE000C98040F214463CBB09AF3C603046FDF71A
:106CF00071FE06F101088DF82400002800F0BA802A
:106D0000012814D14046FDF765FE06F102098DF811
:106D10002500002800F0AE80431E022B1DD84846F7
:106D2000FDF758FE06F103088DF8260088B10AA881
:106D30000A97FFF78DFE0CE0B6F5805F00F09A80B1
:106D40003046FDF747FE08B9013CE4B20136CAE718
:106D5000D0464646C9E7C846FBE7431F022B29D861
:106D60004846FDF737FE06F1030A8DF82600002895
:106D7000EED05046FDF72EFE06F104088DF82700F0
:106D80000028E6D0BDF826009DF82530B0F57F4FED
:106D900084BF000280B2062B06D0072B07D0052B3C
:106DA000D7D1FFF735F8D4E7FFF70EF8D1E7FEF7B4
:106DB0009DFFCEE70428CED14846FDF70BFE814665
:106DC000F01C06F10408FDF705FEB9F1000F51D0E3
:106DD00000284FD00138C0EB002009F1FF360644EF
:106DE00016F1FF36B5D36420FEF75FFBF8E7A4F594
:106DF000AE4087B2FF2F15D8294EF8B23146FDF7C5
:106E00002DFD78B91C23244803FB07039B78012B35
:106E10001FD1338833B1738823B1B388F288134309
:106E20009BB2DBB16F791F4B002F41D047F65E421A
:106E300094421DD047F65F42944205D047F65D422A
:106E4000944235D11A789AB100201870FFF716FDD8
:106E500010E0022BE6D1B388002BE3D01C2303FB08
:106E6000070043796FF300034371FFF751FAD9E745
:106E700001221A700C4B1B785C0708D06B7933B178
:106E80000A4B5B78580702D50220FFF753F90DB083
:106E9000BDE8F08F9A130020701E0020AE25002060
:106EA000FA2100206F0E0020B81D00204E1900208E
:106EB0001B78002B00F0BA86AC4BA4F1E0091E78D9
:106EC000AB4B1FFA89F91B78B9F1070F46EA0306A5
:106ED000A84BDFF8C8821B78DFF8C4B246EA030685
:106EE00076B200F2AB80012304F0070293405BB25C
:106EF000002F00F0A0801E43F6B22888FFF74EFB5B
:106F0000012383400593DBF800300393B8F8003089
:106F10004FF000080493984B9A461EB99A78002ABD
:106F200040F0C480DA7805990A4200F0BF801A7AEE
:106F300012F0070F08BF0722B9F1070F00F28F8088
:106F4000002F00F08980C2F34002002A00F0AE80DA
:106F50001A88944202D1002F00F0A8800399994228
:106F600000F0A480596919B10978002900F09E80C9
:106F70001846314606930792FCF712FF069B00283D
:106F800000F09480079A944240F05687002C6AD112
:106F90000022002004930392FFF770FC0121049B60
:106FA000CBF80030754B1970182303FB08F30AEB7C
:106FB00003014879724908704FB9039A3AB13AF817
:106FC0000330D8B2043BA02B54D8FCF7E7FC1823BD
:106FD00003FB08A3B3F806B0ABF58073B3F5F85F15
:106FE00047F63E633CBF2BF4F8501FFA80FB0BF1D1
:106FF000FF36B6B29E424FF0180303FB08A3DA68CF
:107000008CBF002601261AB119690120904706405D
:1070100076B1182303FB08A8B8F8060003F094F92A
:10702000584BB9F1070F187027D85846FEF71AFECB
:10703000FFF716F92AE026EA03065DE7F6B2002F0D
:1070400000F04286A8F80040FEF7A0FD00224E4B5B
:1070500018604E4B1A8050E7C2F3800275E72FB3D9
:1070600002F0010271E7002F93D104998A421DD1E9
:1070700000278EE7FFF7C8FBA9E7ABF10400A028C3
:107080005FFA8BF608D83046FCF7B6FC002F00F00C
:10709000CD85FFF7E5F8EDE6FFF7E2F84FF47A70FB
:1070A000FEF703FA3046FFF741FCEFE708F101086D
:1070B000B8F1200F03F118037FF42FAF00F00EBEDC
:1070C0000388A34240F0AD85002F40F0AB852B4BE9
:1070D0001F700020FFF7D2FB00F0A8BD7269B169F4
:1070E0003046FCF703FD73799B0740F10686304676
:1070F000FFF7FCF8264B1A88A24208BF1F8000F059
:10710000FCBD98F80030C3F3000282F0010262F384
:10711000000388F80030FFF723F900F01ABE98F852
:1071200000306FF30003F4E7E12C17D1194A11780E
:1071300063F304111170174B1A789A4612F0010F7D
:1071400036D0272C6A793FD81E2C80F08280042C00
:1071500046D26AB30022104B1A8029E0E52C21D1D7
:107160000C4A117863F34511E4E700BFBD1D002010
:10717000BC1D0020C11D00204C22002098130020BF
:107180006D1E0020AF25002054190020841500201A
:107190009A130020480E00209C1300205219002052
:1071A00094130020A4F500539BB2B3F5405FC2D204
:1071B000A4F5F843183B062B00F2D585DFE803F071
:1071C000BCC3ABB5CAD1D800382C07D82D2C01D2FE
:1071D0002B2CBED1F17E11F0040F04E0642CF8E7F3
:1071E000F17E11F0100FB4D1002A00F08E80BA4A5F
:1071F000DFF8F492137899F800B004934BEA030394
:1072000013F0FD0F03930592DFF8E08225D00022F2
:10721000F17EA8F8002011F002011ED10123AF4831
:10722000C4F3031604F00F0203FA02F230F816302A
:1072300023EA020320F816302046FDF76DF999F88D
:10724000000000F0FD00FEF7BFFE0220FEF772FF17
:1072500010E6F17E11F0080FC5E7A14B0A2229467E
:107260001846FBF785F90022B8F8009042804C459B
:1072700033D1F27E910630D59AF80060C6F340060D
:107280000EB1520629D5974B29461A884846BA1A94
:1072900092B20692FDF7F0FA069A82421DD2049B42
:1072A0009B0708D59AF80020022042F010028AF8C5
:1072B0000020FDF7BBF8059B1A78970608D59AF8C9
:1072C0000020202042F020028AF80020FDF7AEF8CE
:1072D00031464846FDF720F9CCE5039B9AF80010AB
:1072E000C3F3400262F341010BF0FD008AF8001085
:1072F000FEF76AFE9AF800207A4B42F00402A8F8E2
:1073000000401F808AF800209FE72B463946204620
:10731000FFF748F8AEE526230093E12347F61A412C
:107320001A462846FFF742FCA4E527230093E523ED
:1073300047F61B411A46F4E72623E022009347F65E
:107340001841E123EDE72723E422009347F6194192
:10735000E523E6E72623E222009347F61C41E123DA
:10736000DFE72723E622009347F61D41E523D8E710
:107370002823E522009347F61E410123D1E7237815
:1073800043F00103237096E0637843F008036370D1
:1073900091E0237843F00203F4E7237843F00403F9
:1073A000F0E7237843F00803ECE7637843F0010348
:1073B000EDE7637843F00203E9E7237843F0100335
:1073C000E0E7237843F02003DCE7237843F0400331
:1073D000D8E7FFF7FDF8237843F08003D2E723785E
:1073E00023F00C0343F00C03CCE7637823F0030392
:1073F00043F00303CBE723786FF30003C2E763781E
:107400006FF3C303C3E723786FF34103BAE723782D
:107410006FF38203B6E723786FF3C303B2E76378B1
:107420006FF30003B3E763786FF34103AFE72378AB
:107430006FF30413A6E723786FF34513A2E72378CD
:107440006FF386139EE7FFF7C3F823786FF3C71334
:1074500098E7237823F00C0394E7637823F0030381
:1074600095E72378C3F3800282F00102D2B262F37F
:10747000820362F3C30385E76378DA4302F0010213
:1074800062F3000362F3410381E72378C3F38012C0
:1074900082F0010262F3861374E7FFF799F823780C
:1074A000C3F3C01282F0010262F3C7136AE701213D
:1074B0000E20FEF772F921880420FEF741F9FFF74C
:1074C00087F8D7E40021F3E72378C3F3001282F0B2
:1074D000010262F3041355E7C11D0020A813002028
:1074E0009E130020C8130020BD1D00209C13002007
:1074F0002378C3F3000282F0010262F3000341E744
:107500006378C3F3C00282F0010262F3C3033EE773
:1075100047F616439C4230D1AD4BB07E1978C60772
:1075200001F0AA0303D511F0440F18BF002384070C
:1075300003D511F0110F18BF0023470703D511F031
:10754000880F18BF0023060703D511F0220F18BFBC
:107550000023A0494AB1002B15BF01230023352089
:1075600029200B70FCF748FA93E50B78002B14BF29
:1075700035202920FCF712FA8BE547F677439C4229
:1075800016D047F678439C421CD0A4F5A543603B37
:107590009BB21F2B1BD83ABB04F01F0301249C4055
:1075A000E4B221460320FEF7F8F88B4B1C7061E42F
:1075B00001204AB1FCF77CFF032202210120FCF7E5
:1075C00055FF57E40220F4E7FCF766FFF4E75AB1F1
:1075D00047F603439C426FD058D8B4F5F84F63D0B8
:1075E00047F601439C426ED0288900287CD0FCF7E6
:1075F00043FE0622044629460AA8FAF7B9FF774B4C
:1076000095F8069093F800806F7918F007084FEA14
:107610001919039328D0B84637B3C4F3072303F0EE
:10762000F002402A0ED0E1B201F12002D2B2072AC4
:1076300078D903F0E003202B04D1012972D9B9F1E4
:10764000000F72D0664B93F8018018F004080BD03D
:107650000220FEF76FFD039B1B7813F0070F0CBF92
:107660004FF001084FF00008C4F303330B2B7ED812
:10767000DFE813F05D005D00D800D80088019E01AE
:107680007D007D00A801F5010502050247F65B4378
:107690009C4227D047F65C439C4218D047F65A4399
:1076A0009C42A1D101201AE0FEF792FF46F2A810F9
:1076B000FDF7FBFEFEF758FAFDF746FF4FF6FF71A8
:1076C0000020FEF73DF802F0A5FEFFF7D3BB444BC8
:1076D0005878C0F3800080F0010000F00100FEF750
:1076E00045FD81E70020FAE72A886B79ADF8242070
:1076F00009989BB1FEF706FF9DF824209DF82530E0
:107700000446134301D1FEF7EBFEBDF824302046BA
:10771000ADF828300A99FEF7D5FC68E7FEF73EFF82
:107720000446F2E74FF000089EE7C8469CE7C4F322
:107730000723C4F3032B13F0F00F18BF4FEA0B1B02
:107740005FFA84FA002F56D0BBF1000F0CD00AF17B
:107750002002D2B2072A02D9BAF1000F44D158460A
:10776000FCF76CFEFEF77CFD5046FFF7DFF8C4F334
:107770000333083B032B03D8FCF7B0F94FF00008A4
:107780002046FCF79FFE48B1002F00F01B82B9F1A4
:10779000000F00F010820022124B1A70B8F1000F97
:1077A00010D0039B187810F001030BD16B71C00847
:1077B000FCF77EFE2846FFF755FA039B1878C008B1
:1077C000FCF76AFE0021284602F0D1FBFFF75FBB01
:1077D000C11D00201416002079150020B81D0020BE
:1077E0004E190020601E0020AA490A784BEA020BBD
:1077F00081F800B0B6E75046FFF706F8BBF1000F7E
:10780000B5D00AF12002D2B2072A584602D9BAF1FD
:10781000000F02D1FCF70AFE01E0FEF783FCFEF741
:107820001FFDA4E7C4F3072202F0F002C4F3032A09
:10783000202A5FFA84FB18BF4FEA0A1ABBF1000F37
:107840000AD0BBF1010F75D0002F00F08180B9F193
:10785000000F1DD0584688E78F4A5278510713D43D
:107860004FB1BAF1000F04D05046FCF7E7FDFEF728
:10787000F7FC002079E73846FEF7C6FFBAF1000FA3
:107880003FF475AF5046C5E79FB3B9F1000F03D180
:107890005046FEF7B0FF6AE7B9F1010F12D1DFF8E9
:1078A00010B29BF800203AEA02033FF460AFFEF703
:1078B0006DF97A4A10809BF800204AEA02038BF89F
:1078C000003054E7327F012A7FF651AF91457FF4B3
:1078D0004EAF5046FEF78FFF5046FEF78BFB7049C8
:1078E0000A783AEA02033FF442AF4AEA02030B7015
:1078F0003DE7B9F1000F0ED15046FEF773FF504639
:10790000FEF778FB66490A781AEA020F3FF42FAFB8
:1079100022EA0A03EBE7327F012A7FF628AFB9F1AA
:10792000010F7FF424AF5F4A12781AEA020F3FF486
:107930001EAFE1E796F822201FB14A45FFF417AFCA
:10794000A6E74A457FF613AF5046FEF74BFF0EE71A
:10795000B9F1000FF8D0BBF1390F40F02981B6F82A
:1079600020C0BCF1000F00F01C8140F2E730002184
:10797000DFF840E14FF47A720023EEFB0C01FAF7D6
:1079800075FC0FE1C4F3812343B1012B7FF4EFAE0B
:1079900067B1C4F30900FCF769F8E8E627B1C4F35E
:1079A0000900FCF77FF8E2E63846FAE73846F2E7E6
:1079B000E0B227B1FCF782F9FEF72EF9D7E6FCF723
:1079C00099F8F9E714F4407F23D1002F7FF4CFAE6C
:1079D000C4F342129200D2B204F00F039340D8B223
:1079E00014F010031EBF0F2303FA02F2D2432E49F4
:1079F00018BFD3B2C4F38122022A2AD02DD8012A7B
:107A00000DBF0A7803430878024314BF03401343B1
:107A10006DE7C4F30122D3B2CFB102F00103002B12
:107A20003FF4A5AEC4F342129200D2B204F00F03A9
:107A30009340D8B214F010031FBF0F2303FA02F2D1
:107A4000D243D3B2C4F38122022A1849D5E75B0896
:107A5000E5E703430878434049E7034347E7E1B2DA
:107A6000C4F3032B27B15846FCF722FD084610E764
:107A70000846FEF7B7FE5846FCF70EFD77E65FFABC
:107A800084FBABF1F003042B7ED8DFE803F0153C58
:107A9000282F3800AE2500204E190020BE1D0020E2
:107AA000BC1D0020C11D0020791500209019002068
:107AB000BD1D0020A086010096F822305FB19945D7
:107AC000BFF455AE0123734AC4F304218B401178EF
:107AD0004B4013704BE699453FF649AEF2E7C4F3CD
