:020000040800F2
:1020000000040020392200083B2200083B2200087F
:102010003B2200083B2200083B2200083B2200082C
:102020003B2200083B2200083B220008716A00089E
:102030003B2200083B2200083B22000841780008B0
:102040003B2200083B2200083B2200083B220008FC
:102050003B2200083B2200083B2200083B220008EC
:102060003B2200083B2200083B2200083B220008DC
:102070003B2200083B2200083B2200083B220008CC
:102080003B2200083B2200083B2200083B220008BC
:10209000917800083B2200083B2200083B22000800
:1020A0003B2200083B2200083B2200083B2200089C
:1020B0003B2200083B2200083B2200083B2200088C
:1020C0003B2200083B2200083B2200083B2200087C
:1020D0003B2200083B2200083B2200083B2200086C
:1020E0003B2200083B2200083B2200083B2200085C
:1020F0003B2200083B2200083B2200083B2200084C
:102100003B2200083B2200083B2200083B2200083B
:102110003B2200083B2200083B2200083B2200082B
:102120003B2200083B2200083B2200083B2200081B
:102130003B2200083B2200083B2200083B2200080B
:102140003B2200083B2200083B2200083B220008FB
:102150003B2200083B2200083B2200083B220008EB
:1021600072B6264880F30888254880F309882548F8
:1021700025490860022080F31488BFF36F8F04F0B4
:10218000E1F903F00EFE4FF0553020491B4A914211
:102190003CBF41F8040BFAE71D49194A91423CBF84
:1021A00041F8040BFAE71B491B4A1C4B9A423EBFFD
:1021B00051F8040B42F8040BF8E700201849194ABB
:1021C00091423CBF41F8040BFAE704F0BFF904F078
:1021D000BAF9154C154DAC4203DA54F8041B884784
:1021E000F9E702F0C3F8124C124DAC4203DA54F88E
:1021F000041B8847F9E704F0A7B900000004002099
:10220000000C00200020000808ED00E00000002085
:1022100000040020CC810008000C0020380F0020B2
:10222000380F002058240020602100086021000899
:10223000602100086021000892E700F000F8FEE746
:102240002DE9F04FC1F80CD0C3689D46BDE8F08F72
:10225000002383F311882846A047002004F046FBA2
:10226000FEE704F09FFA00DFFEE7000053B94AB929
:10227000002908BF00281CBF4FF0FF314FF0FF308E
:1022800000F074B9ADF1080C6DE904CE00F006F869
:10229000DDF804E0DDE9022304B070472DE9F047E2
:1022A0008C460446089E002B40F086808A421546E4
:1022B00048D9B2FA82F24AB1C2F1200701FA02F318
:1022C00020FA07F7954047EA030C94404FEA154E71
:1022D000BCFBFEF71FFA85F80EFB17C307FB08F9D6
:1022E000210C41EA0343994509D9EB1807F1FF3165
:1022F00080F0E180994540F2DE80023F2B44A3EB61
:102300000903B3FBFEF00EFB103300FB08F1A4B28F
:1023100044EA0344A14209D92C1900F1FF3380F0AB
:10232000C880A14240F2C58002382C4440EA0740F0
:102330000027641A1EB10023D440C6E90043394681
:10234000BDE8F087002A54D0B2FA82F2002A40F0A9
:10235000B4800127491B4FEA15481FFA85F9B1FBE4
:10236000F8FE08FB1E1109FB0EF04FEA144C4CEA74
:102370000143984207D9EB180EF1FF3102D298427F
:1023800000F2EB808E461B1AB3FBF8F008FB10330B
:1023900009FB00F9A4B244EA0344A14507D92C196A
:1023A00000F1FF3302D2A14500F2DB801846A4EB16
:1023B000090440EA0E40BDE78B4208D9002E75D0D3
:1023C0000027C6E9000138463946BDE8F087B3FA70
:1023D00083F77FB98B4202D3824200F2BC80841A19
:1023E00061EB030301209C46002EA8D0C6E9004CF7
:1023F000A5E7FFDEC7F12005BB4022FA05FC4CEA49
:10240000030C21FA05F44FEA1C4EB4FBFEF91FFA47
:102410008CF80EFB194420FA05F3B94009FB08FAC1
:1024200019430B0C43EA0444A24502FA07F200FAEE
:1024300007F30BD91CEB040409F1FF3080F089800D
:10244000A24540F28680A9F102096444A4EB0A0483
:10245000B4FBFEF00EFB104400FB08FA89B241EA1F
:102460000444A24508D91CEB040400F1FF316CD2EE
:10247000A2456AD90238644440EA0940A0FB0289B7
:10248000A4EB0A044C454146CE4655D352D0002E0B
:102490006AD05A1A64EB0E0404FA05F522FA07F31F
:1024A000FC401D43C6E90054002748E73746304644
:1024B00045E718463AE70F4621E79540C2F1200369
:1024C00021FA03F04FEA1548B0FBF8F71FFA85F937
:1024D00008FB170E24FA03FC914007FB09FA4CEAAB
:1024E0000101080C40EA0E40824504FA02F407D9C3
:1024F000281807F1FF332AD2824528D9023F284401
:10250000A0EB0A00B0FBF8FC08FB1C000CFB09F375
:1025100089B241EA00418B4208D969180CF1FF30B9
:1025200011D28B420FD9ACF1020C2944C91A4CEAE2
:10253000074714E74345AAD2B8EB020169EB0C0246
:1025400001389646A3E78446F0E7084694E71F461D
:10255000D6E781467AE7384646E7AEF1020E2B44CD
:1025600011E702382C4422E73746E8E6704700BFFF
:10257000032A70B412D940EA0105AD0704460B46A0
:1025800020D11946204653F8045B54F8046BAE4240
:1025900018D1043A032A20461946F2D8541E72B1C3
:1025A00003780A789A4208BF241806D00CE010F885
:1025B000013F11F8012F934206D1A042F7D100202C
:1025C00070BC7047541EEBE7981A70BC704700BF90
:1025D000844641EA000313F0030349D1403A23D370
:1025E0000B6803604B6843608B688360CB68C36093
:1025F0000B6903614B6943618B698361CB69C3617B
:102600000B6A03624B6A43628B6A8362CB6AC36262
:102610000B6B03634B6B43638B6B8363CB6BC3634A
:1026200040304031403ADBD230320BD30B6803608C
:102630004B6843608B688360CB68C3601030103197
:10264000103AF3D20C3205D351F8043B40F8043B66
:10265000043AF9D2043208D0D2071CBF11F8013B6A
:1026600000F8013B01D30B8803806046704700BF30
:10267000082A13D38B07B1D010F00303AED0C3F1F7
:102680000403D21ADB071CBF11F8013B00F8013B21
:10269000A4D331F8023B20F8023B9FE7043AD9D398
:1026A000013A11F8013B00F8013BF9D20B780370B5
:1026B0004B7843708B78837060467047F0B4860720
:1026C00046D0541E002A3CD0CAB2034602E014F1A0
:1026D000FF3436D303F8012B9D07F8D1032C29D9F9
:1026E000CDB245EA05250F2C45EA054533D9A4F1BD
:1026F0001006360903F1200707EB061703F1100255
:1027000042E9045542E902551032BA42F8D1721C2E
:1027100014F00C0F03EB021204F00F0613D0331F5A
:1027200023F003030433134442F8045B9342FBD1C8
:1027300006F003042CB1C9B21C4403F8011B9C42EF
:10274000FBD1F0BC704734461346002CF3D1F8E7B8
:1027500014460346C2E71A462646E0E70A4350EA13
:10276000020314BF012004207047FFF7F7BF0120C8
:1027700070470120704708B5FFF7FBFF08BD012037
:102780007047012070470120704708B5FFF7FBFF35
:1027900008BD7047704708B5FFF7FCFF08BD012072
:1027A000704770477047000013B502AB03E90300A0
:1027B0000F4B1B78B3B99DF80530009873B16AB11F
:1027C00000F08EFD04460146009800F065FD2046AD
:1027D000009902B0BDE8104001F020BC00F06EFD91
:1027E0000446F4E7009800F07BFD0099F1E700BF94
:1027F0003D0F0020034610B400885C880A4640EA7A
:102800000440998810BCFFF7CFBF10B504460121E2
:10281000FFF7F0FF2146FFF7AAFF30B10121204664
:10282000FFF7E8FF2146FFF7A6FF00F0010010BD0B
:1028300038B500210446FFF7DDFF05462146FFF7C6
:10284000A8FF21462846FFF7A6FF38BD012303FA5B
:1028500000F080B200F083BC10B504460120A04017
:1028600080B201F0C0F92046BDE81040FFF7EEBF8E
:102870000120704708B5FFF7FBFF08BD10B50446FF
:1028800000F016FC2046FFF78AFF2046FFF7F2FF14
:10289000BDE8104046F2A81004F02DB808B501209C
:1028A000FFF7ECFFBDE8084003F072B808B5002060
:1028B000FFF7E4FFBDE8084003F06EB838B5044602
:1028C0000D46FFF75EFF08B9002038BD29462046B7
:1028D000FFF75BFF0028F7D02946204602F046FDAF
:1028E0000028F1D02946204602F0A4F90028EBD0B8
:1028F0002946204602F078F90028E5D029462046EE
:1029000001F092FC0028DFD06B795BB147F60343FE
:102910009C421DD00AD8B4F5F84F16D047F60143B3
:102920009C4217D02846FFF72AFFCEE747F65B43C5
:102930009C4215D047F65C439C420ED047F65A4362
:102940009C42EFD101F02CF9ECE7FFF7A7FFBBE7C2
:1029500001F02CF9FFF7AAFFB6E701F015F9E1E75E
:1029600001F021F9DEE710B504460121FFF742FF2F
:102970002146BDE81040FFF7A1BF08B5FFF711FFE2
:1029800002F043FFBDE8084000F01CB808B500F0B5
:102990001EF8FFF707FFBDE8084002F03BBF01202B
:1029A0007047704738B50546FFF7F9FF044610B188
:1029B0002846FFF7F6FF204638BD704708B5FFF7F9
:1029C000F1FF08BD08B50020FFF7F8FF08BD08B506
:1029D00002F020FDFFF7F2FF08BD000010B502F085
:1029E00019FD074B04461A78824207D0187002F08E
:1029F00081FF044B18602046FFF7E0FF10BD00BFC9
:102A00003C0F0020380F00201FB56C4684E80300FF
:102A10009DF805300BB100F081FF0023ADF80E30BA
:102A2000114B94E803005B7802905B07ADF80C1043
:102A30000AD500F025FF10B1022001F075F800F072
:102A400001FF08B100F0C4FF9DF80C3002AC2BB9B7
:102A500094E8030000F094FE04B010BD2046FFF798
:102A6000D4FE0028F4D1F7E7242300200379012BBA
:102A700002D1008800F056BC704708B529B102F0B9
:102A80003BFABDE8084002F00BBB02F093FAF8E70E
:102A900010B50446002840D0031FDBB2A02B0ED88F
:102AA00002F03AFD20B1204602F0C4FD00F0F6FF2E
:102AB000204602F0A1FDBDE8104000F0EFBF00F19C
:102AC0002003DBB2072B07D800F007040120A04049
:102AD000C0B200F0FDFEEEE700F15B03DBB2022BBB
:102AE00005D8BDE810400D4AD05C02F0B7BC00F13B
:102AF0005803DBB21A2B06D8BDE81040084A32F85A
:102B0000130002F0C7BC3334E4B2122C05D802F033
:102B1000F3F9BDE8104002F0C3BA10BD187E0008FA
:102B20001C7E000808B50346A0B3021FD2B2A02A3B
:102B300005D802F07FFDBDE8084000F0AFBF00F10E
:102B40002002D2B2072A07D800F0070301209840DC
:102B5000C0B200F0C5FEEEE700F15B02D2B2022A7D
:102B600004D8BDE80840002002F078BC00F158020B
:102B7000D2B21A2A04D8BDE80840002002F08ABC6C
:102B80003333DBB2122B05D802F014FABDE808404B
:102B900002F086BA08BD000070B50C460546FFF786
:102BA00077FF84B140F2E7300021084E4FF47A728B
:102BB0000023E6FB0401FFF759FB03F09CFE2846C7
:102BC000FFF7B0FF70BD0120F7E700BFA08601004E
:102BD00008B539280CBF50210021FFF7DDFF08BDE3
:102BE00008B528B100F074FEBDE8084000F056BFFB
:102BF00008BD08B528B100F073FEBDE8084000F03C
:102C00004DBF08BD2DE9F04790F8068081460D467E
:102C1000447900F04DFE4FEA1818074618B32746CE
:102C20000CB3C5F3072303F0F002402A0ED0E9B23B
:102C300001F12002D2B2072A27D903F0E003202BAA
:102C400004D1012921D9B8F1000F20D0A94B5F7818
:102C500017F0040707D0022000F066FF00F028FEFE
:102C600080F00100C7B2C5F303330B2B45D8DFE872
:102C700013F01000100050005000C800DE004400A7
:102C80004400E3004301540154010027EBE74746A9
:102C9000E9E7C5F30723C5F3032613F0F00F18BFC8
:102CA00036015FFA85F8A4B166B108F12003DBB202
:102CB000072B304602D9B8F1000F07D100F008FE0B
:102CC00000F0ECFE4046FFF7E3FE16E000F016FED3
:102CD000F6E74046FFF726FF7EB108F12003DBB29E
:102CE000072B304602D9B8F1000F02D100F0F8FDF1
:102CF00001E000F00BFE00F0D1FEC5F30335083D06
:102D0000032D00F2738102F085FBBDE8F047FFF769
:102D100055BEC5F3072303F0F003C5F30326202BAC
:102D20005FFA85FA18BF3601BAF1000F09D0BAF17F
:102D3000010F4BD0002C55D0B8F1000F19D05046E0
:102D4000C1E76C4B5B7859070FD43CB126B13046D4
:102D500000F0BEFD00F0A2FE0020B4E72046FFF721
:102D6000E1FE002EC9D03046C0E7D4B1B8F1000F63
:102D700003D13046FFF734FFBFE7B8F1010F03D1AD
:102D8000304600F0F9FDB8E7B8F1050FB5D130468F
:102D9000FFF726FF304600F005FE304600F0CAFD82
:102DA000ABE7B8F1000F09D13046FFF722FF3046FC
:102DB00000F0F8FD304600F0CBFD9EE7B8F1010FC2
:102DC0009BD100F07FFD304297D0EDE71CB1B8F108
:102DD000050F92D8CDE7B8F1040F8ED83046FFF733
:102DE00008FF8AE7B8F1000FF8D0BAF1390F0CBF2D
:102DF0004FF4FA50012003F07EFD5046FFF792FE9B
:102E00007BE7C5F3812343B1012B7FF476AF64B137
:102E1000C5F3090002F03EFB6FE724B1C5F30900DA
:102E200002F01CFB69E72046FAE72046F2E721465C
:102E3000E8B2FFF722FE60E715F4407F29D1002CAD
:102E40007FF45BAFEA0648BF0F24C5F342134FEA95
:102E50008303DBB244BF9C40E44305F00F0000FA5B
:102E600003F0C5F3812348BFA4B280B2022B40EA2D
:102E7000040008D00AD8012B02D000F07BF93CE70F
:102E800000F070F939E700F07DF936E700F067F9F6
:102E900033E7C5F30122D3B204B302F00103002BE0
:102EA0003FF42BAFC5F342108000C3B205F00F0012
:102EB000984082B215F010001EBF0F209840C0430A
:102EC000C5F3812318BF80B2022B40EA02000AD06A
:102ED0000CD8012B04D000F0A1F90EE75B08DEE767
:102EE00000F094F909E700F0A1F906E700F058F9BD
:102EF00003E700BF242300205FFA85F8C5F303260B
:102F000024B1304600F05EF9404633E74046FFF713
:102F100070FE304600F062F9EFE6EEB2A6F1F00383
:102F2000042B4BD8DFE803F003241017200044B132
:102F3000B8F1040F3FF6E1AEC5F3042000F05AF9F2
:102F4000DBE6B8F1050FF5E7C5F30420002CE1D16D
:102F500000F038F9D1E624B1C5F3042000F02BF9D4
:102F6000CBE600F025F9C8E62C4B5B785B0704D470
:102F7000C5F30420002CCDD0EAE7A4B100F078FC22
:102F8000042807D100F0C2FDC5F3042000F026F9A3
:102F90000027B2E6B8F1040FFAD80321C5F30420E4
:102FA00000F096FDF4E7B8F1040F03D900F0AEFD90
:102FB0000421F3E7012000F0B7FDE9E73CB1B8F1E7
:102FC000000F01D030467EE6C5F30420C0E7B8F11B
:102FD000000F08D0392E0CBF4FF4FA50012003F037
:102FE0008AFC30460AE7C5F3042093E79FB100F05E
:102FF0003FFC10F001000ED189F8050000F032FC12
:1030000000F0E0F8484600F01DF800F02BFCBDE8A9
:10301000F04700F0E3B8BDE8F08700BF24230020AC
:1030200038B501880446407900F088F9054600F07B
:1030300005F900F093F829462046BDE83840FFF72F
:10304000E1BD0000037910B50446B3B1FFF78BFC76
:1030500068B900F02DFC80B1637973B1074B5B78E0
:103060005B070AD5BDE81040022000F05DBD204698
:10307000FFF7D6FF2046FFF7DBFB10BD242300201F
:1030800008B5002002F0EAF9002002F003FA00F08F
:1030900045FC00F003FD02F01FF8BDE8084001F018
:1030A000FFBF08B502F0E4FABDE80840FFF7E8BF4B
:1030B00008B500F01DFCBDE80840FFF7F2BFC0F303
:1030C00003320E3202F00F02092A10B5C4B21BD827
:1030D000012101FA02F340F20332134203D113F04B
:1030E00010000DD110BDF02C10D004D8E72C8CBFEF
:1030F00000200120F6E7F42C14BF00200120F1E7A6
:10310000E72C03D9F12CF7E70020EBE70846E9E7C5
:1031100008B5037933B1008800F004F9BDE8084030
:10312000FFF7CDBF184608BD82B002AB03E903002C
:1031300002B0704782B002AB03E9030002B07047EF
:10314000704708B5FFF7FCFF08BD000008B5FFF7A2
:10315000F8FF014B188008BD3E0F00207047FFF7B5
:10316000F5BF0000024B1B881843FFF7EFBF00BFFD
:103170003E0F0020024B1B881840FFF7E7BF00BF3F
:103180003E0F0020024B1B885840FFF7DFBF00BFF7
:103190003E0F0020704708B5FFF7FCFF08BD000098
:1031A00008B5FFF7F8FF014B188008BD400F00205D
:1031B0000020FFF7F5BF012303FA00F080B2FFF70C
:1031C000EFBF0000012303FA00F0034B1B881843F4
:1031D00080B2FFF7E5BF00BF400F0020012303FAD4
:1031E00000F0034B1B8823EA0000FFF7D9BF00BFA4
:1031F000400F0020012303FA00F0034B1B885840C6
:1032000080B2FFF7CDBF00BF400F0020024B1B88EC
:103210001843FFF7C5BF00BF400F0020024B1B88BB
:103220001840FFF7BDBF00BF400F0020024B1B88B6
:103230005840FFF7B5BF00BF400F0020704730B5C2
:10324000012401F00703C90802EB810200219C4020
:10325000E4B2013A12F8015F20FA01F343F30003EC
:103260006B40234001316B4004291370F2D130BD13
:10327000002210B500F00704C00801EB80011046E1
:103280008B5CE34003F00103934001321843042AAE
:10329000C0B2F5D110BD000082B0ADF8040040EA24
:1032A00010200B4610F0FF0104D11846024A02B06C
:1032B000FFF7C5BF02B07047420F002082B0ADF8E3
:1032C000040040EA102010F0FF0003D1034902B0CF
:1032D000FFF7CEBF002002B0704700BF420F0020B2
:1032E00073B50F240D4BADF804001D880C4B1B88E3
:1032F0001D43ADB245FA04F3DB07E6B206D414F180
:10330000FF34F7D20026304602B070BD0199304636
:1033100000F093FE80B20128F1D0F4E7400F0020C6
:103320003E0F002007B5ADF804000198FFF7D8FF65
:10333000019903B05DF804EB00F07FBE13B5104BAC
:10334000ADF804101B782BB1019802B0BDE8104015
:10335000FFF7E8BF70B10198FFF7C2FF04460146CE
:103360000198FFF799FF2046019902B0BDE810408F
:1033700000F063BE0198FFF7A1FF0446F3E700BF2A
:103380003D0F0020F8B50C4B0C4E1C780C4D3378DB
:10339000A34200D1F8BD05EBC40335F834005F88C3
:1033A0009A88D98840EA074042EA01410134FFF790
:1033B000C1FE04F00704EAE78F0F00208E0F002003
:1033C0004E0F0020064B10B418885C889A88D98864
:1033D00040EA044042EA014110BCFFF7ABBE00BF27
:1033E000460F0020F8B51A4B9A7912F0F00F0AD167
:1033F0005A7942B1174A184912780D781E885F88A9
:10340000164CAA4200D1F8BD04EBC2010879D0B134
:1034100034F83200B04216D14879A0B94888C01BB0
:1034200080B2C7280FD80122987962F307109871EB
:103430008B79074862F307138B71FFF703FEBDE832
:10344000F840FFF79FBF013202F00702D9E700BF43
:10345000460F00208F0F00208E0F00204E0F0020FF
:1034600070B50D4B0D4A1B7815780D4CAB4202D14F
:103470000022104670BD04EBC30256788E4206D17E
:1034800014F83360864202D15279002AF1D1013317
:1034900003F00703EAE700BF8F0F00208E0F002024
:1034A0004E0F00202DE9F04F89B002AB04460146D3
:1034B00006221846FFF78CF8B04D03462979227989
:1034C0006779A846C1B9AAB18FB12046FFF720FE9F
:1034D000064660B1082221462846FFF779F82846BB
:1034E000FFF7C4FAFFF77EFFFFF76CFF65E02046A9
:1034F000FFF7A8FD012660E0B4F802A068886E79A5
:10350000AAEB000094F800B094F8019080B2002E6D
:1035100000F0E780C72800F29780002A4DD0AB79F1
:103520002A8813F0F00F208858D190420ED1002F36
:103530004DD1012262F30713AB71FFF743FF284619
:10354000FFF780FDAB79A371002636E0002F3ED156
:1035500049465846FFF784FF5846FFF781FF054666
:103560000028F1D18DF808B08DF809900298FFF786
:10357000D9FEC0F303310B2912D801228A4012F47C
:10358000406FC3B21DD112F00C0F0ED1910707D0BE
:1035900010F4706F00D07BB12033DBB2072B0BD956
:1035A0002046FFF74FFD354606E010F4706FF3D06C
:1035B000A27912F0F00FEFD12E46304609B0BDE8E7
:1035C000F08FEF2BF8D90F33DBB2022BE7E798F837
:1035D000063043F0010388F80630B5E790420AD17F
:1035E0004FB92046A371FFF72DFD0822214628463A
:1035F000FEF7EEFF78E72046FFF78AFD00283FF44C
:1036000076AF002F3FF473AF98F806301F2B11D917
:10361000B8F80020ADF812A0ADF8102098F80420FA
:103620008DF816308DF81420002204A88DF815208E
:10363000FFF708FD082221465048FEF7C9FFFFF7B3
:10364000D1FEFFF7BFFE55E7A87910F0F001019118
:1036500018D18DF80C208DF808B08DF80990ADF8D0
:103660000AA08DF80D7093E80300FFF75DFD284672
:10367000FFF7E8FC082201992846FFF71FF8FFF73B
:10368000A1FE61E7002A98D02A8823889A420AD1AD
:103690004FB9A0712046FFF7D5FC082239462846CD
:1036A000FFF70CF889E72046FFF732FD00283FF4CA
:1036B0001EAF002F3FF41BAF98F806301F2BB9D96F
:1036C000B8F80020ADF81AA0ADF8182098F804203A
:1036D0008DF81E308DF81C20002206A88DF81D20C4
:1036E000A6E7C72835D8002A3FF404AF3E46002F8E
:1036F0003FF4FDAE2A8823889A421CD1AB79DA07C1
:1037000013D413F0F00210D0F02AA37106D0DBB26C
:10371000C3F30312013262F30713A3712046FFF7CC
:1037200091FC08222146154862E7082221461348E9
:10373000FEF74EFF41E72046FFF7EAFC00287FF442
:1037400079AFAB79204643F00103AB71FFF77AFC08
:1037500033E78DF80C208DF808B08DF80990ADF89E
:103760000AA08DF80D7093E80300FFF7DDFC082236
:1037700031462846FEF7A2FFB6E600BF460F0020FE
:10378000F0B585B06C4684E803002046FFF78AFE5A
:10379000284E0746284D68B19DF804301BB194E8C7
:1037A0000300FFF7C7FC254C28783378834226D1E5
:1037B00005B0F0BD9DF8042002AB94E8030083E857
:1037C0000300002AEFD030782A78441C04F0070464
:1037D00094420AD01946194B082203EBC000FEF7A9
:1037E000F7FE3470FFF7CEFDDDE7FFF761FC08223E
:1037F0003946134837702F70FEF760FFD3E704EBAC
:10380000C000FFF74FFE0028D2D02B7834F83300E9
:1038100004EBC3035F889A88D98840EA074042EAEC
:103820000141FFF787FC2B78013303F007032B706E
:10383000BAE700BF8E0F00208F0F00204E0F002030
:10384000460F002008B502F08BF8054B1B88C01A04
:1038500041F2873380B2984294BF0020012008BD16
:10386000E60F0020014B1878C0087047E00F0020D9
:10387000024B187800F00700704700BFE00F0020EF
:1038800008B502F06DF8084B1B88C01A41F2873367
:1038900080B2984289BF054B0020187880F0040060
:1038A00088BFC0F3800008BDE20F0020E00F0020B9
:1038B000034B187810F0070018BF0120704700BFB5
:1038C000E00F0020014B1878704700BFE80F002080
:1038D000024A137818431070704700BFE80F0020A9
:1038E000024A137823EA000010707047E80F0020A6
:1038F0000022014B1A707047E80F0020024A13782B
:1039000018431070704700BFE90F0020024A137877
:1039100023EA000010707047E90F00200022014BDD
:103920001A707047E90F0020704708B5FFF7FCFFD9
:1039300008BD000008B5054A137830EA030103D03A
:1039400018431070FFF7F1FF08BD00BFE40F00201F
:1039500008B5054A1378034204D023EA000010702A
:10396000FFF7E3FF08BD00BFE40F0020704708B574
:10397000FFF7FCFF08BD000038B5084D04462B7862
:1039800030EA030309D001F0EBFF054B18802B78D8
:10399000204623432B70FFF7EAFF38BDE50F0020D8
:1039A000E60F002010B5084C237803420AD023EA22
:1039B0000000207008B101F0D3FF044B188020787C
:1039C000FFF7D5FF10BD00BFE50F0020E60F002078
:1039D00008B5054B1A782AB100201870034B1880DF
:1039E000FFF7C5FF08BD00BFE50F0020E60F002070
:1039F00038B50B4B0B4D1C780B4B2A781B781C43AE
:103A00005AB1FFF71FFF08B1FFF7E2FF2B781C4305
:103A100001F05CFD08B1FFF7DBFF204638BD00BFB9
:103A2000E80F0020E50F0020E90F002038B50B4C0F
:103A30002568FFF7DDFF2870246808220849204622
:103A4000FEF796FD48B1214608220548FEF7C0FD65
:103A50002046BDE8384001F0E5BC38BD000C002030
:103A6000B80F002038B50B4C2568FFF7C1FF687010
:103A70002468202208492046FEF77AFD48B12146F5
:103A800020220548FEF7A4FD2046BDE8384001F09D
:103A9000D1BC38BD040C0020C00F002008B501F0D7
:103AA00085FE012808D1064B93F90030002B03DA7C
:103AB000BDE80840FFF7D6BFBDE80840FFF7B6BF36
:103AC00024230020704708B5FFF7FCFF08BD000065
:103AD0000B4A10B5527852070ED50A4C41EAC00184
:103AE0002170FFF76FFB01F03BFF074B1880207838
:103AF000C008FFF7E8FF10BDBDE81040FFF762BB4C
:103B000024230020E00F0020E20F0020002008B551
:103B1000034B1870034B1880FFF7D5FF08BD00BF9B
:103B2000E00F0020E20F002008B50A4A137823EACC
:103B30000000107042070CD198420AD0064B5B7807
:103B40005B0706D5C008FFF749FBBDE80840FFF753
:103B5000DDBF08BDE00F002024230020094A08B57E
:103B60005378C3F3800181420AD060F3820353701B
:103B7000108800F03FF8BDE808400220FFF7D4BFEE
:103B800008BD00BF24230020044B5878C0F38000F8
:103B900080F0010000F00100FFF7E0BF24230020C7
:103BA0000120FFF7DBBF0020FFF7D8BF08B50020DA
:103BB00000F086FCBDE808404FF6FF71002000F0E1
:103BC00061BC08B5002000F0F6FB4FF6E563C31AB0
:103BD0005842584108BD022000F0DEBB08B5032062
:103BE00000F0DAFB08BDC1B2032000F03DBC0420A8
:103BF00000F0E1BB0146042000F044BC01460F2068
:103C000000F04EBC0146132000F04ABC0020FFF734
:103C1000F9BF08B50020FFF7F1FFFFF7F7FF08BD78
:103C200007B5002000F04CFC4FF6E561002000F0E5
:103C300029FC0021022000F017FC0120194B1880FC
:103C4000FFF7D1FF4FF4A051042000F01BFC00212E
:103C5000062000F009FC0021072000F005FC0021EF
:103C6000082000F01DFC0021232000F0FDFB0021B6
:103C70000C2000F0F9FB00210D2000F0F5FB0023E3
:103C800000226846CDE900231721082200F0D2FB6C
:103C900000211F2000F004FCFFF7BBFF03B05DF81C
:103CA00004FB00BF3E0F0020FFF7BABF01460E2005
:103CB00000F0DABB73B501F053FE0B4C05462388C8
:103CC00083420ED00026ADF8006001F049FEADF849
:103CD0000460ADF8020002AB13E90300FEF794FEA6
:103CE000258002B070BD00BFF40F002008B501F0C0
:103CF00001FE024B1860024B186008BDEC0F00205B
:103D0000F00F00207047704708B5FFF7FCFF08BDB3
:103D1000704708B5FFF7FCFFFFF7F6FF08BD7047D7
:103D200008B5FFF7FCFF08BD704708B5FFF7FCFFBB
:103D3000FFF7F6FF08BD01207047000008B50548F1
:103D400000F084FA00F0BAFBFFF7DCFFBDE80840A2
:103D5000FFF7DFBF254200080120704708B5FFF7D5
:103D6000FBFF08BD70477047704708B5FFF7FAFFC3
:103D7000FFF7F9FFFFF7F8FF08BD000008B5FFF7F0
:103D800020FF08B9FFF790FFFFF725FF084B1870D9
:103D9000FFF72DFF074B188000F021FFFFF71EFFF4
:103DA000FFF7DDF9044B1888BDE80840FFF7F3B9C9
:103DB000F70F002024230020400F002008B501F059
:103DC00097FD00F06DFAFFF7D9FFFEF7F6FDBDE8AD
:103DD0000840FFF7AABF000073B5FFF7ACFF40B97A
:103DE000FFF768FF01F0A0F902B0BDE87040FEF7F0
:103DF000F5BD1B4C00F068FA0020257800F036FA7B
:103E00008542EDD0174B1B789A0701D500F034FAA4
:103E1000FFF7A4FF0646002000F028FA22780546A6
:103E200080EA02039042DBB202D1FFF75FFFD9E7DD
:103E3000DB0712D58EB10023ADF8003001F090FD04
:103E400001238DF804302B408DF80530ADF80200C9
:103E500002AB13E90300FEF7D7FD2570E5E700BFCD
:103E6000F60F0020F70F002038B500F0F1F8B0F59C
:103E7000A04F044622D2B0F5804F77D2DF2812D867
:103E8000CD2861D2A7280AD8A5284ED2012804D06F
:103E900003B233B1032898BF0024204638BDC2289E
:103EA0004AD90024F9E7B0F5005F80F0A280B0F5B0
:103EB000807F4DD2E82828BF0024EEE745F25F233B
:103EC000984216D845F2402398425FD245F21F230C
:103ED000984254D8B0F5A44F7CD30123C4B2A008B3
:103EE00004F0030403FA04F444EA401444F40D44D7
:103EF0002CE045F29F23984207D8B0F5A54F52D346
:103F000000F01F044AF2F4003DE045F2BF2398425E
:103F100056D945F2DF239842C3D8040204F4F8547A
:103F200044F4204444F0F004B7E75B34394BE4B286
:103F30001C5D44F48044B0E75834374BE4B233F8A6
:103F4000144044F48844A8E740F4A044A4B2A4E791
:103F5000C0F3072000F004F90546E0B200F078F85D
:103F60002D0205F4F855284384B296E7C0B200F05C
:103F70006FF804F47064044344F42044E6E700F06E
:103F80001F044AF2F10040EA042486E70123C4B288
:103F9000C4F3820004F0030403FA04F444EA401476
:103FA00044F40C44D2E70123C4B2C4F3820004F009
:103FB000030403FA04F444EA401444F40A44C5E751
:103FC00000F01F0000F0CCF8040204F4F85444F4AC
:103FD000005462E700F01F0000F0C2F8C306C4F30B
:103FE000431448BF0001240200B2044344F41044C7
:103FF000ACE7C0F3042000F0B3F80546E0B200F0EF
:1040000027F82D0205F4F85545EA000444F400545D
:104010009CE700BF527E0008567E000882B0ADF8D3
:10402000041041EA112111F0FF0203D1114602B040
:10403000FEF79BBB002002B0704707B5ADF8041037
:104040000199FFF7EBFF03B05DF804EBFFF70CBF3E
:10405000822825D00CD8312867D004D829285AD0F6
:104060002A2869D07047352850D0392818D0704791
:10407000E32833D004D8E0281CD0E22829D07047A8
:10408000E62835D0E72838D0E42835D1334B5A78A4
:10409000910731D51B7813F0100F08BFE72015E00A
:1040A0002E4B1A78920752D15B7813F0080F18BF85
:1040B00029207047294A1378D90744D4527812F03E
:1040C000010F19D013F0100F08BFE32018BF002014
:1040D0007047224B1B7813F0040FF2E71F4A137846
:1040E000590732D45278D20731D413F0100FEDE7CC
:1040F0001A4B1B781A07CED47047184A1378190741
:1041000027D452789107F0D5E4207047134B1B78E1
:1041100013F0200FCBE7114B1A7892061BD45B7873
:1041200013F0080F18BF392070470C4B1B7813F0A1
:10413000400F18BF2A207047084B1B7813F0400F20
:1041400018BF3120704739207047E2207047E020C7
:104150007047E62070473520CEE700BF24230020BB
:1041600010B52F4C21784B0713D500F01402A2F1A3
:10417000040C00F01803DCF1000242EB0C02A3F186
:10418000080CDCF1000343EB0C039A4218BF80F0EB
:104190000C000B0713D500F01402A2F1140C00F070
:1041A0001803DCF1000242EB0C02A3F1180CDCF165
:1041B000000343EB0C039A4218BF80F00C006478B4
:1041C000E30713D500F0110202F1FF3C00F01803E1
:1041D000DCF1000242EB0C02A3F1080CDCF100035D
:1041E00043EB0C039A4218BF80F00900A30711D5D6
:1041F00000F0110200F01803A2F111046242A3F1D1
:10420000180C6241DCF1000343EB0C039A4218BF27
:1042100080F00900CB0648BF00F0E70010BD00BFEA
:104220002423002000207047A0F5A543603B1F2BEE
:1042300010B507D84C791CB900F01F00FEF70CFB35
:10424000204610BD0124FBE700207047014B186099
:10425000704700BF080C0020704708B5FFF7FCFF4F
:1042600008BD704708B5FFF7FCFF08BD014B185C9F
:10427000704700BF27230020704700000322202141
:10428000014803F093BA00BF000C0140034B9B6848
:104290006FEA531303F0010343547047000C0140CD
:1042A00008B5FFF7EBFF0023054A01201370054A0C
:1042B000137000F029F8BDE80840FFF7CEBF00BF3B
:1042C000272300202623002013B5002101A88DF804
:1042D0000410FFF7DBFF0A4A9DF804101378084822
:1042E0008B421ABF1170012300230122054900F0FF
:1042F0000DF80446FFF7B6FF204602B010BD00BF20
:104300002623002027230020704700002DE9F843D2
:1043100080460F4691461C46114D43B101232B7038
:1043200001F0E8FA0F4B18600020BDE8F8832E7802
:10433000002EF9D00B4B186801F085FA0428F3D948
:104340004A4641463846FEF713F928B14A464146E7
:104350003846FEF73DF93446002320462B70E4E74B
:10436000F80F0020FC0F0020FFF736BD08B501F064
:1043700083FA01F024FDFFF7E1FC01F023FDFFF7D4
:104380001DFD01F035FD01F039FDFFF7EDFF01F0F6
:104390004FFDFFF7EAFCF6E7002307B501460122CF
:1043A0000DF107008DF8073000F08CF89DF807003C
:1043B00003B05DF804FB002307B5014602220DF1AE
:1043C0000600ADF8063000F07DF8BDF8060003B039
:1043D0005DF804FB07B50422002301460DEB020043
:1043E000019300F06FF8019803B05DF804FB07B586
:1043F00001228DF8071001460DF1070000F067F863
:1044000003B05DF804FB07B50222ADF806100146C3
:104410000DF1060000F05BF803B05DF804FB07B592
:104420000422019101460DEB020000F050F803B0A8
:104430005DF804FBF8B505461446D31D23F00703C9
:1044400000AFADEB030D68460E4600F03BF8224688
:1044500069462846FEF78CF820B1224631462846A8
:1044600000F035F8BD46F8BD38B50C460546FFF7F7
:1044700093FFA04205D021462846BDE83840FFF70B
:10448000B6BF38BD38B50C460546FFF794FFA042CD
:1044900005D021462846BDE83840FFF7B4BF38BDF7
:1044A00038B50C460546FFF795FFA04205D02146DA
:1044B0002846BDE83840FFF7B2BF38BD00F0A0B9CC
:1044C00000F03CB80B460146184600F051B80B46C8
:1044D0000146184600F0D8B808B5064B4FF4805294
:1044E00018460021FEF7EAF841F2080200F5805371
:1044F0001A6008BD0010002038B541F20404054DD3
:104500002B5D2BB900F040FA08B10120285538BDC9
:104510000220FCE70010002038B541F20404064DEB
:104520002B5D33B100F07EFA10B1002301202B5532
:1045300038BD0220FCE700BF0010002038B5FFF7AF
:10454000DBFF044618B9FFF7E7FF204638BD00F04F
:1045500027FA0546FFF7C0FF012C06D1FFF7DCFF65
:1045600000280CBF002505F001052C46EDE70000F2
:1045700008B5034608469918B1F5805F05D8044987
:104580001944FEF725F8012008BD0020FCE700BF14
:1045900000100020F8B506460F4615460024AC4230
:1045A00001D10120F8BD60003918304400F094FAC0
:1045B0000028F7D00134F2E7F8B506460F46154655
:1045C0000024AC4201D10120F8BD37F8141006EBED
:1045D000440000F007FA0028F6D00134F1E70000AB
:1045E00037B5FFF789FF4FF40062054612490020F6
:1045F000FFF7E2FFD0B10EA3D3E900234FF48051BF
:104600000D4800F093FA0422CDE9000169464FF409
:104610008050FFF7D1FF002814BF02240024012D91
:1046200001D1FFF779FF204603B030BD0446F6E71D
:1046300025232284E49CF2CB0010002010B5084C06
:104640002368B3F5005F08D300F0AAF920B1FFF7A3
:10465000C7FF41F20803236010BD0120FCE700BF43
:104660000020002010B5074C0146206800F0BAF980
:1046700030B1236802332360BDE81040FFF7DEBF8E
:1046800010BD00BF002000202DE9F04F8B4681189F
:10469000B1F5805F85B00746154604D90024204651
:1046A00005B0BDE8F08F554C044421465846FDF74F
:1046B0005FFF002800F09F802A4659462046FDF7FC
:1046C00087FFFFF719FF019030B14FF0000835B9AF
:1046D000FFF7B4FF044684E0FFF71EFFDEE7012D7D
:1046E0009BF8001023D9FB0721D4B7F5804F1ED2C9
:1046F0009BF8012041EA0222012A18D8002A14BF9F
:104700006FF05F026FF07F0242EA572262F30709FF
:104710007A0862F30F291FFA89F0FFF7A3FF012837
:1047200004465AD1023D02370BF1020BCFE73F2F6F
:1047300011D847F0400262F3070A61F30F2A1FFA0B
:104740008AF0FFF78FFF0128044646D1013D01376B
:104750000BF1010BBBE7052D2E4628BF0526C7F33D
:10476000024242EAC6028DF808203A0AADF80A80F1
:104770008DF80920ADF80C805A46ADF80E808DF802
:104780000A700DF10B01B34412F8010B5A4501F800
:10479000010BF9D1BDF80800FFF764FF01280446BA
:1047A0001BD1BDF80A00FFF75DFF0128044614D1B4
:1047B000012D0BD8032D06D9BDF80E00FFF752FFCF
:1047C0000128044609D1AD1B374480E7BDF80C0031
:1047D000FFF748FF01280446ECD014B1022C18BFA3
:1047E0000024019B012B7FF45AAFFFF795FE0028B0
:1047F0003FF454AF53E7012451E700BF00100020FD
:104800002DE9F04385B0FFF767FE00F013F928B9F2
:10481000FFF762FE002005B0BDE8F0834FF40062B0
:1048200057490020FFF7B6FE554D10B9FFF754FE6B
:10483000EEE751A3D3E900234FF48051284600F05E
:1048400075F90F460646042202A94FF48050FFF77F
:10485000A1FEDDE902239F4208BF964201D0FFF787
:104860003BFE41F208060DF10601304600F034F936
:1048700000286AD0BDF80630002B65D0DAB2910965
:10488000012906F10204ADF8083047D029B1022908
:104890004AD000205AE02646E5E70DF10A012046FD
:1048A00000F01AF90028F4D09DF809309DF80A208C
:1048B0009DF8088043EA02234FEA08475BBA9BB29F
:1048C00007F4E0274FEAD8081F4308F0070907EB71
:1048D0000903B3F5805F06F10404DAD818F0060F77
:1048E00006D003A9204600F0F7F80028D1D0B41D67
:1048F00018F0040F07D00DF10E01204600F0ECF87F
:104900000028C6D002344A460DF10B01E819FDF724
:104910005FFEB4F5005FBED3012017E002F03F0256
:10492000C3F30723AB54F4E7510201F478511B0A97
:1049300041EA4303591CB1F5805FAAD2C2F3401289
:10494000EA5400236B54E4E7012034460D4D2C60FB
:1049500068B900F025F800283FF45AAFFFF740FE91
:1049600041F208032B6000287FF455AF50E7FFF7B2
:1049700065FEF8E7AFF3008025232284E49CF2CBA8
:10498000001000200020002008B50021034802F09C
:10499000FFF9B0FA80F0400908BD00BFB023002045
:1049A000F8B5002501240C4F0C4E3B68AB4201D8F2
:1049B0002046F8BD30680A4B1968036829445B69D2
:1049C00098470128306888BF002402F083F9012845
:1049D00088BF00240135E8E7140C00200C200020DB
:1049E000100C002013B50C4A0B46ADF806101168E8
:1049F0000A4A0144127812B1DB43ADF80630084B85
:104A0000022218680368DC680DF10603A047B0FABB
:104A100080F0400902B010BD0C0C002010200020D6
:104A20000C20002008B5024802F0C0F9012008BDA2
:104A3000B02300202DE9F8431E4B1F4C2360FFF7E5
:104A4000F1FF206803685B6898471C4B05461A68AD
:104A50001B4B03EA822903781A4A03F001031370FF
:104A6000836813B9184801F0A5FD0026B046AD686B
:104A7000164FB5421BD9691E891B2068396002F0A8
:104A80004BF9484502D33D680136F2E739682068A2
:104A900002F04FF98044B8F5005FF5D339680C4B4C
:104AA0006D1A20681D6002F037F90A4B186001206A
:104AB000BDE8F883B02300200C200020E0F7FF1FA2
:104AC00000FCFF03102000208C7E0008100C00204A
:104AD000140C00200C0C002038B50F4B0C46196844
:104AE0000E4B0144186802F031F9012302880C488A
:104AF0000C4D037000230C492D780B700DB1D2437F
:104B000092B20370087818B100200B70238038BD72
:104B100022800120FBE700BF0C0C00200C200020AD
:104B2000112000201020002008200020F0B50144B2
:104B3000884202D310461946F0BD002710F8014BF9
:104B40004FEA031C624094184FEA021E43EB030530
:104B50004CEA127C14EB0E0445EB0C054FEA421EA6
:104B6000A4184FEA431C43EB05054CEAD26C14EB46
:104B70000E0445EB0C054FEAC21E4FEAC31C4CEA7B
:104B8000526C14EB0E044FEA022645EB0C054FEA7B
:104B9000032C4CEA126CA41945EB0C033A19B646E7
:104BA00046EB0303C4E7FFF701B808B50020FFF7A1
:104BB0005DFB00F0010008BD08B5FFF785FB40F67E
:104BC000B83001F098FEFFF77FFBFFF7EEFF28B14A
:104BD000FFF7E9FFBDE8084000F0DABE08BD08B500
:104BE000FFF7EAFF08BD000047F61643984210B5EC
:104BF0000C461BD1FEF766FE62790D4B72B100F0D8
:104C0000AA00002815BF01220022352029201A7091
:104C100000F0F2FCFEF742FF002010BD1B78002BD5
:104C200014BF3520292000F005FDF3E70120F4E74B
:104C30001220002038B505464879002800F0DC80B5
:104C4000A5F5E045ABB2222B00F2BB80FEF7CFFF0B
:104C50006A4C013D2080212D12D8DFE805F04DBDC2
:104C6000551B1F59235D692FB5336D3771973B7500
:104C70009F417B8327612B65477F8EA9B31651C562
:104C8000237843F00103237095E0637843F0080331
:104C9000637090E0237843F00203F4E7237843F055
:104CA0000403F0E7237843F00803ECE7637843F06C
:104CB0000103EDE7637843F00203E9E7237843F06B
:104CC0001003E0E7237843F02003DCE7237843F088
:104CD0004003D8E7FEF7ECF9237843F08003D2E7EE
:104CE000237823F00C0343F00C03CCE7637823F024
:104CF000030343F00303CBE723786FF30003C2E71A
:104D000063786FF3C303C3E723786FF34103BAE714
:104D100023786FF38203B6E723786FF3C303B2E718
:104D200063786FF30003B3E763786FF34103AFE792
:104D300023786FF30413A6E723786FF34513A2E7F4
:104D400023786FF386139EE7FEF7B2F923786FF3AB
:104D5000C71398E7237823F00C0394E7637823F0D4
:104D6000030395E72378C3F3800282F00102D2B2F5
:104D700062F3820362F3C30385E76378DA4302F0E8
:104D8000010262F3000362F3410381E72378C3F376
:104D9000801282F0010262F3861374E7FEF788F94D
:104DA0002378C3F3C01282F0010262F3C7136AE7EB
:104DB0000120FEF77BFF2088FEF71CFFFEF778F945
:104DC000002038BD0020F4E72378C3F3001282F0FE
:104DD000010262F3041356E72378C3F3000282F062
:104DE000010262F300034EE76378C3F3C00282F06E
:104DF000010262F3C3034BE70120E2E72423002012
:104E000000EB4003C3EB031300EB830003B2002B62
:104E100007DAB3F1800001D503F17F0040F30720EA
:104E2000704703F18000F9E7164B1B78D90707D5C7
:104E3000154B187840007F281FD800B3C0B27047C8
:104E40009A0703D5104B18788000F4E75B0703D569
:104E50000D4B1878C000EEE70C4B1B785BB10C4A89
:104E60000949127808789342F4D25843C000B0FB45
:104E7000F2F080B2DFE70820E0E77F2070470120F2
:104E8000704700BF1E2000201A0C00201F200020A9
:104E90001B0C0020144B1B78D90705D5134B187831
:104EA0008008F8B1C0B270479A0703D50F4B187845
:104EB0004008F6E75B0705D50C4B18787F28F0D93A
:104EC0007F2070470A4B1B7853B10A4A0749127872
:104ED0000878934236BF584380B2B0FBF2F0EDE75A
:104EE0000120DFE7012070471E2000201E0C00205B
:104EF000202000201F0C0020CD2808B505D1FFF789
:104F000093FF4042294BD87008BDCE2802D1FFF74D
:104F10008BFFF7E7CF2805D1FFF786FF4042234BF1
:104F20009870F1E7D02802D1FFF77EFFF7E7D92884
:104F300004D1FFF7AFFF1D4B1871E5E7DA2803D165
:104F4000FFF7A8FF4042F6E7DB2805D1FFF7A2FFF5
:104F50004042164B5871D7E7DC2802D1FFF79AFF81
:104F6000F7E700F12F03DBB2072B08D801230F4A24
:104F7000D13803FA00F0537818435070C4E7DD28A5
:104F800005D10B4A137843F001031370BCE7DE2808
:104F900004D1074A137843F00203F6E7DF28B3D1C0
:104FA000034A137843F00403EFE700BF1820002002
:104FB0001E200020364BCD2893F902200AD193F908
:104FC000031000290CDA0021D97052B90021314AAE
:104FD000117006E0CE280DD193F903100029F2DC00
:104FE00072B11A795B7913435BB2002B4FD12A4A15
:104FF00013707047CF2806D1002AF1DA00229A7088
:1050000093F90320E1E7D02802D1002AF6DCE7E794
:10501000D92893F9041004D10029E1DD0021197188
:10502000DEE7DA2802D10029DADAF7E7DB2893F99C
:10503000051004D10029D3DA00215971D0E7DC280A
:1050400002D10029F8DCCBE700F12F01C9B2072912
:1050500007D80121D1388140587820EA01005870E2
:10506000BEE7DD2805D10D48017821F0010101706E
:10507000B6E7DE2804D10948017821F00201F6E7FD
:10508000DF28ADD10548017821F00401EFE7704732
:10509000182000201F200020202000201E2000209B
:1050A00008B500F05DFC094BDA7899780A431CBF1B
:1050B000074A10801A795B7913431CBF054B18808F
:1050C0000248BDE8084000F0BFB900BF182000202A
:1050D000142000201620002008B5062200210548D3
:1050E000FDF7ECFA0023044A1370044A1370044AD3
:1050F000137008BD182000201F2000202020002051
:105100001E20002090F902305BB990F9033043B9BA
:1051100090F904302BB990F90500003018BF012038
:10512000704701207047000037B5594C06222146D0
:105130006846FDF74DFA00239DF80220A370E37046
:10514000237163719DF8033013430AD0514B1888C3
:1051500000F072FB504A13783BB3504909788842FB
:105160002CDC9DF804209DF8053013430BD04C4BEC
:10517000188800F061FB4B4A1378002B4ED04A4947
:105180000978884253DC6946414800F08FFA18B923
:105190003F48FFF7B7FF08B1FFF782FF06226946D5
:1051A0003B48FDF715FA03B030BD40490D780A21A0
:1051B00069438842D5DD0133137001E0FF2BFAD13A
:1051C0009DF902503DB1FFF72FFE002DCCBF01230A
:1051D000FF235843A0709DF903503DB1FFF724FE13
:1051E000002DCCBF0123FF235843E07094F9020047
:1051F0000028B6D094F90320002AB2D0FFF700FEB1
:1052000030B1A0701046FFF7FBFD20B1E070A8E7B9
:105210000123A370F6E70123E370A2E724490D7888
:105220000A2169438842AEDD0133137001E0FF2B90
:10523000FAD19DF904503DB1FFF72CFE002DCCBFF3
:105240000123FF23584320719DF905503DB1FFF71D
:1052500021FE002DCCBF0123FF235843607194F938
:10526000040000288FD094F90520002A8BD0FFF786
:10527000C7FD30B120711046FFF7C2FD20B160714B
:1052800081E701232371F6E7012363717BE700BF08
:1052900018200020142000201F200020190C0020BE
:1052A00016200020202000201D0C0020180C0020BB
:1052B0001C0C0020F8B5144642791D469DF8187064
:1052C000284B92B11C7000F04BFB274B188004F167
:1052D0002003DBB2072B44D8012004F00704A040D0
:1052E000C0B2BDE8F840FDF77BBC1E78A6422ED1C7
:1052F0001D4B188800F0A0FAC72828D8AE4205F147
:10530000200415D006F12003DBB2072B06D80120BC
:1053100006F00706B040C0B2FDF76BFCE3B2072B06
:1053200006D8012005F007039840C0B2FDF758FCED
:105330003846E4B2FDF74CFC072C12D8012005F0EA
:105340000705A840C0B2BDE8F840FDF752BC04F123
:105350002003DBB2072B04D8012004F00704A0408F
:10536000F0E7F8BD212000202220002013B5A0F591
:10537000F84018380C4606283BD8DFE800F0171E26
:105380000410252C330026230093E12347F61A410D
:105390001A462046FFF78EFF002002B010BD2723DB
:1053A0000093E52347F61B411A46F2E72623E02245
:1053B000009347F61841E123EBE72723E42200930B
:1053C00047F61941E523E4E72623E222009347F656
:1053D0001C41E123DDE72723E622009347F61D4128
:1053E000E523D6E72823E522009347F61E41012353
:1053F000CFE7487918B10022024B1A70CDE701209F
:10540000CBE700BF21200020014B1860704700BF90
:1054100024200020024B186808B103681847704721
:1054200024200020024B1B680BB15B6818477047B3
:1054300024200020034B1B681BB1062101709B68D0
:105440001847704724200020034B1B681BB1022122
:105450000170DB6818477047242000200B4B07B50C
:105460001A8882420ED01880094B1B6853B1032260
:105470008DF80500000A8DF806008DF804201B69E0
:1054800001A8984703B05DF804FB00BF2A20002064
:10549000242000200B4B07B51A8882420FD01880B9
:1054A000094B1B685BB104228DF80500000A8DF8DA
:1054B00006008DF804201B690DEB0200984703B02D
:1054C0005DF804FB28200020242000200F4B10B59D
:1054D0001C6800F06BF9012804F102040DD10C4B9B
:1054E00093F90030002B08DA0A4B1C681E230234A3
:1054F000002023449C4202D110BD0623F8E714F893
:10550000012B002AF6D00130C0B2F3E7000C0020D6
:1055100024230020040C002010B5044608B9002004
:1055200010BD00F043F9012813D1104B93F900305E
:10553000002B0EDAE2081D2AF1D80D4B04F0070407
:105540001B68A04013449B78034214BF0120002035
:10555000E6E7084B1B689A1C083312F8011BA142AE
:1055600002D09A42F9D1DAE70120D9E724230020BA
:10557000040C0020000C00204FF0FF33002230B557
:10558000851C15F8014B8C420ED0B3F1FF3F02D1C0
:10559000002C08BF13460132D4B2062C62B2F0D1FF
:1055A0005A1C01D01844817030BD002210B5831CF4
:1055B000083013F8014B8C4208BF03F8012C8342DA
:1055C000F7D110BDCB081D2B07D8184401F00703F5
:1055D000012199408378194381707047CB081D2BB6
:1055E00008D81844012301F007018B40817821EA93
:1055F000030181707047000010B5044600F0D6F832
:10560000012821460AD1084B93F90030002B05DA16
:10561000BDE81040054B1868FFF7D4BF044BBDE848
:1056200010401868FFF7A8BF24230020040C0020B6
:10563000000C002010B5044600F0B8F801282146FF
:105640000AD1084B93F90030002B05DABDE8104071
:10565000054B1868FFF7C2BF044BBDE8104018683F
:10566000FFF7A3BF24230020040C0020000C00201F
:1056700008B500F09BF801280DD1094B93F90030D3
:10568000002B08DA1E22074B18680021BDE80840ED
:105690000230FDF713B8044B06221868F5E700BF87
:1056A00024230020040C0020000C002042784B78BA
:1056B0009A421DD190F902301BB191F902209A4211
:1056C00016D190F903301BB191F903209A420FD102
:1056D00090F905301BB191F905209A4208D190F953
:1056E000040030B191F90430181A18BF0120704736
:1056F0000120704782B002B0704707B50190FFF7F4
:10570000F9FF03B05DF804FB07B500284FF0040271
:1057100014BF0223012306490DEB0200CB70FCF7F6
:1057200057FF0198FFF7E9FF03B05DF804FB00BFE6
:10573000200C002007B50422032306490DEB0200CC
:10574000CB70FCF745FF0198FFF7D7FF03B05DF87A
:1057500004FB00BF200C0020FFF7D6BF07B50422D2
:10576000012306490DEB0200CB70FCF731FF0198D5
:10577000FFF7C3FF03B05DF804FB00BF200C00205F
:10578000FFF7ECBF07B5003018BF0120042206491F
:1057900088700DEB0200FCF71BFF0198FFF7ADFFCF
:1057A00003B05DF804FB00BF200C0020014B98788B
:1057B000704700BF200C002007B50422054948703F
:1057C0000DEB0200FCF704FF0198FFF796FF03B012
:1057D0005DF804FB200C0020014B5878704700BF97
:1057E000200C002007B50422054908700DEB0200CB
:1057F000FCF7EEFE0198FFF780FF03B05DF804FBB5
:10580000200C002070477047704708B5FFF7FCFF79
:1058100008BD704708B5FFF7FCFF08BD08B5FFF7E6
:10582000F1FFFEF751FDFFF7EEFF0020FEF71EFD32
:10583000003018BF012008BD10B5044600F090F8F4
:10584000001B80B210BD10B5044600F053F8001BD9
:1058500010BD000008B510220021FCF72FFF034601
:10586000044AD2E900010832126883E807001846AA
:1058700008BD00BFE8F7FF1F08B501F055F9BDE806
:10588000084000F07FBE08B5FDF777F8BDE8084096
:1058900040F2A46001F02FB808B5FEF729F8FEF732
:1058A0003DF8FFF7E5FEFFF717FC0020FFF7D6FDF8
:1058B0000020FFF7EFFDBDE80840FDF767B80000E6
:1058C000302383F31188064BDA69064B1A600023F4
:1058D000054A1360054A136083F31188704700BFBF
:1058E00048230020342000202C20002030200020DD
:1058F000FFF7E6BF70B500F06BFE124D124B134A76
:10590000DC692B681168E41AA14211490AD9A3F590
:105910008333E03B2B600D680E4B04F583342B443E
:10592000E0340B600D6814604FF47A7600F059FE95
:1059300000210948094A0023E6FB0401FCF796FC14
:10594000284470BD34200020482300202C20002053
:105950003020002088598F029F860100A086010018
:1059600008B5FFF7C7FF80B208BD0000BFF34F8F37
:105970000549064BCA6802F4E0621343CB60BFF3EB
:105980004F8F00BFFDE700BF00ED00E00400FA0507
:1059900008B5FFF7EBFF000044F24D2208B5024BBB
:1059A0009A62FFF7E3FF00BF006C004010B5084AA1
:1059B000084C117824784B1C03F00F039C421DBF48
:1059C000054C13706054002018BF012010BD00BFAB
:1059D00038230020392300202823002070B590F8B8
:1059E0007430044603F07F02212A54D113F0800260
:1059F00021D0002A4FD090F87520022A17D0032A10
:105A000005D0012A17D1BDE8704000F013BC90F812
:105A1000782090F8795052EA05250CD1FFF7C6FEA0
:105A2000354B256718700120A366E06670BDBDE8A0
:105A3000704000F039BD94F875200A2A22D00B2A54
:105A400011D0092A27D194F8782094F8791042EAE5
:105A50000122012A1FD8294BA3660223E366284BA3
:105A600023670120E2E794F8783094F8792053EA2C
:105A7000022303D194F87600FFF784FE0023A36687
:105A8000E366EDE794F87700FFF7ACFE2046BDE84B
:105A9000704000F031BD03F09F03812B03D194F8D7
:105AA0007530062B11D0174DD5F8842022B9D5F8C2
:105AB000143133B90020B9E7204690470028F6D0CA
:105AC000B4E72046BDE87040184794F87920616833
:105AD00094F878304D6843EA022394F8761094F8ED
:105AE00077202046A8470028E4D04368A3660368CF
:105AF000E3660023B4E700BF4020002044200020DC
:105B00004D5B0008180E0020F8B50F4C002223460C
:105B100043F8042F90F87B7090F8796090F87650F5
:105B200090F87A2090F8781090F8770042EA0722EF
:105B300041EA062145EA002000F0ACF920606068E7
:105B4000002818BF2046F8BD3820002090F87A10B1
:105B500090F87B00074B41EA002102291A7806D110
:105B6000012A01D0062A04D15878FFF725BE104635
:105B7000FBE770474420002008B505292AD8DFE854
:105B800001F01A29031A1A2A302383F311881948BD
:105B900000F02AFA184800F027FA002383F311884E
:105BA000164B1B7813B10520FFF700FF0220BDE85C
:105BB0000840FFF7FBBE0846FFF7F8FE302383F3EB
:105BC00011880C4800F0F9F90B4800F0F6F90023B1
:105BD00083F3118808BD302383F31188054800F052
:105BE00000FA054800F0FDF9002383F31188052031
:105BF000DDE700BF180E0020A80E00204120002085
:105C000008B5102200210448FCF758FD0023034A80
:105C10001370034A137008BD282300203823002086
:105C200039230020F8B52A4D2A4E2C460021307821
:105C30002B78294F984233D101B12070F8BD012251
:105C40002370264B1A70264B93F87F10081C18BF40
:105C50000120FFF76FFDE9E7002223701F4B1A7048
:105C6000FFF71AFE1E4B93F87F10081C18BF012087
:105C7000FFF772FDDAE72370194B93F87F10081CC9
:105C800018BF0120FFF740FDD0E700212370084630
:105C9000F8E72370FFF762FD0120FFF773FDC5E70A
:105CA0001A46BA5C013303F00F030121052AC1D85B
:105CB0000FF2040C5CF822F0935C0008355C0008DD
:105CC000775C00088B5C00083F5C0008595C0008AA
:105CD00039230020382300202823002041200020E1
:105CE000D023002070B506464FF48055134C204653
:105CF00000F040F92046903400F050F9204600F0C2
:105D000039F920460E4C00F049F906224FF4805133
:105D1000204601F04BFD3046656101F08DF841F2FF
:105D2000883000F0E8FD0749304601F06EF829465A
:105D30002046BDE87040022201F038BD180E002058
:105D400000080140F87E000837B500239025054C77
:105D5000009305FB004042F2107300F09FF903B07E
:105D600030BD00BF180E002010B50446FFF71EFD21
:105D70002146BDE8104008220120FFF7E5BF01469B
:105D800020220020FFF7E0BF014606220020FFF797
:105D9000DBBF014603220020FFF7D6BF70477047E4
:105DA000704708B5FFF7FAFF02F01EF8FFF7F7FF9C
:105DB00008BD08B502F020F8FFF7F2FF08BDFFF7B5
:105DC000DFBC000008B5FFF71BFF0648FFF78AFF9E
:105DD000054B064A41F288301A60BDE8084000F0E1
:105DE0008ABD00BFD023002048200020240C0020C2
:105DF000014B1868FFF708BB4820002038B50B4C52
:105E0000FFF710FF2378052B0FD12546FFF73BFD49
:105E1000FFF704FD30B1B4F87C309B0702D528466B
:105E200001F098F82378052BF0D038BDD02300205E
:105E300000F0B8BA30B5144B85B01C7814BB012201
:105E400068461A70FFF706FD2346104A104C04A955
:105E500001EB630111F8100C02EB43010509655DCC
:105E600000F00F008D700025205CCD70591C0233AE
:105E700002EB4101202B8870CD70E8D142231370D2
:105E80000323537005B030BD902000204C2000202B
:105E900067800008020A032A10B51C4611D006D8F4
:105EA000012A2AD0022A2BD00020024612E0212A01
:105EB0001DD0222AF8D149B30129F5D1B620154ABF
:105EC00008E0C0B20328EFD8DFE800F00206090CB2
:105ED0000420114A226010BD0420104AFAE70C2069
:105EE0000F4AF7E7FFF7A6FF0E4A1078F2E751B125
:105EF0000129D9D109200C4AECE712200B4AE9E725
:105F00003B200B4AE6E709200A4AE3E744200A4A15
:105F1000E0E700BFB17F0008997F00089D7F00087F
:105F2000A37F00084C200020337F0008437F000837
:105F3000087F00081A7F0008557F000813B5446BDE
:105F4000226F1378042B12D1012394F87410128954
:105F50008B4013420BD101A9204600F01CFE0246E3
:105F600028B1019B94F87410206F00F0E1FF02B09B
:105F700010BD00001FB500F15C03C364064B029026
:105F80000193836FD0F8802000930121C36F00F04C
:105F9000DFFD05B05DF804FB3D5F0008302383F3AF
:105FA0001188036F90F8742003EB8203986200233A
:105FB00080F8883083F311887047012310B50446B8
:105FC00003726FF0010100F0C6FC204600F0D7FD1F
:105FD000D4F88C3023B1BDE81040DA681868104757
:105FE00010BD00230372704710B5044600F138025B
:105FF00090F87410006F00F049FF204600F0BFFDDC
:106000000023237210BD00EB8103F7B59C6A05469F
:106010000E4684B3302383F311880023226984F869
:10602000883063699A4201D1E368B3B905EB86030E
:10603000DB685B691B6883B1D4F88C3053B101A96C
:10604000204600F0A8FDD4F88C3001469F68019AE4
:106050001868B847204600F0ACFD01A9204600F0C2
:106060009AFD024648B1019B3146284600F060FF88
:10607000002383F3118803B0F0BD05EB8603DB68D2
:106080001A68022AF4D15A691268002AF0D01B8AD1
:10609000013B1340ECD105F17402E5E72DE9F84F1F
:1060A0001E4604468A4617469DF82850302383F33F
:1060B0001188036F1B78042B05D0002585F3118808
:1060C0002846BDE8F88F90F8883023B101364FF0AC
:1060D000FF3618BF0026002383F311884FF03009E4
:1060E0004FF0010833463A465146204600F09CFDE9
:1060F00087421CD989F3118894F888304FF0000B3F
:10610000002808BF43F001036FF0010184F88830D4
:10611000204684F8088000F01EFC204600F02FFD89
:1061200084F808B000F052FB8BF31188DAE7002DF9
:10613000C6D1204600F0BDFD0125C1E7302383F321
:106140001188026943699A420FD1C3687BB1012368
:10615000026F90F8741012898B4013420CBF01201B
:106160000020002383F3118870470020F9E71846C8
:10617000F7E70000006810B440B1054C8264E469A0
:10618000083040F8044C10BCFCF722BA10BC704731
:10619000482300200168134631B18A6C03F10800DE
:1061A0009A640831FCF714BA704710B504460068C9
:1061B00040B1826C00210830FCF780FA002223688D
:1061C0001A605A6010BD00000B7810B4082B0BD871
:1061D00050F8230040B1054B8264DB69083040F879
:1061E000043C10BCFCF7F4B910BC704748230020F5
:1061F0000829134609D850F8211031B18A6C03F1EF
:1062000008009A640831FCF7E3B9704770B50026BE
:10621000051F00F1200455F8040F38B1826C0021ED
:106220000830FCF74BFA2B681E605E60A542F2D185
:1062300070BD000038B590F878300446012B1CD8AA
:1062400090F87610082918D80D4AD35C012B14D881
:1062500090200C4A00FB0323D3F88C0060B10A4D58
:1062600043682A460068984705F10803A366AB6CAB
:106270000120E3660023236738BD0020FCE700BF50
:10628000140E0020180E002058210020036843B18E
:106290009100196003490B78002A18BF43F00103ED
:1062A0000B707047F0210020006810B10068C0F347
:1062B000870070470368D0B50BB90020D0BD3023EC
:1062C00083F31188036800221C685B6882F31188DD
:1062D000002CF2D04FF47A700027084A084ED1699A
:1062E000084AC91AE0FB0167002330463946FBF72C
:1062F000BDFF84428CBF00200120DFE7482300203F
:106300009F860100A08601004B1E072B0BD850F87A
:10631000213043B19100196003490B78002A18BF5E
:1063200043F001030B707047F0210020082906D8C4
:1063300050F8210020B10068C0F3870070470020AA
:10634000704700000829D0B501D90020D0BD50F811
:106350002130002BF9D0302383F3118850F82130FD
:1063600000221C685B6882F31188002CEDD04FF48A
:106370007A700027084A094ED169094AC91AE0FB18
:106380000167002330463946FBF770FF84428CBF1B
:1063900000200120DAE700BF482300209F8601008B
:1063A000A08601002DE9F74F3A4B1A780193002A95
:1063B0003FD000263546384FDFF8E0B0D7F88C40A4
:1063C000002C32D0002E39D14FF00108302383F356
:1063D00011885FFA88FA63695146206898474FF040
:1063E0000009002818BF45F0010589F311882A48E3
:1063F000FFF7A4FEA0B1A36951462068984778B181
:10640000302383F31188254A6368514620689847F2
:1064100089F311882249DBF848204846FFF794FCAD
:1064200008F10108B8F1090FD0D1903726B1019BCE
:106430001D7003B0BDE8F08F0126BFE74FF03009B3
:1064400089F3118800216369206898474FF000089C
:10645000002818BF45F0010588F311881148FFF79F
:106460006DFE0028E1D0A3694146206898470028C6
:10647000DBD089F31188094A636841462068984750
:1064800088F311880649DBF848200120FFF75CFCFF
:10649000CBE700BFF0210020180E0020A42100202F
:1064A000AC210020A80E002010B590F878300446EA
:1064B000012B19D890F87610082915D80B4AD35C0F
:1064C000012B11D890200A4A00FB0323D3F88C003B
:1064D00048B1436900689847064B1870A3660120CD
:1064E0000023E066236710BD0020FCE7140E0020A7
:1064F000180E00205421002010B590F87830044682
:10650000012B19D890F87610082915D80B4AD35CBE
:10651000012B11D890200A4A00FB0323D3F88C00EA
:1065200048B1036994F87720006898470023012058
:10653000A366E366236710BD0020FCE7140E00206D
:10654000180E002070477047FEE7000070B5082065
:1065500000240B4B93E826000439954207D8D968EC
:10656000914209D8013803F11003F3D170BD51F8FD
:10657000046F42F8046BF0E742F8044BF0E700BF09
:106580007880000838B501230025074C237065602A
:1065900000F0BEFA0549064800F026F902232370F0
:1065A00085F3118838BD00BF40230020F880000823
:1065B0004823002072B60322024BD865024B1A70A2
:1065C000FEE700BF482300204023002000F04AB827
:1065D000EFF3118020B9EFF30583302282F31188A5
:1065E000704710B530B9EFF30584C4F3080414B153
:1065F00080F3118810BD00F0E9F884F31188F9E701
:1066000010B50A4A13699C68A1420CD85C68816085
:1066100003604460206058609868411A99604FF0A8
:10662000FF33936110BD091B1B68ECE74823002072
:106630000361002310B4C260436110BCFFF7E0BFE8
:10664000036881689A680A449A60426813605A60D5
:1066500000234FF0FF320360014B9A61704700BF87
:106660004823002070B5124D2946EA690132EA61DB
:1066700051F8102F8A4206D030269368013B936070
:106680002C69A36803B170BD226861680A6051601B
:10669000236083F31188E36821692046984786F3D5
:1066A000118861690029EBD02046FFF7A9FFE7E7D1
:1066B0004823002000238268037503691B689968DA
:1066C0009142FBD25A680360426010605860704784
:1066D00000238268037503691B6899689142FBD89F
:1066E0005A680360426010605860704708B53023F4
:1066F00083F311880A7D0023052A06D8DFE802F01B
:106700000C050503130F8A6913604FF0FF33084629
:106710008B61FFF7CFFF002383F3118808BD8A69DF
:106720009368013393604A680B6813605A60ECE722
:10673000FFF7C0BF054BD968087518680268536039
:106740001A6001220275D860FBF77ABD4823002049
:1067500030B50C4B87B0DC684B1C05460FD0234688
:10676000094A6846FFF764FF2846FFF7E3FF009BEE
:1067700013B16846FFF764FFA06907B030BDFFF7AB
:10678000D9FFF9E748230020ED660008044B1A689A
:10679000DB6890689B68984294BF00200120704796
:1067A00048230020084B10B51C68D8682268536045
:1067B0001A6001222275DC60FFF78AFF014620463D
:1067C000BDE81040FBF73CBD48230020044B1A688D
:1067D000DB6892689B689A4201D9FFF7E3BF704774
:1067E0004823002030BFFDE770B504460025194B53
:1067F00086B0856221630E46586000F043F904F1CB
:106800001003236163614FF0FF33A361124BE56115
:10681000DA69002304F13401C4E9082324606460C8
:10682000A560E562E56580230C4A204600F01CF86F
:1068300001230B4AE060037500927268684601927A
:10684000B268CDE90223074BCDE9043500F03EF8EC
:1068500006B070BD4023002048230020ED7E0008D4
:10686000F27E0008E56700088B6002224B6200237D
:1068700008618A820B62CB61084670478368C168F1
:10688000A3F14C0243F81C2C026943F84C2C4269DA
:106890000C4843F8482C0C4A43F8180C43F82C2CAD
:1068A000022203F8142C002243F8201C03F8132CB6
:1068B00043F8041C43F8082C43F80C2CA3F12800DF
:1068C000704700BF482300205122000808B5FFF799
:1068D000D5FFBDE80840FFF72BBF0000024BDB6887
:1068E00098610F20FFF726BF48230020302383F351
:1068F0001188FFF7F3BF08B50146302383F31188F1
:106900000820FFF725FF002383F3118808BD0368E3
:106910002BB10022026099611846FFF709BF70474A
:10692000064BDB6839B1426818605A6013604360F7
:106930000420FFF70DBF4FF0FF30704748230020C1
:106940000368984206D01A68026050609961184640
:10695000FFF7EEBE704738B504460D462068844206
:1069600000D138BD036823605C608561FFF7E0FEFD
:10697000F4E7034610B51B68984203D09C688A6808
:106980009442F8D25A680B604A601160596010BD99
:1069900000230060406083607047000070B5174BB3
:1069A00084680646DD689CB92B6A8560C3602862EE
:1069B00070BDA360237D83B1062B15D12368626867
:1069C000A069214613605A60FFF7D3FFA3699C6852
:1069D000AB68A2689A42ECD306E06268236820465E
:1069E00013605A60FFF7A4FE30462946FFF7C1FF47
:1069F000AE610620BDE87040FFF79CBE4823002032
:106A000008B5302383F31188FFF7C8FF002383F311
:106A1000118808BD154A10B5D1680346302282F3AB
:106A20001188C26800680A6283421BD0486A82B932
:106A30008860186802681A605360026A9860DA60B9
:106A40000362FFF775FEFFF7C1FE002383F3118891
:106A500010BD1468A24203D0A468A04238BF2046EB
:106A6000D268E4E700229A60EFE700BF48230020E5
:106A7000EFF30983203383F30988002383F311881C
:106A800070470000302080F3118862B60B4B0C4A2F
:106A9000D96821F4E0610904090C0A430949DA6064
:106AA000CA6842F08072CA6007490A6842F001026F
:106AB0000A602022DA7783F82200704700ED00E0B8
:106AC0000003FA05F0ED00E0001000E010B53023FF
:106AD00083F311880B4B5B6813F400630FD0EFF363
:106AE00009844FF08073203CE36184F30988FFF749
:106AF0004DFE10B1044BA36110BD044BFBE783F3C3
:106B00001188F9E700ED00E0632200086622000822
:106B1000024B034A1A60034A5A607047A8230020B8
:106B2000582400200050002008B500F0D5FC06488D
:106B300000F006FE00F01EF900F056F9FFF739F9F3
:106B4000BDE8084000F002B88881000800F060BE8F
:106B500010B5029C04330172C36103FB04210023BE
:106B60008362C362039B00600363049B4060C46054
:106B700042610261816104624262436310BD026A44
:106B80006FF00101C260426A4261026100228262CA
:106B9000C262FFF7E0BE436902699A4201D1C2684E
:106BA00022B9184650F8043B0B6070470023184682
:106BB000FAE7C368C2690133C36043690021134423
:106BC00082694361934224BF436A4361FFF7B8BEC1
:106BD00038B504460D46E3683BB1236900201A1D11
:106BE000A262E2691344E36207E0237A33B92946DB
:106BF0002046FFF795FE0028EDDA38BD6FF0010062
:106C0000FBE703691960C268013AC260C2691344B4
:106C100082690361934224BF436A03610023836254
:106C2000036B03B1184770472DE9F84F04460F4630
:106C300091469A464FF0300888F311880025AB46FC
:106C4000A66A4EB951462046FFF7C2FF20B186F32F
:106C500011882846BDE8F88FA06AE66AA9EB05030B
:106C6000361A9E4228BF1E46402E18D93946402269
:106C7000FBF7AEFCA36A40374033A3624035A26AFB
:106C8000E36A9A4204D3E16920460439FFF7B9FF69
:106C90008BF311884D45DCD288F31188D0E7394653
:106CA0003246FBF795FCA36A37443344A36235446C
:106CB000E5E708B5302282F31188816A29B10369BA
:106CC0000439C91A01D0FFF79CFF002383F3118810
:106CD00008BD00002DE9F348044640F2E7360027DE
:106CE0000C4D236801A99B692046984701280ED1C5
:106CF000B346BC4601994FF47A72E5FB01BC002310
:106D000061465846FBF7B2FAFFF7F5FDE9E702B036
:106D1000BDE8F088A0860100036810B55B680C46EA
:106D20009847C36813B153F8340010BD006960433D
:106D3000FBE7036810B55B680C469847C3681BB156
:106D400003EBC403586810BD0069FCE7036810B585
:106D50005B680C4698474069204410BD08B50C306C
:106D6000FFF758FE002008BD08B50C30FFF748FEBD
:106D7000002008BD00F00EBC044B0C3040F80C3C69
:106D8000012300F8083CFFF703BE00BF04810008A0
:106D900010B53023044683F31188816000F006FCAF
:106DA00002230020237180F3118810BD10B5302319
:106DB000044683F3118800F00DFC012323710023A6
:106DC00083F3118810BD10B5044690F8763080F832
:106DD0007E3000F07BFE63681B6813B10121204602
:106DE00098470323237010BD00F04EBE01230370AB
:106DF000002300F12C02436000F1480142F8043BFB
:106E00008A429361FAD18360704738B505463023D2
:106E100083F3118800244160C4600461446184618B
:106E2000C46104624462846200F0D0FE02232B70CD
:106E300084F31188204638BD70B53023064683F3AD
:106E4000118800F027FE344600250123756004F800
:106E50000C3B2C3654F8043B7BB1586920B16FF0E1
:106E600001010C30FFF753FD54F8043C986920B140
:106E70006FF001010C30FFF74AFDB44244F8045CA6
:106E8000E8D1FFF7A3FC85F3118870BD70B500EB66
:106E90008103054650690E461446DA6018B1142283
:106EA0000021FBF70BFCA06918B114220021FBF7AD
:106EB00005FC31462846BDE8704000F011BEF8B52B
:106EC00004460027836800F1100503F00113836076
:106ED00000F12C0655F8043B7BB1586920B16FF0E6
:106EE00001010C30FFF713FD55F8043C986920B1FF
:106EF0006FF001010C30FFF70AFDB54245F8047C44
:106F0000E8D12046BDE8F84000F090BEF0B401257D
:106F100000EB8104E4684789A4698D403D434581C5
:106F200023600023A2606360E360F0BC00F0C6BE93
:106F3000F0B4012500EB8104E468078964698D40A1
:106F40003D43058123600023A2606360E360F0BCE1
:106F500000F0D6BE037810B5052B0BD1064CC82027
:106F6000236C43F010032364FFF7C5FC236C23F06C
:106F70001003236410BD00BF005C00402DE9F04108
:106F80000223002504464FF030080370C567856072
:106F900000F10C0600F12C0756F8043BABB188F366
:106FA000118856F8043C586920B16FF001010C308B
:106FB000FFF7ADFC56F8043C986920B16FF0010171
:106FC0000C30FFF7A4FC85F31188BE4246F8045C40
:106FD000E2D184F86450204600F0DCFD63681B6851
:106FE00023B12046BDE8F04100211847BDE8F081FB
:106FF000F8B503780446052B29D080F880300523A6
:10700000037043681B680BB10421984700263027A2
:10701000A66004F10C052C3455F8043BABB187F3A2
:10702000118855F8043C586920B16FF001010C300B
:10703000FFF76DFC55F8043C986920B16FF0010131
:107040000C30FFF764FC86F31188A542E4D1F8BD4B
:107050000178052906D1436890F880201B680270EA
:1070600003B118477047000090F8643070B50446CB
:1070700013B1002380F8643004F17402204600F05C
:1070800003FE63689B68B3B994F8743013F060052D
:1070900039D00021204600F067FE0021204600F094
:1070A00051FE63681B6813B10621204698470623EA
:1070B00084F8643070BD204698470028E4D094F8E6
:1070C0007B2094F87A3043EA0223E26E9A4288BF2A
:1070D000E36694F97430E56E002B4FF0300380F2D4
:1070E000F780002D00F0E680092284F8642083F305
:1070F00011880021E36EA26E2046FFF719FF0023DE
:1071000083F31188D6E794F8752003F07F0343EAF0
:10711000022340F20232934200F0B98025D8022BBC
:1071200000F08D8009D8002B3DD0012BB1D1754BDB
:10713000A3660223E36600233AE0B3F5817F00F003
:107140009380B3F5407F35D0B3F5807FA1D194F81B
:107150007630012B9DD1B4F87C3023F00203A4F8E3
:107160007C30A566E5662567A9E740F20162934297
:1071700009D8B3F5C06F27D2B3F5A06F89D1A56642
:10718000E566614B14E0B3F5106F33D040F6024270
:107190009342CCD0B3F5006F7FF47BAF04F17F0353
:1071A000A366012324E004F17C02A2660222E266C7
:1071B000236784E794F87630012B7FF46AAFB4F844
:1071C0007C3043F00203CAE794F87920616894F8B0
:1071D00078304E6843EA022394F8771094F87620CA
:1071E0002046B04700283FF454AF4368A3660368C5
:1071F000E366B8E72378042B10D1302383F311889A
:107200002046FFF75CFE85F311880321636884F84C
:107210007F501B6821700BB12046984794F8763058
:107220004BB184F87F300423237063681B6813B16B
:107230000221204698470023A366E366B8E794F846
:10724000783020461D0603F00F010AD500F00EFD30
:10725000012804D002287FF41CAF2C4B68E72C4B8C
:1072600066E700F0F5FCF3E794F87630002B7FF446
:1072700010AF94F8783013F00F01DCD01A062046D6
:1072800002D500F099FDD6E700F080FDD3E794F831
:107290007630002B7FF4FDAE94F8783013F00F01B8
:1072A000C9D01B06204602D500F05EFDC3E700F002
:1072B00049FDC0E7142284F8642083F311882B462B
:1072C0002A4629462046FFF721FE85F31188F1E67C
:1072D0005DB1152284F8642083F311880021E36EE8
:1072E000A26E2046FFF712FE09E70B2284F8642005
:1072F00083F311882B462A4629462046FFF718FEBD
:10730000E3E700BF30810008C76D00082C8100084A
:107310002E81000838B590F864300446152B39D812
:10732000DFE803F03E38383838383E38380B293932
:1073300038383838383838383E3E90F87B1090F876
:107340007A20C36E42EA0122934214D2C268128AA2
:10735000B3FBF2F502FB15356DB9302383F31188C9
:107360002B462A462946FFF7E3FD85F311880A23B9
:1073700084F864300EE0142384F86430302383F3FF
:107380001188002320461A461946FFF7BFFD002347
:1073900083F3118838BD036F03B198470023E7E7F3
:1073A000002100F0E1FC0021204600F0CBFC6368E6
:1073B0001B6813B10621204698470623D8E790F8AA
:1073C000642038B5152A044617D80123934040F6A7
:1073D000416213421ED113F480150FD19B020CD5CC
:1073E0000B2380F86430302383F311882B462A4620
:1073F0002946FFF79DFD85F3118838BDC3689B6959
:107400005B68002BF9D1036F03B19847002384F820
:107410006430F2E7002100F0A7FC0021204600F0D4
:1074200091FC63681B6813B1062120469847062328
:10743000EDE700F16043090103F56143C9B283F848
:107440000013012300F01F024009800000F160409A
:10745000934000F56140C0F880310360704701221D
:1074600000F01F039A4043099B0003F1604303F5BA
:107470006143C3F88020C3F88021002300F16040FD
:1074800000F5614080F800337047090100F1604069
:10749000C9B200F56D4001767047062108B508466F
:1074A000FFF7C7FF06210720FFF7C3FF06210820CB
:1074B000FFF7BFFF06210920FFF7BBFF06210A20C7
:1074C000FFF7B7FF06211720FFF7B3FFBDE808401D
:1074D00006212820FFF7ADBF4FF0FF310E4B1A6990
:1074E00019611A6900221A611869D868D960D968C7
:1074F000DA60DA68DA6942F08052DA61DA69DA6908
:1075000042F00062DA61054ADB69136843F4807374
:107510001360FFF7C2BF00BF0010024000700040C0
:10752000194B1A6842F001021A601A689007FCD5DC
:107530001A6802F0F9021A6000225A605A6812F0C2
:107540000C0FFBD11A6842F480321A601A6891035A
:10755000FCD55A6842F4E8125A601A6842F0807208
:107560001A601A689201FCD51221084A5A60084A2A
:1075700011605A6842F002025A605A6802F00C0226
:10758000082AFAD1704700BF0010024000641D00B5
:107590000020024010B5034C2046FFF7EDFB024BE4
:1075A000E36110BDB023002000200240C369064AF9
:1075B00059680A435A605968044A0A435A600022CB
:1075C000034B1A61704700BF23016745AB89EFCDBC
:1075D00000200240C269136943F0800313617047C1
:1075E000004870473481000838B504460079052802
:1075F0000DD003201F252071E06901F10061C560F5
:107600001846FAF7E5FF02230020237138BD012058
:10761000FCE7F7B50479052C43D004241F254FF669
:10762000FF7C0471C469E560256945F001052561A9
:1076300072B31E4621F00105ADF804C005F10065E6
:1076400016F8017B01F001030DF1080E734412F1ED
:10765000FF3203F8047C01F10101334601D0CF076A
:10766000EED4BDF804702F80E668F607FCD4E66817
:1076700006F01F0E16F0100FC4F80CE007D17607C5
:1076800003D42D88ADB2AF42D2D0032200E006224F
:10769000236923F00103236102230371104603B021
:1076A000F0BD0122FAE707207047037910B5052BDA
:1076B000044614D005231F220371C369DA601A69D6
:1076C00042F002021A61FFF727FBE36900F1006054
:1076D000586100201A6942F040021A6110BD012071
:1076E000FCE70379052B0AD1C269D36813F00103C3
:1076F00007D1116921F036011161022202710020C7
:10770000704701200029FBD008607047037910B54D
:10771000052B044612D0FFF7FFFA00F10060031FAB
:1077200000F57F7053F8042F013205D18342F9D15F
:1077300000200223237110BD0520FAE70120FAE79B
:10774000184B9A6942F07D029A619B690268164B58
:10775000DA6082685A6042681A60C26803F5806322
:10776000DA6042695A6002691A608269C3F80C24BF
:10777000026AC3F80424C269C3F80024426AC3F849
:107780000C28C26AC3F80428826AC3F80028026B76
:10779000C3F80C2C826BC3F8042C426BC3F8002C8A
:1077A000704700BF0010024000080140032AF0B5F6
:1077B00028D10161154B9F5C002308221D461C4601
:1077C0001E4611F0800F4FEA04144FEA03134FEAEC
:1077D00006164FEA05150CBF44F00F043B4311F4A5
:1077E000004F0CBF46F00F063D43013A4FEA4101FE
:1077F000E7D1426832402A43426002682240134384
:107800000360F0BD042A08BF4161D3E7508100083E
:1078100040F2CF22044B08215A6000229A600722CE
:107820000B201A60FFF731BE10E000E008B53023EE
:1078300083F31188FEF7CAFE002383F3118808BD85
:1078400008B5FFF7F3FFBDE80840FFF73FB90000B8
:107850000E4B00011B6D10B503F1804303F5C043CF
:10786000C418C358114403F1005303F540535B009F
:107870006260002AA1EB020400DC10BD207864786D
:10788000023A40EA042043F8040BF2E7005C0040AF
:107890002DE9F84F794C676CFA437B05626402D599
:1078A0007748FFF76BFB3E0506D5236C744843F021
:1078B00008032364FFF79CFBFD040AD56F4B9A6C09
:1078C000140406D41A6C6E4822F008021A64FFF7FA
:1078D000BFFBB80504D56A484368DB6803B1984725
:1078E000674D684E61E007F00F00840004F18044AA
:1078F00000F1020804F5B84405EB8803F906226894
:10790000D3F804C042D42268DCF81430324042F488
:107910000042226019695A681F680A44BF1A5A60F7
:1079200017D0BCF81020BA4228BF3A469F681A61A7
:1079300039449960FFF78CFF236823F4F04323F068
:10794000400383F0300343F4004343F0800323609B
:1079500029E0012303FA00F22B8923EA02032B8199
:10796000DCF8083013B1014628469847302383F3EA
:107970001188002105EB8808D8F8043058690C30CC
:10798000FEF7C5FF002383F311880CE0236812057E
:1079900003EA060343F080032360C1B20BD5DCF891
:1079A000043028469847354B5F6C3B049BD4BDE8B8
:1079B000F84FFFF78BB8DCF81820304BD2F808E00E
:1079C0001B6DF04603F1804303F5C04303EB001742
:1079D000BB68FF6803F1005303F54053C7F3090781
:1079E0005B004FEA570903EB890A534508F1020887
:1079F00033D16FF0010808FB0978B8F1000F02D00D
:107A00001B680EF8193093683B44936053683B44FD
:107A100053601368DB1B1360138A013B9BB2138214
:107A2000BCF81220BA4200D803BB012303FA00F2CB
:107A30006B89841C23EA02036B8105EB84035B687A
:107A4000DB680BB128469847302383F3118805EB98
:107A5000840463689869416891E753F804BB08F8A7
:107A600002BC4FEA1B2B08F801BCBEE7236823F4D5
:107A7000904323F0700383F4405364E7005C0040BC
:107A8000D02300200F07FFFF0148FFF7AFB900BF69
:107A9000D023002008B50378012B12D0094B98425F
:107AA0000FD11320FFF7DBFC1420FFF7D8FC0322D3
:107AB000054B1A6403F5DA33DA6922F40002DA615D
:107AC000DB6908BDD0230020005C004090F87E30C8
:107AD000024A43F08003D364704700BF005C00405B
