:020000040800F2
:1020000000040020392200083B2200083B2200087F
:102010003B2200083B2200083B2200083B2200082C
:102020003B2200083B2200083B220008FDAA0008D2
:102030003B2200083B2200083B2200089DC6000806
:102040003B2200083B2200083B2200083B220008FC
:102050003B2200083B2200083B2200083B220008EC
:102060003B2200083B2200083B220008DDBE00089E
:10207000F1BE000805BF000819BF00082DBF000809
:1020800041BF000855BF00083B2200083B22000862
:10209000B1C800083B2200083B2200083B22000890
:1020A0003B2200083B2200083B2200083B2200089C
:1020B0003B2200083B2200083B220008C1C2000866
:1020C000D5C20008F9C200080DC300083B22000871
:1020D0003B2200085DC800083B2200083B220008A4
:1020E0003B2200083B2200083B2200083B2200085C
:1020F0003B2200083B2200083B2200083B2200084C
:102100003B2200083B2200083B2200083B2200083B
:102110003B2200083B2200083B2200083B2200082B
:102120003B2200083B2200083B2200083B2200081B
:102130003B2200083B2200083B2200083B2200080B
:102140003B2200083B2200083B2200083B220008FB
:102150003B2200083B2200083B2200083B220008EB
:1021600072B6264880F30888254880F309882548F8
:1021700025490860022080F31488BFF36F8F08F0B0
:10218000A3F907F03AFD4FF0553020491B4A914220
:102190003CBF41F8040BFAE71D49194A91423CBF84
:1021A00041F8040BFAE71B491B4A1C4B9A423EBFFD
:1021B00051F8040B42F8040BF8E700201849194ABB
:1021C00091423CBF41F8040BFAE708F081F908F0AE
:1021D0007CF9154C154DAC4203DA54F8041B8847C2
:1021E000F9E702F0F1FF124C124DAC4203DA54F859
:1021F000041B8847F9E708F069B9000000040020D3
:10220000000C00200020000808ED00E00000002085
:102210000004002064E70008000C0020D811002012
:10222000D8110020803E00206021000860210008B5
:10223000602100086021000892E700F000F8FEE746
:102240002DE9F04FC1F80CD0C3689D46BDE8F08F72
:10225000002383F311882846A047002008F054FB90
:10226000FEE708F087FA00DFFEE7000053B94AB93D
:10227000002908BF00281CBF4FF0FF314FF0FF308E
:1022800000F074B9ADF1080C6DE904CE00F006F869
:10229000DDF804E0DDE9022304B070472DE9F047E2
:1022A0008C460446089E002B40F086808A421546E4
:1022B00048D9B2FA82F24AB1C2F1200701FA02F318
:1022C00020FA07F7954047EA030C94404FEA154E71
:1022D000BCFBFEF71FFA85F80EFB17C307FB08F9D6
:1022E000210C41EA0343994509D9EB1807F1FF3165
:1022F00080F0E180994540F2DE80023F2B44A3EB61
:102300000903B3FBFEF00EFB103300FB08F1A4B28F
:1023100044EA0344A14209D92C1900F1FF3380F0AB
:10232000C880A14240F2C58002382C4440EA0740F0
:102330000027641A1EB10023D440C6E90043394681
:10234000BDE8F087002A54D0B2FA82F2002A40F0A9
:10235000B4800127491B4FEA15481FFA85F9B1FBE4
:10236000F8FE08FB1E1109FB0EF04FEA144C4CEA74
:102370000143984207D9EB180EF1FF3102D298427F
:1023800000F2EB808E461B1AB3FBF8F008FB10330B
:1023900009FB00F9A4B244EA0344A14507D92C196A
:1023A00000F1FF3302D2A14500F2DB801846A4EB16
:1023B000090440EA0E40BDE78B4208D9002E75D0D3
:1023C0000027C6E9000138463946BDE8F087B3FA70
:1023D00083F77FB98B4202D3824200F2BC80841A19
:1023E00061EB030301209C46002EA8D0C6E9004CF7
:1023F000A5E7FFDEC7F12005BB4022FA05FC4CEA49
:10240000030C21FA05F44FEA1C4EB4FBFEF91FFA47
:102410008CF80EFB194420FA05F3B94009FB08FAC1
:1024200019430B0C43EA0444A24502FA07F200FAEE
:1024300007F30BD91CEB040409F1FF3080F089800D
:10244000A24540F28680A9F102096444A4EB0A0483
:10245000B4FBFEF00EFB104400FB08FA89B241EA1F
:102460000444A24508D91CEB040400F1FF316CD2EE
:10247000A2456AD90238644440EA0940A0FB0289B7
:10248000A4EB0A044C454146CE4655D352D0002E0B
:102490006AD05A1A64EB0E0404FA05F522FA07F31F
:1024A000FC401D43C6E90054002748E73746304644
:1024B00045E718463AE70F4621E79540C2F1200369
:1024C00021FA03F04FEA1548B0FBF8F71FFA85F937
:1024D00008FB170E24FA03FC914007FB09FA4CEAAB
:1024E0000101080C40EA0E40824504FA02F407D9C3
:1024F000281807F1FF332AD2824528D9023F284401
:10250000A0EB0A00B0FBF8FC08FB1C000CFB09F375
:1025100089B241EA00418B4208D969180CF1FF30B9
:1025200011D28B420FD9ACF1020C2944C91A4CEAE2
:10253000074714E74345AAD2B8EB020169EB0C0246
:1025400001389646A3E78446F0E7084694E71F461D
:10255000D6E781467AE7384646E7AEF1020E2B44CD
:1025600011E702382C4422E73746E8E6704700BFFF
:10257000032A70B412D940EA0105AD0704460B46A0
:1025800020D11946204653F8045B54F8046BAE4240
:1025900018D1043A032A20461946F2D8541E72B1C3
:1025A00003780A789A4208BF241806D00CE010F885
:1025B000013F11F8012F934206D1A042F7D100202C
:1025C00070BC7047541EEBE7981A70BC704700BF90
:1025D000844641EA000313F0030349D1403A23D370
:1025E0000B6803604B6843608B688360CB68C36093
:1025F0000B6903614B6943618B698361CB69C3617B
:102600000B6A03624B6A43628B6A8362CB6AC36262
:102610000B6B03634B6B43638B6B8363CB6BC3634A
:1026200040304031403ADBD230320BD30B6803608C
:102630004B6843608B688360CB68C3601030103197
:10264000103AF3D20C3205D351F8043B40F8043B66
:10265000043AF9D2043208D0D2071CBF11F8013B6A
:1026600000F8013B01D30B8803806046704700BF30
:10267000082A13D38B07B1D010F00303AED0C3F1F7
:102680000403D21ADB071CBF11F8013B00F8013B21
:10269000A4D331F8023B20F8023B9FE7043AD9D398
:1026A000013A11F8013B00F8013BF9D20B780370B5
:1026B0004B7843708B78837060467047F0B4860720
:1026C00046D0541E002A3CD0CAB2034602E014F1A0
:1026D000FF3436D303F8012B9D07F8D1032C29D9F9
:1026E000CDB245EA05250F2C45EA054533D9A4F1BD
:1026F0001006360903F1200707EB061703F1100255
:1027000042E9045542E902551032BA42F8D1721C2E
:1027100014F00C0F03EB021204F00F0613D0331F5A
:1027200023F003030433134442F8045B9342FBD1C8
:1027300006F003042CB1C9B21C4403F8011B9C42EF
:10274000FBD1F0BC704734461346002CF3D1F8E7B8
:1027500014460346C2E71A462646E0E720F0030186
:1027600010F00300C0F1000051F8043B00F1040C2C
:102770004FEACC0C6FF000021CBF22FA0CF213439C
:102780004FF0010C4CEA0C2C4CEA0C4CA3EB0C0265
:1027900022EA030212EACC1204BF51F8043B0430CF
:1027A000F4D0C2F1000102EA0102B2FA82F2C2F1EF
:1027B0001F0200EBD200704710B5044602F062FB26
:1027C000002814BF2046022010BD0000002101484F
:1027D00004F04CBA51CF00082DE9F043A1B002F04B
:1027E00051FB002800F0B6805D4802F0E7FF06F0DC
:1027F00053FA00216D465B4E0746084604F078F90F
:10280000594A33682846134419460022A846C7F39C
:102810008704A242C0F286802146DFF86CE1DFF82F
:102820006CC113F801901EF8010B1CF8012B00EA93
:10283000090002436A5401318029F2D1284604F08C
:1028400025FA0121002004F053F9484A336829464B
:1028500013441846002294426ADC2146DFF830E136
:10286000DFF830C113F801901EF8010B1CF8012BA2
:1028700000EA090002436A5401318029F2D1284656
:1028800004F004FA0221002004F032F9384A3368D7
:10289000294613441846002294424FDC2146DFF8B3
:1028A000F8E0DFF8F8C013F801901EF8010B1CF8EF
:1028B000012B00EA090002436A5401318029F2D158
:1028C000284604F0E3F90321002004F011F9294A15
:1028D0003368134419460022944235DC264D2748BC
:1028E00013F804C015F8011B10F8012B01EA0C01C4
:1028F0000A4308F804200134802CF1D121464046D7
:1029000004F0C4F90F22B7FBF2F7336801331F4418
:1029100007F0FF0737601A4802F050FF002021B08F
:10292000BDE8F08311F801CB013200F801CB70E76C
:1029300010F801CB013201F801CB8CE710F801CB84
:10294000013201F801CBA7E711F8010B013205F8BC
:10295000010BC1E70B4802F031FFFFF737FFDAE761
:1029600091D10008D811002050D50008D0D6000819
:1029700050D80008D0D9000811D10008D0D40008E0
:102980009ED1000898D1000891CF000850D30008CC
:1029900011D00008D0D3000891D0000850D400080E
:1029A00008B5024802F00AFF012008BDA2D10008C4
:1029B00001280BD8012909D8012A07D801EB4001C9
:1029C000034B02EB410233F81200704701207047BD
:1029D00050DB0008A0F58073B3F5F85F10B526D280
:1029E00010F4805F00F4007400F4807300F48061E0
:1029F00000F400620DD0002B0CBF002010200CB1A1
:102A000040F0200009B140F040000AB140F08000E1
:102A100010BD181C18BF01200CB140F0020009B114
:102A200040F00400002AF3D040F00800F0E7002056
:102A3000EEE710B50C46FFF7CDFF2346BDE810408A
:102A400018470000A0F1E003072B10B5044600D999
:102A500040B920460449FFF7ECFFE0B2BDE8104062
:102A600000F02ABA0149F6E7E12F00080530000816
:102A700010B50446C0B200F05DFAA4F1E003072BE4
:102A800000D92CB903492046BDE81040FFF7D1BF5B
:102A90000149F8E7F32F00081730000801207047BC
:102AA0000120704708B5FFF7FBFF08BD0120704704
:102AB0000120704708B5FFF773FF08BD70477047E6
:102AC00008B5FFF7FCFF08BD01207047704770474D
:102AD00013B502AB03E903000F4B1B78B3B99DF8A4
:102AE0000530009873B16AB100F0B6FE04460146A5
:102AF000009800F081FE2046009902B0BDE8104029
:102B000001F096BE00F092FE0446F4E7009800F053
:102B1000A3FE0099F1E700BFE11100200346008900
:102B200010B40A4638B95C881888998840EA04408D
:102B300010BCFFF7CDBF10BC704710B50446012193
:102B4000FFF7ECFF2146FFF7A9FF18B9002000F0BE
:102B5000010010BD01212046FFF7E0FF2146FFF7ED
:102B6000A1FF0028F2D001212046FFF7D7FF214620
:102B700004F0B6FDEBE738B500210446FFF7CEFFC1
:102B800005462146FFF79AFF21462846FFF798FFA2
:102B900038BD012303FA00F0C0B200F08EBD10B5BD
:102BA00004460120A040C0B201F0DBFB2046BDE896
:102BB0001040FFF7EEBF0120704708B5FFF7FBFF9D
:102BC00008BD10B5044600F043FA2046FFF77CFF2D
:102BD0002046FFF7F2FFBDE8104046F2A81007F0CC
:102BE00098BE08B50120FFF7ECFFBDE8084006F0ED
:102BF0008FBB08B50020FFF7E4FFBDE8084006F0F2
:102C00008BBB38B504460D4605F030FE20B10121DE
:102C10002846FFF783FF04466B7913B1204606F080
:102C20005DF829462046FFF743FF08B9002038BD6C
:102C300029462046FFF73EFF0028F7D029462046C8
:102C400005F04EFF0028F1D02946204603F094FC01
:102C50000028EBD02946204605F0BCF90028E5D035
:102C60002946204605F01EFE0028DFD029462046D2
:102C700004F0BAFA0028D9D02946204605F06EFDA6
:102C80000028D3D02946204605F0F2FA0028CDD0FE
:102C90002946204605F09CF80028C7D02946204642
:102CA00005F072FE0028C1D02946204601F0FAFE48
:102CB0000028BBD06B795BB147F603439C421DD023
:102CC0000AD8B4F5F84F16D047F601439C4217D006
:102CD0002846FFF7EBFEAAE747F65B439C4215D078
:102CE00047F65C439C420ED047F65A439C42EFD1D4
:102CF00001F012FBECE7FFF774FF97E701F012FB1E
:102D0000FFF777FF92E701F0FBFAE1E701F007FB3D
:102D1000DEE710B504460121FFF700FF2146BDE8BC
:102D20001040FFF76EBF08B5FFF7D0FE06F03DFA82
:102D300000F042F8BDE8084004F0C0B808B500F063
:102D400040F8FFF7C4FEBDE8084006F033BA0309B7
:102D50001CBF1846042382081EBF10460233DBB294
:102D600042081CBF0133DBB218467047030943EA2F
:102D70000010C0B28300801000F0330003F0CC03D9
:102D8000034358005B1003F0550300F0AA001843FA
:102D9000704701207047704738B50546FFF7F9FFC7
:102DA000044610B12846FFF7F6FF204638BD7047AD
:102DB00008B5FFF7F1FF08BD08B50020FFF7F8FFE1
:102DC00008BD08B506F018F8FFF7F2FF08BD0000CF
:102DD00010B506F011F8074B04461A78824207D066
:102DE000187006F047FA044B18602046FFF7E0FF22
:102DF00010BD00BFE0110020DC11002030B587B00D
:102E00006C4684E803009DF804309DF80550002BC3
:102E100039D094E803000022FFF75AFE1E4B35B16B
:102E200000211E4A1880117001F0EEF805E01B88A1
:102E3000834202D10122194B1A700023ADF81230DF
:102E4000ADF81430164B94E803005B7803905B07F1
:102E5000ADF810100DD5134B5B8853B101F07EF81F
:102E600010B1022001F01CFA01F056F808B101F08F
:102E70005DF99DF8103003AC43B994E8070000F009
:102E8000E1FF07B030BD002DD7D0CDE72046FFF7DA
:102E900054FE0028F1D1F4E7E2110020E6110020F1
:102EA00004360020543700200379012B02D100881A
:102EB00000F0F4BC7047000010B50446A8B3031F2F
:102EC000DBB2A02B0ED806F01BF820B1204606F08E
:102ED000A5F801F09FF9204606F082F8BDE8104001
:102EE00001F098B900F12003DBB2072B07D800F0FE
:102EF00007040120A040C0B201F05AF8EEE700F14B
:102F00005B03DBB2022B05D8BDE81040074AD05C5A
:102F100005F098BF5834E4B21A2C06D8044B33F8A5
:102F20001400BDE8104005F0A9BF10BD60DB00082B
:102F300064DB000808B5034648B3021FD2B2A02ADA
:102F400005D806F06BF8BDE8084001F063B900F160
:102F50002002D2B2072A07D800F0070301209840C8
:102F6000C0B201F02DF8EEE700F15B02D2B2022A06
:102F700004D8BDE80840002005F064BF5833DBB238
:102F80001A2B04D8BDE80840002005F077BF08BD23
:102F900070B50C460546FFF78FFF84B140F2E7306D
:102FA0000021084E4FF47A720023E6FB0401FFF77C
:102FB0005DF907F0AEFC2846FFF7BCFF70BD0120AD
:102FC000F7E700BFA086010008B5044B39280CBF05
:102FD000198CD98BFFF7DCFF08BD00BF54370020E8
:102FE00008B528B100F0E4FFBDE8084001F012B9CF
:102FF00008BD08B528B100F0E3FFBDE8084001F0C6
:1030000009B908BD08B528B100F0EEFFBDE80840D9
:1030100001F000B908BD08B528B100F0EDFFBDE82A
:10302000084001F0F7B808BD08B5002005F00AFF18
:10303000002005F023FF00F0E7FFBDE8084001F0A5
:10304000E9B808B506F008F8BDE80840FFF7ECBF9E
:1030500008B500F0BDFFBDE80840FFF7F2BFC0F3C0
:1030600003320E3202F00F02092A10B5C4B21BD887
:10307000012101FA02F340F20332134203D113F0AB
:1030800010000DD110BDF02C10D004D8E72C8CBF4F
:1030900000200120F6E7F42C14BF00200120F1E706
:1030A000E72C03D9F12CF7E70020EBE70846E9E726
:1030B00008B50346007958B1188928B101F0DEFA45
:1030C000BDE80840FFF7CBBF188800F0E7FBF7E743
:1030D00008BD00002DE9F74FEA46814606220C465E
:1030E00001465046FFF774FA99F8066099F80550C2
:1030F00000F04EFF3609804618B3A8460DB3C4F35E
:10310000072303F0F002402A0CD0E1B201F12002C3
:10311000D2B2072A27D903F0E003202B02D10129DC
:1031200021D91EB3AB4B93F8018018F0040808D0E6
:10313000022001F0B5F800F02BFF80F001005FFAEB
:1031400080F8C4F303330B2B44D8DFE813F01100ED
:10315000110075007500020143004300430018018F
:103160007B018C018C014FF00008EAE7B046E8E7EC
:10317000C4F30723C4F3032713F0F00F18BF3F0174
:103180005FFA84FB95B167B10BF12003DBB2072B2B
:10319000384602D9BBF1000F05D100F009FF01F05C
:1031A00039F8584669E000F01FFFF8E75846FFF786
:1031B000C1FE7FB10BF12003DBB2072B384602D9E9
:1031C000BBF1000F02D100F0FBFE01E000F014FFA4
:1031D00001F020F8C4F30333083B032B05D805F0B6
:1031E0000BFEFFF7E5FD4FF000082046FFF737FF25
:1031F00040B1002D00F0D081002E00F0C5810022EA
:10320000754B1A70B8F1000F00F0F68100F09EFEC9
:1032100010F0010040F0F08189F8050000F090FE08
:1032200000F07EFA484600F00FFA00F089FE03B085
:10323000BDE8F04F00F080BAC4F3072303F0F003B9
:10324000C4F30327202B5FFA84FB18BF3F01BBF1B7
:10325000000F06D0BBF1010F4ED0002D5BD0C6B1E0
:103260009FE75C4B5B785A0711D44DB127B13846C4
:1032700000F09EFE00F0CEFF0020FFF71DFEA9E744
:103280002846FFF757FE002FA4D038469BE7D5B15C
:103290001EB93846FFF7A4FE9CE7012E03D138463D
:1032A00000F0FEFE96E74D4B1B7F012B92D9B342F7
:1032B00090D13846FFF794FE384600F007FF3846B5
:1032C00000F0CCFE86E74EB93846FFF792FE38464E
:1032D00000F0FCFE384600F0CFFE7BE73F4B1B7F43
:1032E000012B7FF677AF012E7FF474AF00F05AFE0A
:1032F00038423FF46FAFE7E7384B93F822301DB107
:103300009E423FF667AFC4E79E42BFF463AF3846C4
:10331000FFF76FFE5EE7002EF9D0BBF1390F2F4BA0
:1033200015D11F8C67B140F2E7300021DFF8B0C043
:103330004FF47A720023ECFB0701FEF797FF00E0E1
:10334000012007F0E6FA5846FFF7F4FD42E7DF8B6D
:10335000E8E7C4F3812343B1012B7FF43BAF65B1B0
:10336000C4F3090005F08AFD34E725B1C4F3090070
:1033700005F068FD2EE72846FAE72846F2E714F440
:10338000407F2FD1002D7FF425AFC4F34210800081
:10339000C3B204F00F009840C2B214F010001EBF78
:1033A0000F209840C043C4F3812318BFC0B2022B42
:1033B00040EA020008D00AD8012B02D000F088F9B8
:1033C00008E700F07DF905E700F08AF902E700F070
:1033D00074F9FFE604360020E6110020543700207F
:1033E000A0860100C4F30122D3B205B302F00103A9
:1033F000002B3FF4EFAEC4F342108000C3B204F0E0
:103400000F009840C2B214F010001EBF0F20984069
:10341000C043C4F3812318BFC0B2022B40EA0200AC
:103420000AD00CD8012B04D000F0A6F9D2E65B0834
:10343000DEE700F099F9CDE600F0A6F9CAE600F063
:103440005DF9C7E65FFA84FBC4F3032725B138466C
:1034500000F066F958461DE75846FFF7CAFD3846A2
:1034600000F06AF9B6E6E7B2A7F1F003042B63D8DF
:10347000DFE803F00327131A2300614B93F822308F
:103480003DB19E42BFF4A6AEC4F3042000F060F943
:10349000A0E69E423FF69EAEF6E7C4F30420002D60
:1034A000DED100F03DF995E625B1C4F3042000F02B
:1034B00030F98FE600F02AF98CE6524B5B785B0717
:1034C00004D4C4F30420002DCAD0EAE74C4F3B7F5C
:1034D000012B20D9ADB100F039FD042808D100F04E
:1034E000D1FEC4F3042000F027F94FF0000871E684
:1034F0003B7FB342F9D90321C4F3042000F0A4FEBA
:10350000F3E7B34203D800F0BDFE0421F4E7012045
:1035100000F0C6FEE9E72DB10321C4F3042000F05A
:1035200093FE57E6012000F0BBFE012E7FF652AE5F
:10353000022000F0B5FE4DE62DB10EB138469CE6F6
:10354000C4F30420ADE7E6B1392F2D4B16D1B3F803
:1035500020C0BCF1000F0CD040F2E7300021DFF8B2
:10356000B8E04FF47A720023EEFB0C01FEF77EFE0A
:1035700000E0012007F0CDF93846E5E6B3F81EC0BB
:10358000E7E7C4F304206BE71F4C204B22781A7046
:1035900000F008FD207035E68DF805502A469AE8BF
:1035A0000300FFF795FA054600F0FCFC07462EB134
:1035B0000022174B1A70144B1F7023E6154B188806
:1035C000A842F8D1494603F073F90028F0D0104B17
:1035D0001B78002BECD00D4D2878FFF701FD012062
:1035E00007F097F9E0B2FFF7EFFC012007F091F93F
:1035F0002878FFF7FEFCDBE703B0BDE8F08F00BFE3
:103600005437002004360020E5110020E41100208A
:10361000E6110020E2110020A086010038B5044622
:10362000008960B101F02AF8054600F0B5F800F015
:1036300043F829462046BDE83840FFF74BBD2188B6
:10364000607900F037F9EFE7037910B50446B3B1BC
:10365000FFF75FFB68B900F09BFC80B1637973B141
:10366000074B5B785B070AD5BDE81040022000F0ED
:1036700017BE2046FFF7D2FF2046FFF77CFA10BDA9
:103680000436002082B002AB03E9030002B07047A9
:1036900084B004AB03E9070004B07047704708B575
:1036A000FFF7FCFF08BD000008B5FFF7F8FF014B6E
:1036B000187008BDE71100207047FFF7F5BF000044
:1036C000024B1B781843FFF7EFBF00BFE711002044
:1036D000024B1B781840FFF7E7BF00BFE71100203F
:1036E000024B1B785840FFF7DFBF00BFE7110020F7
:1036F000704708B5FFF7FCFF08BD000008B5FFF7ED
:10370000F8FF014B187008BDE81100200020FFF7FA
:10371000F5BF012303FA00F0C0B2FFF7EFBF0000CE
:10372000012303FA00F0034B1B781843C0B2FFF7E4
:10373000E5BF00BFE8110020012303FA00F0034BAE
:103740001B7823EA0000FFF7D9BF00BFE811002073
:10375000012303FA00F0034B1B785840C0B2FFF777
:10376000CDBF00BFE8110020024B1B781843FFF7C4
:10377000C5BF00BFE8110020024B1B781840FFF7BF
:10378000BDBF00BFE8110020024B1B785840FFF777
:10379000B5BF00BFE8110020704701F00703C9085A
:1037A00030B501EB4101012401390A4400219C405C
:1037B000E4B212F8015F20FA01F343F300036B4017
:1037C000234001316B4003291370F2D130BD002238
:1037D00010B500F00704C00800EB4000014410469B
:1037E0008B5CE34003F00103934001321843032A4A
:1037F000C0B2F5D110BD000017B40C46C0F30721CC
:103800000129ADF804000BD89DF80430012B07D82E
:103810002046054A03EB410103B010BCFFF7BDBFD2
:1038200003B010BC704700BFE911002082B0ADF8B2
:103830000400C0F30720012809D89DF80430012BAB
:1038400005D8044903EB400002B0FFF7C0BF0020D9
:1038500002B07047E911002073B503240D4BADF899
:1038600004001E780C4B1B781E4346FA04F3DB075A
:10387000E5B206D414F1FF34F7D20025284602B091
:1038800070BD0199284600F0F3FF80B20128F1D005
:10389000F4E700BFE8110020E711002007B5ADF8FC
:1038A00004000198FFF7D8FF019903B05DF804EB1D
:1038B00000F0DEBF13B5104BADF804101B782BB130
:1038C000019802B0BDE81040FFF7E8BF70B1019861
:1038D000FFF7C2FF044601460198FFF78DFF20461F
:1038E000019902B0BDE8104000F0C2BF0198FFF797
:1038F0009DFF0446F3E700BFE111002010B501244D
:1039000004FA02F204FA01F11143C9B231EA0002E9
:1039100004FA03F306BF1843C0B2984310BD000079
:1039200008B513460A46014603480078FFF7E6FF4C
:10393000BDE80840FFF7E2BEE8110020F8B50A270D
:103940000D4B0E4E1C780E4D3378A34200D1F8BDBE
:1039500007FB04F2AB18A85AB3F802C09A88D988BA
:1039600040EA0C4042EA014101341A89FFF790FE17
:1039700004F00704E8E700BF4712002046120020C9
:10398000F6110020064B10B49A885C881888D988F4
:1039900040EA044042EA014110BC1A89FFF778BEB0
:1039A000EC110020F0B50A270D4B0E4A1B78167853
:1039B0000D4CB34202D100221046F0BD07FB03F5C7
:1039C000621992F801C08C4505D1655D854202D12E
:1039D0005279002AF0D1013303F00703E9E700BF71
:1039E0004712002046120020F61100202DE9F04772
:1039F000204CA37913F0F00F0CD1637953B1A0469A
:103A00001D4BDFF878A01D78DFF874909AF800302D
:103A1000AB4201D1BDE8F0870A236B4309EB0306F3
:103A2000327912B339F8032023889A421DD1717973
:103A3000D9B9638877884046FF1AFFF76FF8414687
:103A400002F078FDBFB287420FD20122A379094864
:103A500062F30713A371B37962F30713B371FFF72E
:103A6000F3FDBDE8F047FFF769BF013505F0070535
:103A7000CCE700BFEC1100204712002046120020C6
:103A8000F61100202DE9F04F04468DB0B84D0146E7
:103A9000062204A8FEF79CFD297922796779A946B8
:103AA000E1B922B9012630460DB0BDE8F08F8FB1E3
:103AB0002046FFF7FDFA064660B10A222146284655
:103AC000FEF786FD2846FFF7EFF9FFF78FFFFFF7B8
:103AD00059FFE8E72046FFF7B7FDE3E72378002129
:103AE00028460392019394F801A0B4F80280FFF7EE
:103AF00015F86E790290039A002E00F0ED800021F7
:103B00002846B5F802B0FFF709F8294602F012FD81
:103B1000A8EB0B0B1FFA8BFB8345039A80F089807F
:103B2000002ABFD0AA79288812F0F00F218842D14C
:103B3000884213D12889218988420FD1002F40F073
:103B40007081012363F30712AA71FFF71BFF284658
:103B5000FFF77AFDAB79A3710026A4E7002F40F0B0
:103B6000608151460198FFF71DFF002800F0288171
:103B70007F49029802F080FE002800F021817C48F5
:103B8000FFF762FD0A2200217948FEF797FDFFF753
:103B9000F9FEE1E710F4706F00F03981A27912F0BC
:103BA000F00F40F034812E467DE7EF2BFBD90F3329
:103BB000DBB2022B2EE188420ED12889218988426E
:103BC0000AD14FB9A2712046FFF73EFD0A222146D5
:103BD0002846FEF7FDFC7AE72046FFF769FA002841
:103BE0003FF478AF002F3FF475AF99F806201F2AF5
:103BF00015D9B9F80010B9F80830ADF8181099F8CF
:103C00000410ADF81A808DF81C1000218DF81E20CC
:103C10008DF81D10ADF8203006A8FFF715FD0A221B
:103C200021465348FEF7D4FCFFF7E0FEFFF7AAFE5B
:103C300038E7A97911F0F00B16D1019B8DF814200B
:103C40008DF810308DF811A004ABADF812808DF80E
:103C5000157093E80300FFF715FD2846FFF7F4FC05
:103C60000A225946284690E7002A3FF41BAF2888CD
:103C7000228890420ED12889228990420AD14FB9D8
:103C8000A1712046FFF7E0FC0A2239462846FEF7DC
:103C900015FD08E72046FFF70BFA00283FF41AAF9E
:103CA000002F3FF417AF99F806201F2AB7D9B9F8AB
:103CB0000010B9F80830ADF8241099F80410ADF8E8
:103CC00026808DF8281000218DF82A208DF82910E3
:103CD000ADF82C3009A8A0E7314628460292B5F885
:103CE00002B0FEF71BFF294602F024FCA8EB0B0BE9
:103CF0001FFA8BFB8345029A4CD2002A3FF4D2AEC6
:103D00003E46002F3FF4E6AE29882288914231D109
:103D10002989228991422DD16A8800212846A8EB61
:103D20000208FEF7FBFE294602F0B8FD1FFA88F8EC
:103D3000804517D2AA79D30714D412F0F00211D01B
:103D4000AB79F02AA37106D0DBB2C3F303120132C0
:103D500062F30713A3712046FFF776FC0A2221467F
:103D6000034836E70A2221460148FEF731FC9AE66D
:103D7000EC1100202046FFF79BF900287FF44FAF9D
:103D800099F80620204642F0010289F80620FFF744
:103D90005BFC88E6019B8DF814208DF810308DF8BF
:103DA00011A0ADF812808DF8157004AB93E80300F4
:103DB000FFF768FC0A2231462846FEF77FFC86E6BC
:103DC00051460198FFF7EEFD054600287FF4C4AE8A
:103DD000019B8DF811A08DF810300498FFF75EFD5F
:103DE000C0F303310B2917D801228A4012F4406F27
:103DF000C3B27FF4DAAE12F00C0F7FF4CBAE9207B1
:103E00000AD010F4706F02D0002B3FF4CCAE2033F8
:103E1000DBB2072B7FF6C7AE2046FFF715FC354611
:103E2000C1E699F80620064942F00102029889F895
:103E3000062002F029FD00283FF48EAE9FE600BF69
:103E4000EC110020F0B589B001AC84E807002046F1
:103E5000FFF718FE294E0746294D70B19DF808302E
:103E60001BB194E80700FFF713FC0A24254F2878BC
:103E70003378834226D109B0F0BD05AB94E8070042
:103E800003C31A809DF80830002BEED033782A78CF
:103E90005C1C04F0070494420AD00A22194805A9C0
:103EA00002FB0300FEF794FB3470FFF747FDDCE7ED
:103EB000FFF7CEF80A223946134837702F70FEF705
:103EC000FDFBD2E704FB0070FFF7DCFD0028D2D039
:103ED0002A786243BB18B85AB3F802C09A88D988C6
:103EE00040EA0C4042EA01411A89FFF7D1FB2B78E6
:103EF000013303F007032B70B9E700BF461200201F
:103F000047120020F6110020EC110020014B187818
:103F1000704700BF9C12002010B5074C608850B15C
:103F200005F0DEF9054B1B88C01A638880B2834216
:103F30008CBF0020012010BD543700209E120020AD
:103F4000014B1878C008704798120020024B18786F
:103F500000F00700704700BF9812002008B505F078
:103F6000BFF9084B1B88C01A074B80B25B8883429D
:103F700097BF064B0020187880F0040098BFC0F36C
:103F8000800008BD9A1200205437002098120020AB
:103F9000034B187810F0070018BF0120704700BFCE
:103FA00098120020014B1878704700BFA012002023
:103FB000024A137818431070704700BFA012002007
:103FC000024A137823EA000010707047A012002004
:103FD0000022014B1A707047A0120020014B187884
:103FE000704700BFA2120020024A137818431070D5
:103FF000704700BFA2120020024A137823EA000093
:1040000010707047A21200200022014B1A707047F6
:10401000A2120020014B1870704700BFA3120020AD
:104020000022014B1A707047A3120020014B187038
:10403000704700BFA11200200022014B1A70704788
:10404000A1120020014B1878704700BF9D1200207C
:10405000704708B5FFF7FCFF08BD000008B5054A2A
:10406000137830EA030103D018431070FFF7F1FF13
:1040700008BD00BF9C12002008B5054A1378034212
:1040800004D023EA00001070FFF7E3FF08BD00BF73
:104090009C120020704708B5FFF7FCFF08BD000028
:1040A00038B5084D04462B7830EA030309D005F0F3
:1040B00017F9054B18802B78204623432B70FFF708
:1040C000EAFF38BD9D1200209E12002010B5084C5A
:1040D000237803420AD023EA0000207008B105F0DB
:1040E000FFF8044B18802078FFF7D5FF10BD00BF04
:1040F0009D1200209E12002038B5094B04465B78C3
:104100005B070BD5074D2B78834207D005F0E8F805
:10411000054B2C7018802046FFF7BDFF38BD00BF4F
:10412000043600209D1200209E12002008B5054B89
:104130001A782AB100201870034B1880FFF7ABFFE4
:1041400008BD00BF9D1200209E12002038B50F4B05
:104150000F4D1C780F4B2A781878044372B10E4B20
:104160005B8823B1FFF7D8FE08B1FFF7DFFF2B789C
:104170001C4304F09FFE08B1FFF7D8FF074B084A25
:104180001B78107824EA0304204338BDA0120020D5
:104190009D120020A212002054370020A1120020FE
:1041A000A312002038B50B4C2568FFF7CFFF28700D
:1041B0002468082208492046FEF7DAF948B121466A
:1041C00008220548FEF704FA2046BDE8384004F00E
:1041D00027BE38BD000C00207012002038B50B4CF3
:1041E0002568FFF7B3FF687024682022084920463D
:1041F000FEF7BEF948B1214620220548FEF7E8F94E
:104200002046BDE8384004F013BE38BD040C002041
:104210007812002008B504F099FF012808D1064B58
:1042200093F90030002B03DABDE80840FFF7D6BF52
:10423000BDE80840FFF7B6BF04360020704708B558
:10424000FFF7FCFF08BD00000B4A10B5527852077B
:104250000ED50A4C41EAC0012170FFF761FA05F062
:104260003FF8074B18802078C008FFF7E8FF10BD23
:10427000BDE81040FFF754BA043600209812002021
:104280009A120020002008B5034B1870034B1880C9
:10429000FFF7D5FF08BD00BF981200209A1200203A
:1042A00008B50A4A137823EA0000107042070CD1BF
:1042B00098420AD0064B5B785B0706D5C008FFF72B
:1042C0003BFABDE80840FFF7DDBF08BD98120020AB
:1042D00004360020094A08B55378C3F380018142AF
:1042E0000AD060F382035370108800F041F8BDE8F3
:1042F00008400220FFF7D4BF08BD00BF04360020ED
:10430000044B5878C0F3800080F0010000F00100F9
:10431000FFF7E0BF043600200120FFF7DBBF0020DD
:10432000FFF7D8BF08B5002001F0E9FABDE8084062
:104330004FF6FF71002001F0C4BA08B5002001F06B
:1043400059FA4FF6E563984203D1BDE8084004F0FE
:104350006EBB002008BD022001F03DBA032001F031
:104360003ABA0146032001F09EBA042001F042BA95
:104370000146042001F0A5BA01460F2001F0AFBAB2
:104380000146132001F0ABBA0020FFF7F9BF08B5D2
:104390000020FFF7F1FFFFF7F7FF08BD07B500208A
:1043A00001F0ADFA4FF6E561002001F08AFA002134
:1043B000022001F078FA01201B4B1870FFF7D1FFA3
:1043C0004FF4A051042001F07CFA0021062001F0F6
:1043D0006AFA0021072001F066FA0021082001F0A6
:1043E0007EFA0021232001F05EFA00210C2001F06A
:1043F0005AFA00210D2001F056FA002300226846E7
:10440000CDE900231721082201F033FA00211F20F3
:1044100001F065FA002004F01FFB04F042FBFFF7F7
:10442000B6FF03B05DF804FBE7110020FFF7B6BF4D
:1044300001460E2001F037BA73B504F051FF0B4C62
:104440000546238883420ED00026ADF8006004F0B4
:1044500047FFADF80460ADF8020002AB13E90300BA
:10446000FEF7CCFC258002B070BD00BFAC1200206E
:1044700008B500F007FB024B1860024B186008BD3E
:10448000A4120020A81200207047704708B5FFF75B
:10449000FCFF08BD704708B5FFF7FCFFFFF7F6FF0C
:1044A00008BD704708B5FFF7FCFF08BD704708B5A9
:1044B000FFF7FCFFFFF7F6FF08BD01207047000083
:1044C00008B5074800F000FB01F017FA01F0F8FD0D
:1044D00002F02CF9FFF7D8FFBDE80840FFF7DBBF7B
:1044E0008D9B000800F0CEBC70477047704708B540
:1044F000FFF7FAFFFFF7F9FFFFF7F8FF08BD00002D
:1045000008B5FFF71AFF08B9FFF790FFFFF723FF81
:10451000084B1870FFF729FF074B188002F080FF47
:10452000FFF71CFFFFF7C9F8044B1878BDE80840F7
:10453000FFF7DFB8B012002004360020E811002099
:1045400008B504F095FE00F089FA04F0BAFA00F01C
:10455000A3FC00F0EDFBFFF7D3FFFEF728FC03F010
:1045600013FA002002F060FA00F0AEFCBDE808404B
:10457000FFF79DBF08B500F085FC58B103F010FDB2
:1045800004F0DEF903F060F804F0BEFBBDE808407B
:1045900002F0E2BD08BD00002DE9F04F85B0FFF745
:1045A0008CFF074670B9FFF747FF0027FFF7E2FFD0
:1045B00002F0B0FC0FB102F091FB05B0BDE8F04F86
:1045C000FEF706BC2B4C00F0E9FB0020257800F03C
:1045D00091FA854205D10120647800F08BFA84427B
:1045E000E1D0254B1B789B0701D500F089FAFFF736
:1045F00079FF4FF00008DFF87CB000905FFA88F98F
:10460000484600F077FA1BF8015B0646A84226D020
:10461000002201244540EDB20DF1080A2C4219D0C8
:10462000009BBBB18DF8082001928DF8099004F031
:1046300057FE344214BF012100214FF00103ADF8B1
:104640000A008DF80C308DF80D109AE80300FEF783
:10465000D5FB019A6400E4B252B10BF8016CB8F1D9
:10466000000F02D0FFF704FFA0E74FF00108C5E7F5
:104670000122D3E7AE120020B012002038B500F0BE
:1046800003F9B0F5A04F044622D2B0F5804F77D29F
:10469000DF2812D8CD2861D2A7280AD8A5284ED263
:1046A000012804D003B233B1032898BF0024204668
:1046B00038BDC2284AD90024F9E7B0F5005F80F080
:1046C000A280B0F5807F4DD2E82828BF0024EEE715
:1046D00045F25F23984216D845F2402398425FD2B4
:1046E00045F21F23984254D8B0F5A44F7CD3012340
:1046F000C4B2A00804F0030403FA04F444EA40142A
:1047000044F40D442CE045F29F23984207D8B0F5BD
:10471000A54F52D300F01F044AF2F4003DE045F2E9
:10472000BF23984256D945F2DF239842C3D80402EA
:1047300004F4F85444F4204444F0F004B7E75B3444
:10474000394BE4B21C5D44F48044B0E75834374B35
:10475000E4B233F8144044F48844A8E740F4A04499
:10476000A4B2A4E7C0F3072000F016F90546E0B2B2
:1047700000F08AF82D0205F4F855284384B296E734
:10478000C0B200F081F804F47064044344F420449F
:10479000E6E700F01F044AF2F10040EA042486E74D
:1047A0000123C4B2C4F3820004F0030403FA04F446
:1047B00044EA401444F40C44D2E70123C4B2C4F3E5
:1047C000820004F0030403FA04F444EA401444F4BD
:1047D0000A44C5E700F01F0000F0DEF8040204F40C
:1047E000F85444F4005462E700F01F0000F0D4F8DD
:1047F000C306C4F3431448BF0001240200B20443BB
:1048000044F41044ACE7C0F3042000F0C5F80546BA
:10481000E0B200F039F82D0205F4F85545EA00043D
:1048200044F400549CE700BF9ADB00089EDB0008BC
:104830000D4B82B01B68ADF804109BB99DF80510B4
:104840009DF80420F02906D1F02A01D1074B1B88DE
:10485000184602B070470129FAD8012AF8D802B0E8
:1048600003F0DEB90023F3E7242B002052370020A9
:1048700007B5ADF804100199FFF7DAFF03B05DF852
:1048800004EBFFF7FBBE0000822825D00CD83128AE
:1048900067D004D829285AD02A2869D070473528EB
:1048A00050D0392818D07047E32833D004D8E028F6
:1048B0001CD0E22829D07047E62835D0E72838D028
:1048C000E42835D1334B5A78910731D51B7813F052
:1048D000100F08BFE72015E02E4B1A78920752D12F
:1048E0005B7813F0080F18BF29207047294A137806
:1048F000D90744D4527812F0010F19D013F0100FD9
:1049000008BFE32018BF00207047224B1B7813F02C
:10491000040FF2E71F4A1378590732D45278D207AE
:1049200031D413F0100FEDE71A4B1B781A07CED4D1
:104930007047184A1378190727D452789107F0D591
:10494000E4207047134B1B7813F0200FCBE7114B7B
:104950001A7892061BD45B7813F0080F18BF392021
:1049600070470C4B1B7813F0400F18BF2A2070477C
:10497000084B1B7813F0400F18BF312070473920C7
:104980007047E2207047E0207047E62070473520EE
:10499000CEE700BF0436002010B52F4C21784B071E
:1049A00013D500F01402A2F1040C00F01803DCF19E
:1049B000000242EB0C02A3F1080CDCF1000343EB14
:1049C0000C039A4218BF80F00C000B0713D500F0BF
:1049D0001402A2F1140C00F01803DCF1000242EB07
:1049E0000C02A3F1180CDCF1000343EB0C039A4218
:1049F00018BF80F00C006478E30713D500F01102B3
:104A000002F1FF3C00F01803DCF1000242EB0C0263
:104A1000A3F1080CDCF1000343EB0C039A4218BF2E
:104A200080F00900A30711D500F0110200F018036F
:104A3000A2F111046242A3F1180C6241DCF10003FF
:104A400043EB0C039A4218BF80F00900CB0648BF25
:104A500000F0E70010BD00BF043600200022014B2B
:104A60001A6070470836002010B5044600F00AFAB4
:104A700020B904F0FFFB024B201A186010BD00BFE4
:104A80000836002008B500F0FDF918B1BDE808406F
:104A900004F0F0BB04F0EEFB014B1B68184408BDAA
:104AA00008360020A0F5A543603B1F2B10B507D8A2
:104AB0004C791CB900F01F00FEF771F8204610BDBC
:104AC0000124FBE700207047014B1860704700BFCE
:104AD000080C0020014B1B68184700BF080C002081
:104AE000704708B5FFF7FCFF08BD704708B5FFF732
:104AF000FCFF08BD014B185C704700BF0F3600205B
:104B00002DE9F041DFF86C80154F164800F056FE95
:104B1000154E0021404600F051FE384600F04EFE92
:104B20003078FEF723F9114D114C0146284600F06C
:104B300045FE204600F042FE0121404600F03EFEC8
:104B4000384600F03BFE7078FEF710F90146284623
:104B500000F034FE2046BDE8F04100F02FBE00BF5B
:104B6000C2D10008AED100080F360020C5D1000820
:104B700035D30008BDD100084FF4076005F002BD31
:104B800000BF00BF00BF00BF00BF00BF00BF00BF2D
:104B900000BF00BF00BF00BF00BF00BF00BF00BF1D
:104BA00000BF00BF704708B5FFF7E6FF08BD7047BC
:104BB00008B5FFF7FCFF08BD37B500F063F9194CE5
:104BC0000546194B20B30022187801A920448DF81E
:104BD000042000F08DF9154B70B10120144A1870B3
:104BE0001278A15C9DF8042091420BD10025FFF7BB
:104BF0007DFF284603B030BD1A78002AF6D08DF824
:104C0000040018700A4B9DF804201B78E254EEE76C
:104C10001978074B21441878204400F0CBF9FFF7AE
:104C2000C7FFE6E70F36002011360020B112002042
:104C30000C36002008B5302383F31188012100F0E1
:104C40000F039940032220F00F0007F0C3F900235F
:104C500083F3118808BD00000A4B10B51868411C89
:104C600001D0FFF7E7FF084C2068421C01D0FFF796
:104C7000E1FF6068431C03D0BDE81040FFF7DABFD6
:104C800010BD00BF140C00200C0C00202DE9F041D9
:104C9000254F0D4657F821100646481C3FD03023BB
:104CA00083F31188012421F00F0801F00F018C40DB
:104CB00021460622404607F08DF9C8F8144000242A
:104CC00084F31188FFF75CFF184A1368591C09D058
:104CD00023F00F018C6803F00F03DC4004F00104A3
:104CE00084F0010453685A1C1BD023F00F02926811
:104CF00003F00F0322FA03F313F0010F0CBF02239A
:104D0000002357F825001C43431C01D0FFF792FFF6
:104D1000211C18BF01212846FFF745FF7455BDE847
:104D2000F0810023EDE700BF140C00200C0C0020E4
:104D300008B5124B1A7842B9114A12491160124A49
:104D4000A1F57F711160013151601B780F4A83F02A
:104D5000010313700E4AC3F101031370FFF77CFFC8
:104D600000230C4A0120137053700B4A13705370C8
:104D700000F040F8BDE80840FFF7B3BE180C002073
:104D8000140C0020030C01400C0C002011360020F4
:104D90000C3600200F3600200D36002013B5002100
:104DA00001A8ADF80410FFF771FF022201A90E4817
:104DB000FDF7DEFB002814BF0124002404D00222EA
:104DC00001A90948FDF704FC084B0948197801229C
:104DD00023460144044800F00FF80446FFF7ECFEB8
:104DE0002043C0B202B010BD0D36002011360020A5
:104DF0000F360020704700002DE9F84380460F462B
:104E000091461C46114D43B101232B7004F032FA38
:104E10000F4B18600020BDE8F8832E78002EF9D0E3
:104E20000B4B186804F0E5F90428F3D94A464146CB
:104E30003846FDF79DFB28B14A4641463846FDF706
:104E4000C7FB3446002320462B70E4E7B212002053
:104E5000B412002038B5C82405F02EFB054648B929
:104E6000013C4FF47A70A4B205F053FD002CF3D14D
:104E700005F00EFB284638BD014B5878704700BF3F
:104E8000BB120020014B1878704700BFBB120020F6
:104E900008B5FFF7F7FF08BD10B5FFF7DBFF084CBB
:104EA0002070FFF7F5FF6070FFF7E6FF054B187005
:104EB000FFF7E8FF18B1BDE8104000F047B810BD9B
:104EC000BB120020180C002008B5FFF7DBFF18B953
:104ED000BDE8084000F03CB808BD0000034B18785E
:104EE00009288CBF00200120704700BFBA120020A3
:104EF00070B5144C054623780E46092B16D8284663
:104F0000314600F055F80546C8B92378FF2B1CBF81
:104F1000013323702378092B94BF0125002503D981
:104F200004F0DEF9084B1880284670BD064B18883F
:104F300004F058F9B0F5FA7FE1D20025F4E7002338
:104F40002370F1E7BA120020B812002004F056BA1C
:104F500004F040BAF8B504461E46BDF8185062B1D8
:104F60000C206043104B1F5C03445B880F48BA421F
:104F700028BF3A461844FDF72BFB204604F040FAC0
:104F8000074670B16DB10C22074B084902FB04348F
:104F90002279E388AA4228BF2A4619443046FDF701
:104FA00017FB3846F8BD00BF1C0C0020C0120020C3
:104FB00000F0BEB800F0D8B830B50E4D85B0286806
:104FC00004F017F9632812D9FFF75CFD00230230C3
:104FD00003900093042203A90220FFF7BBFF0446BD
:104FE00010B104F047F92860204605B030BD012417
:104FF000FAE700BFD81200202DE9F047074688469F
:105000009146FFF76BFF002814BF0A2601260125F1
:1050100041463846C84710B90135B54201DDBDE803
:10502000F087044605FB05FA4FF43470013405F0AF
:10503000A9FA5445F8D1EBE77FB501F061FF104BB9
:10504000104C1B688DF80F00054620681E7A04F08E
:10505000D0F8632801D8B5420FD000230122009375
:105060000DF10F010320FFF775FF054610B104F0A5
:1050700001F92060284604B070BD0125FAE700BFA1
:10508000D4DB0008DC1200202DE9FF4700220126B6
:10509000244B8A461D6800960DF10F0311461046F9
:1050A000FFF758FFDFF88480044668B31E4F05EB16
:1050B0000609386804F09DF863281DD901250022EF
:1050C00003AB114600952846FFF744FF29460446E6
:1050D000484602F05AFC9DF80F30834214BF00246A
:1050E00004F00104ACB104F0C5F838609DF80C3050
:1050F000012488F800300CE03146484602F045FCB7
:105100009DF80F308342D9D16B788DF80C30002C8C
:10511000ECD1204698F800308AF8003004B0BDE8A1
:10512000F08700BFD4DB0008D4120020CC1200208E
:1051300038B50A4A04460D46FFF75EFF60B1084ADB
:1051400029462046FFF758FF30B129462046BDE8E2
:105150003840044AFFF750BF002038BD895000088E
:10516000B94F00083950000810B50C4607F064FE2E
:10517000124A237814680121204600F8013F02F00A
:1051800004FC207007F05EFE07F056FE0C4B6068D2
:105190001A68904202D01860FFF766FC07F052FED2
:1051A00007F04AFE247A07F04DFE1CB1BDE810401E
:1051B00001F094BDBDE8104001F080BED4DB0008D2
:1051C000D0120020FFF7E8B908B504F018F804F091
:1051D00022FDFFF775F904F021FDFFF7B1F904F0A6
:1051E00037FD04F03BFDFFF7EDFF04F051FD04F047
:1051F000EDFC04F0DDFCFFF77AF9F2E70346DA682C
:105200000846511C10B4D96019698A4207D21C683B
:105210001CB15968234610BC18479B68985410BCB1
:1052200070472DE9F047DDF82090054619F0030F8F
:105230008A4614461F46D0F80C800FD0544454457B
:105240000ED119F0020F15D1BDE8F08720212846B4
:10525000FFF7D4FF0136BE42F8D3EFE71646FAE770
:1052600014F8011D2846FFF7C9FFE8E7202128466A
:10527000FFF7C4FFEB68A3EB0803BB42F6D3E3E7F9
:105280002DE9F04F8BB09646DDF85080159E169CA8
:1052900002AFF1B9250517D4302201218DF808207D
:1052A00024F01004A20761D404F0010546B1002DDA
:1052B0005CD0BEF1000F02D114F00C0F00D0013E03
:1052C0000A464FF0300C28E0102BEBD124F01004EC
:1052D000E8E714F0200F8C463A464FF0000114BF67
:1052E0004FF0370A4FF0570ABCFBF3F903FB19CB19
:1052F0005FFA8BF5BBF1090F94BF30355544EDB221
:10530000634501F1010102F8015BCBD82029C9D026
:10531000CC46E9E702F807C001321DB1964201D937
:10532000202AF7D1302501E0D5550132904501D929
:10533000202AF9D1082B03D1914238BF24F0100460
:1053400042F210052C4244D025052ED46AB3904574
:1053500001D0964229D191424ED2013A25D0102B4C
:1053600020D0022B2DD191421ED303E00A46D9E76B
:10537000022B26D11F2A37D80AAB134462211DE025
:105380001F2A31D80AAB1344582117E0610703D50F
:105390000AAB13442B2124E0230725D50AAB134481
:1053A00020211EE0914202D2013A102BE0D1A50645
:1053B000E6D41F2A18D878210AAB134403F8201C1E
:1053C00001321F2A10D830210AAB134403F8201CE5
:1053D00001321F2A08D8BEF1000FD7D02D210AAB09
:1053E000134403F8201C0132009433463946FFF77A
:1053F00018FF0BB0BDE8F08F102BB2D1D7E7FFF745
:1054000069BB00002DE9F04F07460E46154687B0F0
:10541000317881B93B6853B93A6942B1B96831B161
:10542000FB689A4298BF02F1FF330022CA54F86821
:1054300007B0BDE8F08F252906F1010603D03846F4
:10544000FFF7DCFEE4E7002406E02D2B16D0302B1E
:105450000CD144F001041646324612F8013B2B2BC6
:105460000FD0F2D8202B0FD0232B10D0A3F1300176
:1054700009292AD84FF000080A2010E044F002045D
:10548000E9E744F00404E6E744F00804E3E744F005
:105490001004E0E7164600FB0838A8F13008324651
:1054A00012F8013BA3F130010929F3D933782E2BEF
:1054B0004AD17278731CA2F13001092944F40064C6
:1054C0003AD84FF000090A2614E02A2B0AD155F8E1
:1054D000048B1646B8F1000FBCBF44F00204C8F1BB
:1054E0000008E3E74FF00008E0E70B4606FB092958
:1054F000A9F13009194611F8012BA2F13000092851
:10550000F3D91E4616F8012B6C2A28D020D8682A19
:105510002CD06A2A33D01E4616F8011B692936D0D2
:1055200063D8622900F030812CD8252987D05829EA
:1055300085D144F0200474E02A2A06D155F8043BB2
:1055400023EAE379B31CDCE733464FF00009D8E7E0
:10555000742A01D07A2ADED144F40074DCE75A7848
:105560006C2AF9D144F4C0649E1CD5E75A78682AA5
:1055700002D044F08004CFE744F0C004F4E744F4E0
:105580008064C9E7632978D064297FF458AF78290B
:1055900044F4804445D05829CBD06F2900F0F280E4
:1055A000622900F0F1800A2324F01004200548BF8E
:1055B00024F00104610404F480623ED5002A7FF4E3
:1055C00027AFA20505F1040A2DD5296800294FEA65
:1055D000D1720294CDF80480CDF80090B8BF494252
:1055E0003846FFF74DFE554612E7732969D013D8A8
:1055F0006F2900F0C78070297FF421AF55F8041B94
:1056000044F4005444F00104002940F0B0800094B8
:105610000A2305225D495DE07529C4D078297FF40D
:105620000EAF1023C2E714F0400F296801D049B231
:10563000CCE7200648BF09B2C8E7002A7FF4E8AEED
:10564000A10524F00C0005F1040A06D50290CDF85E
:105650000480CDF800902968C2E714F0400F296853
:1056600007D0C9B20290CDF80480CDF80090002296
:10567000B6E7220648BF89B2F4E714F002041ED050
:105680004FF0010955F8041B3846C9B2FFF7B6FDC3
:10569000002C3FF4BDAEC8457FF6BAAE2021384697
:1056A000FFF7ACFD09F10109F5E720213846FFF7C6
:1056B000A5FD4B46984503F10109F6D8E2E7012321
:1056C000F8E755F804BBBBF1000F07D143460622AB
:1056D0002F4900943846FFF7A4FD99E6B9F1000F71
:1056E00014BF4A466FF00042DA465A449AF8001056
:1056F00009B1524513D114F40063AAEB0B0A0493C9
:1057000002D0CA4528BFCA4614F0020404D1D045CD
:105710000AF1010206D892460BF1FF320FE00AF1BE
:10572000010AE3E7202138460592FFF767FD059A55
:105730009246ECE738460592FFF760FD059A12F8AD
:10574000011F39B1049B002BF4D0A9EB02001BEB25
:10575000000FEFD1002C3FF45BAED0457FF658AE82
:1057600020213846FFF74AFD0AF1010AF5E70A232E
:1057700002940193CDF80090102300223846FFF7E1
:105780007FFD45E6082311E702230FE7D1D100088A
:10579000CAD100087FB5084B0A4601930023029343
:1057A000039304936FF00043014601A80593FFF7AC
:1057B00029FE07B05DF804FBFF5300080FB407B5DE
:1057C00004A951F8040B0191FFF7E4FF03B05DF861
:1057D00004EB04B07047002307B5014601220DF128
:1057E00007008DF8073000F08CF89DF8070003B033
:1057F0005DF804FB002307B5014602220DF1060007
:10580000ADF8063000F07DF8BDF8060003B05DF895
:1058100004FB07B50422002301460DEB02000193AF
:1058200000F06FF8019803B05DF804FB07B50122A2
:105830008DF8071001460DF1070000F067F803B07E
:105840005DF804FB07B50222ADF8061001460DF124
:10585000060000F05BF803B05DF804FB07B5042216
:10586000019101460DEB020000F050F803B05DF825
:1058700004FBF8B505461446D31D23F0070300AF1B
:10588000ADEB030D68460E4600F03BF82246694634
:105890002846FCF76DFE20B122463146284600F02E
:1058A00035F8BD46F8BD38B50C460546FFF793FF01
:1058B000A04205D021462846BDE83840FFF7B6BFD4
:1058C00038BD38B50C460546FFF794FFA04205D019
:1058D00021462846BDE83840FFF7B4BF38BD38B58B
:1058E0000C460546FFF795FFA04205D02146284605
:1058F000BDE83840FFF7B2BF38BD00F0A1B900F0F5
:105900003DB80B460146184600F052B80B4601461A
:10591000184600F0D9B8000008B5064B4FF4805285
:1059200018460021FCF7CAFE41F2080200F5805338
:105930001A6008BDE012002038B541F20404054D9C
:105940002B5D2BB900F040FA08B10120285538BD75
:105950000220FCE7E012002038B541F20404064DB5
:105960002B5D33B100F07EFA10B1002301202B55DE
:1059700038BD0220FCE700BFE012002038B5FFF779
:10598000DBFF044618B9FFF7E7FF204638BD00F0FB
:1059900027FA0546FFF7C0FF012C06D1FFF7DCFF11
:1059A00000280CBF002505F001052C46EDE700009E
:1059B00008B5034608469918B1F5805F05D8044933
:1059C0001944FCF705FE012008BD0020FCE700BFDC
:1059D000E0120020F8B506460F4615460024AC42FA
:1059E00001D10120F8BD60003918304400F094FA6C
:1059F0000028F7D00134F2E7F8B506460F46154601
:105A00000024AC4201D10120F8BD37F8141006EB98
:105A1000440000F007FA0028F6D00134F1E7000056
:105A200037B5FFF789FF4FF40062054612490020A1
:105A3000FFF7E2FFD0B10EA3D3E900234FF480516A
:105A40000D4800F07BFF0422CDE9000169464FF4C8
:105A50008050FFF7D1FF002814BF02240024012D3D
:105A600001D1FFF779FF204603B030BD0446F6E7C9
:105A700025232284E49CF2CBE012002010B5084CD0
:105A80002368B3F5005F08D300F0AAF920B1FFF74F
:105A9000C7FF41F20803236010BD0120FCE700BFEF
:105AA000E022002010B5074C0146206800F0BAF94A
:105AB00030B1236802332360BDE81040FFF7DEBF3A
:105AC00010BD00BFE02200202DE9F04F8B46811869
:105AD000B1F5805F85B00746154604D900242046FD
:105AE00005B0BDE8F08F554C044421465846FCF7FC
:105AF0003FFD002800F09F802A4659462046FCF7CB
:105B000067FDFFF719FF019030B14FF0000835B97C
:105B1000FFF7B4FF044684E0FFF71EFFDEE7012D28
:105B20009BF8001023D9FB0721D4B7F5804F1ED274
:105B30009BF8012041EA0222012A18D8002A14BF4A
:105B40006FF05F026FF07F0242EA572262F30709AB
:105B50007A0862F30F291FFA89F0FFF7A3FF0128E3
:105B600004465AD1023D02370BF1020BCFE73F2F1B
:105B700011D847F0400262F3070A61F30F2A1FFAB7
:105B80008AF0FFF78FFF0128044646D1013D013717
:105B90000BF1010BBBE7052D2E4628BF0526C7F3E9
:105BA000024242EAC6028DF808203A0AADF80A809D
:105BB0008DF80920ADF80C805A46ADF80E808DF8AE
:105BC0000A700DF10B01B34412F8010B5A4501F8AC
:105BD000010BF9D1BDF80800FFF764FF0128044666
:105BE0001BD1BDF80A00FFF75DFF0128044614D160
:105BF000012D0BD8032D06D9BDF80E00FFF752FF7B
:105C00000128044609D1AD1B374480E7BDF80C00DC
:105C1000FFF748FF01280446ECD014B1022C18BF4E
:105C20000024019B012B7FF45AAFFFF795FE00285B
:105C30003FF454AF53E7012451E700BFE0120020C6
:105C40002DE9F04385B0FFF767FE00F013F928B99E
:105C5000FFF762FE002005B0BDE8F0834FF400625C
:105C600057490020FFF7B6FE554D10B9FFF754FE17
:105C7000EEE751A3D3E900234FF48051284600F00A
:105C80005DFE0F460646042202A94FF48050FFF73E
:105C9000A1FEDDE902239F4208BF964201D0FFF733
:105CA0003BFE41F208060DF10601304600F034F9E2
:105CB00000286AD0BDF80630002B65D0DAB2910911
:105CC000012906F10204ADF8083047D029B10229B4
:105CD0004AD000205AE02646E5E70DF10A012046A9
:105CE00000F01AF90028F4D09DF809309DF80A2038
:105CF0009DF8088043EA02234FEA08475BBA9BB24B
:105D000007F4E0274FEAD8081F4308F0070907EB1C
:105D10000903B3F5805F06F10404DAD818F0060F22
:105D200006D003A9204600F0F7F80028D1D0B41D12
:105D300018F0040F07D00DF10E01204600F0ECF82A
:105D40000028C6D002344A460DF10B01E819FCF7D1
:105D50003FFCB4F5005FBED3012017E002F03F0224
:105D6000C3F30723AB54F4E7510201F478511B0A43
:105D700041EA4303591CB1F5805FAAD2C2F3401235
:105D8000EA5400236B54E4E7012034460D4D2C60A7
:105D900068B900F025F800283FF45AAFFFF740FE3D
:105DA00041F208032B6000287FF455AF50E7FFF75E
:105DB00065FEF8E7AFF3008025232284E49CF2CB54
:105DC000E0120020E022002008B50021034805F081
:105DD00057FAB0FA80F0400908BD00BF083C002027
:105DE000F8B5002501240C4F0C4E3B68AB4201D89E
:105DF0002046F8BD30680A4B1968036829445B697E
:105E000098470128306888BF002405F0DBF9012895
:105E100088BF00240135E8E7540C0020EC22002064
:105E2000500C002013B50C4A0B46ADF80610116853
:105E30000A4A0144127812B1DB43ADF80630084B30
:105E4000022218680368DC680DF10603A047B0FA67
:105E500080F0400902B010BD4C0C0020F022002060
:105E6000EC22002008B5024805F018FA012008BD10
:105E7000083C00202DE9F8431E4B1F4C2360FFF720
:105E8000F1FF206803685B6898471C4B05461A6859
:105E90001B4B03EA822903781A4A03F001031370AB
:105EA000836813B9184804F047FB0026B046AD6874
:105EB000164FB5421BD9691E891B2068396005F051
:105EC000A3F9484502D33D680136F2E739682068F6
:105ED00005F0A7F98044B8F5005FF5D339680C4B9D
:105EE0006D1A20681D6005F08FF90A4B18600120BB
:105EF000BDE8F883083C0020EC220020E0F7FF1FFB
:105F000000FCFF03F0220020D7D10008500C002035
:105F1000540C00204C0C002038B50F4B0C4619686F
:105F20000E4B0144186805F089F9012302880C48DA
:105F30000C4D037000230C492D780B700DB1D2432A
:105F400092B20370087818B100200B70238038BD1E
:105F500022800120FBE700BF4C0C0020EC22002037
:105F6000F1220020F0220020E8220020002210B5BB
:105F7000064B074C074808499A610132202A9C6069
:105F8000D860196103F11C03F6D110BD94240020E0
:105F9000FD64000865640008896300087FB54FF45C
:105FA000A07200211148FCF789FB4FF4C072002158
:105FB0000F48FCF783FB00240C4E0D4D01A9E0B205
:105FC0002E6001F058FD38B9082201A93046FCF7CF
:105FD000FFFABDF80C30AB800134202C06F10A0624
:105FE00005F10C05EAD104B070BD00BF12360020E7
:105FF00014230020F0B50025294C2A4E85B001A9B4
:10600000E8B201F05AFD0746002842D110220146AD
:1060100004F10800FCF752FBBDF80430277223801E
:106020009DF80A30A370BDF80830E3709DF80B307E
:1060300023719DF80C306371BDF80630E3809DF844
:106040000D3013F0800F0CBF324600226261DA0778
:1060500044BF012222729F0742BF227A42F002020D
:106060002272580742BF227A42F0040222721907B4
:1060700042BF227A42F008022272DA0642BF227A36
:1060800042F0100222729B0642BF237A43F02003A3
:1060900023720135202D04F11804B0D105B0F0BDF4
:1060A000202800201E280020B0F5F84F04D1034B13
:1060B0001B68002B08BF0020704700BF580C002051
:1060C00008B5FFF753FFFFF769FFBDE80840FFF78A
:1060D00091BF000030B5202985B0044625D1437812
:1060E0000D2B22D8DFE803F007232A2121404B544F
:1060F000215E67717A7D20220021FCF7DFFA0623FA
:10610000237000236370A370E370D1232371B32342
:106110006371E923A3717223E371A42323725B23C8
:106120006372C523A3728123E37205B030BD84235B
:106130000370002343708370C370F6E7C1788378DF
:1061400003EB01235B01832B03F12002EDD8842AAA
:1061500094BFC3EB0202C3F184026449194405B041
:10616000BDE83040FCF734BA2022FF21FCF7A6FA44
:106170005F4B1B6823705F4B1B686370D5E7012280
:106180005C4B1A6032225C4B1A6003F0A9F8CCE732
:10619000574B1B680370574B1B684370564B1B686B
:1061A0008370C2E7A378C0782022214643EA00200A
:1061B00000F0FCFAB9E7C078A3781F22611C43EA1B
:1061C000002000F01DFB2070AFE7A378C0781C22F0
:1061D000211D43EA002000F02BFBF4E700F0C0FA99
:1061E000A3E78378062BA0D8DFE803F0040D1E4454
:1061F0004E626C00202500212A46FCF75FFA2570CC
:106200006570A57091E7002301A9C07801930293FE
:10621000ADF80C3001F00FFC04F8010B0A2201A9C3
:106220002046FCF7D5F980E70A22011DC57801A8B0
:10623000FCF7CEF9BDF80400FFF736FFADF8040017
:10624000BDF80600FFF730FFADF80600BDF8080006
:10625000FFF72AFFADF80800BDF80A00FFF724FF9A
:1062600001A9ADF80A00284601F0F5FB2070FFF700
:106270007DFE5AE7002301A9C07801930293ADF88F
:106280000C3001F0F8FBC7E7C5780A22011D01A810
:10629000FCF79EF9BDF80C00FFF706FF01A9ADF869
:1062A0000C00284601F0F8FB2070FFF777FE3CE772
:1062B000002301A9C07801930293ADF80C3001F0DE
:1062C000FCFBA9E7C5780A22011D01A8FCF780F9AB
:1062D000BDF80600FFF7E8FE01A9ADF80600284664
:1062E00001F0FCFB2070FFF785FE1EE7D8DB0008FD
:1062F000580C0020242B0020202B002007B5104A2A
:10630000B0F5005F108004D203B05DF804EBFCF739
:1063100099BB4FF2F003ADF8003002F0E1FF40F21C
:10632000011340F00100ADF80430ADF8020002ABFB
:1063300013E9030003B05DF804EBFCF75FBD00BF99
:106340005237002007B50F4AB0F5005F108004D225
:1063500003B05DF804EBFCF78BBB4FF2F003ADF834
:10636000003002F0BDFF012340F00100ADF8043021
:10637000ADF8020002AB13E9030003B05DF804EBD3
:10638000FCF73CBD52370020F8B5CCB20546204999
:10639000204601F050FB002839D11E4BD98BD9B1D2
:1063A00040F2E73600271C484FF47A72E0FB0167A1
:1063B000002330463946FBF759FF04F0AAFA0021C2
:1063C000164AA970135D1155013B042B1FD8DFE855
:1063D00003F01A050C0F1A000120EEE70C4B588849
:1063E00090B1BDE8F840FFF7ADBF094B9888F7E7DB
:1063F000074BD8880028F4D11A8858882AB1002879
:10640000EFD11046EDE7024B18880028E9D1F8BD1E
:106410001428002054370020A0860100F22200201A
:10642000D0B50446FFF76AFF0C4BD98B99B140F207
:10643000E73600270A484FF47A72E0FB0167002331
:1064400030463946FBF712FF04F063FA2046BDE8F8
:10645000D040FFF777BF0120F6E700BF5437002098
:10646000A0860100F8B5234CCDB206462146284649
:1064700001F0E1FA2746002838D1B2781E4B012AF4
:106480000ED171794E0703D538885A5570B312E092
:10649000C807F9D5022260885A5560B92088F5E707
:1064A000022A21D17279510717D4D20707D40322C7
:1064B000A0885A5598B1BDE8F840FFF71FBF0422E5
:1064C000E0885A550028F6D1208880B1FFF7A8FF50
:1064D00060880028EFD12088EDE705225A552088F2
:1064E00020B1FFF79DFFF6E706225A55F8BD6088F8
:1064F000CCE700BF14280020F222002038B50C4C55
:106500000546C8B2214601F096FA80B9248874B1D4
:10651000AB78032B0AD12046FFF782FF2046FFF716
:106520007FFF2046BDE83840FFF77ABFF9D838BD75
:106530001428002030B5A0F5AE43FF2B85B00446EB
:106540000D4608D801A9C0B201F075FA18B9BDF816
:106550000C0005B030BD2946204600F087F9F8E769
:10656000202070471F289DBF1C22024B02FB0030D9
:10657000002070479424002038B54B79D3B9A0F59A
:10658000AE4084B2FF2C15D8134DE0B2294601F07D
:1065900052FA78B91C23114803FB04039B78012BA2
:1065A0000AD12B8833B16B8823B1AB88EA881343B7
:1065B0009BB233B1012038BD022BFBD1AB88002B3D
:1065C000F8D01C2303FB040043796FF300034371ED
:1065D00002F028F9EEE700BF1428002094240020E0
:1065E000202070471F289DBF1822024B02FB00305D
:1065F0000020704720280020032A07B5084614D938
:106600000B4A1378527802F0010143EA0123C2F3E6
:10661000400243EA422304220DEB02010193FBF7FF
:10662000D7FF002003B05DF804FB4FF0FF30F9E71F
:106630000436002008B5034608465988914205D81B
:106640000A465968FBF7C4FF002008BD4FF0FF3031
:10665000FBE70000032A07B539D904220DEB02003D
:10666000FBF7B6FFFCF7F4FC1A49019A0B78C2F36A
:10667000400062F3000360F34103C2F3800060F363
:106680008203C2F3C00060F3C303C2F3001060F3DF
:106690000413C2F3401060F34513C2F3801060F39B
:1066A0008613C2F3C01060F3C7130B704B78C2F3AC
:1066B000002060F30003C2F3402262F341034B70F9
:1066C0000888FDF755FE002003B05DF804FB4FF08D
:1066D000FF30F9E704360020014B188800F07EBD3A
:1066E0005437002070B50024074DA6B2304601F0A3
:1066F00095F915F8011B884202D0304601F095F952
:106700000134242CF1D170BD5437002008B54388E2
:10671000934207D81A464068FBF75AFFFFF7E2FF9B
:10672000002008BD4FF0FF30FBE7000038B5002423
:10673000094DA0B201F072F90134242C05F8010BC7
:10674000F7D10024054D2B6903B1984701340C2C77
:1067500005F11405F7D138BD543700205CDC000882
:10676000AF2208B50F4B00211A8041F288325A80BF
:106770003222DA82C8221A8305225983D983502112
:106780009A83198483F82220FFF7ACFFFCF760FCA2
:106790004FF48060044B1880FDF7EAFDBDE8084027
:1067A000FFF7C4BF54370020043600202DE9F3471B
:1067B0000D4600240746FF21284690464FF0140A54
:1067C000FBF77CFF2046DFF83490861C464511D845
:1067D0000AFB04F333F80930BB42ADF8063006D9A2
:1067E00002220DF106012844FBF7F2FE3046013487
:1067F0000C2CEAD102B0BDE8F08700BF5CDC0008D9
:10680000F0B400241426094B06FB04F5EF5A874226
:1068100006D1581983683BB94FF0FF30F0BC704780
:1068200001340C2CF0D1F7E7F0BC18475CDC000811
:10683000F8B5002314260C4C06FB03F52F5B8742AA
:1068400005D12C44E36833B94FF0FF350AE001333A
:106850000C2BF1D1F8E720469847054610B923697B
:1068600003B198472846F8BD5CDC0008014B188B43
:10687000704700BF54370020024B587F00F00100E2
:10688000704700BF54370020034B587F80F0020050
:10689000C0F34000704700BF54370020034B5A7FBD
:1068A000520754BF188B0020704700BF5437002098
:1068B000024B587FC0F3C000704700BF5437002020
:1068C000014BD88A704700BF54370020272805D8CD
:1068D0001E2819D2042810D20020704738280AD860
:1068E0002D2801D22B28F7D10B4BD87E80F0040045
:1068F000C0F3800070476428F5E7074BD87E80F02E
:106900001000C0F300107047034BD87E80F00800E1
:10691000C0F3C000704700BF54370020024BD87E40
:10692000C0F34010704700BF54370020024BD87EA0
:10693000C0F38010704700BF54370020F0B5014409
:10694000884202D310461946F0BD002710F8014BCB
:106950004FEA031C624094184FEA021E43EB030502
:106960004CEA127C14EB0E0445EB0C054FEA421E78
:10697000A4184FEA431C43EB05054CEAD26C14EB18
:106980000E0445EB0C054FEAC21E4FEAC31C4CEA4D
:10699000526C14EB0E044FEA022645EB0C054FEA4D
:1069A000032C4CEA126CA41945EB0C033A19B646B9
:1069B00046EB0303C4E708B50A464FF47A63014681
:1069C000782002F03FFEB0FA80F0400908BD08B51B
:1069D000FFF7F1FF08BD4FF47A6307B50246009355
:1069E00078200B46402102F05BFEB0FA80F04009AF
:1069F00003B05DF804FB02F0FBBD704708B5074B20
:106A00004FF4806218460021FBF758FE044A054BFC
:106A100010604FF6FF721A8008BD00BF7837002063
:106A2000803B00202A2B002038B5FFF7E6FFFBF75C
:106A3000C3FE10F0010F0CBF802240221E4B1F4DE1
:106A40001A702870FFF7D7FF0B211D48FFF7BFFF13
:106A5000044620B91B48FEF7B1FE204638BD2B780E
:106A600005219B0706D41848FFF7B1FF044640B93B
:106A70001648F0E71648FFF7AAFF044608B915487C
:106A8000E9E70D211448FFF7A2FF044608B91348AF
:106A9000E1E702F0EFFB124B00F56A40603018604E
:106AA000FFF7ACFF01230F4A13700F4A1370002247
:106AB0000E4B1A70D1E700BF2E2B00202D2B00208B
:106AC0005ADD000835D2000851DD000851D2000817
:106AD0004CDD000877D2000865DD00088FD2000881
:106AE0007C3B00202C2B0020282B00202F2B00206B
:106AF000084B00EB40001B78400003FB010189B20A
:106B0000B1F5806F28BF0021034B1944034B196076
:106B1000704700BF2E2B002078370020803B0020DC
:106B20000C4810B502680C49531A0C4A0633127807
:106B30009BB2B3FBF2F402FB1434121BD2B2052A4F
:106B40009CBF9B189BB2B3F5806F28BF00230B44FA
:106B5000036010BD803B0020783700202E2B0020E2
:106B60000A282DE9F0410546884604D10120BDE8F8
:106B7000F04100F04DB80D2801D10020F7E70627BD
:106B80001E4C3A4626681E483146FBF721FDDF2D94
:106B90003A4611D900213046FBF790FDB8F1000FBD
:106BA00011D12468062221461548FBF7E1FC98B96B
:106BB000BDE8F041FFF7B4BF1249304607FB0511AD
:106BC000FBF706FDEAE72368991D9942E9D01A7898
:106BD000D24303F8012BF8E701220B4B0B49E41ACF
:106BE000C4F38913A4B20888053402FA03F3A40994
:106BF000034302FA04F41C430C80D9E7803B0020D5
:106C0000302B002072DD0008783700202A2B00206E
:106C100070B5134E134B3168134C1A78091B8DB2A3
:106C2000B5FBF2F302FB1353D31ADBB260B10624B7
:106C3000B3FBF4F4631EDCB2FF2C00D170BD002165
:106C40002020FFF78DFFF5E71D44B5F5806FA6BF47
:106C50000346194689B2194421443160EEE700BF6A
:106C6000803B00202E2B00207837002070B5044692
:106C70000E46FBF773FD2518AC4200D370BD3146BC
:106C800014F8010BFFF76CFFF6E70000F0B50126E2
:106C90000F4B104C1A68121B93B2CD18B5F5806FCC
:106CA000C4BFC3F5806189B20B4D19448B4200DB30
:106CB000F0BD10F8012BE75C974206D02F88E25414
:106CC0009A0906FA02F23A432A8001339BB2EDE7B1
:106CD000803B0020783700202A2B00200E4B10B577
:106CE0001B780E4C0BB9207810BD02F0C3FA0C4B88
:106CF00000F56A40603018602378002BF3D1022140
:106D00000848FFF764FE18B90748FEF757FDEAE7A1
:106D100001232370E7E700BF2C2B0020282B002045
:106D20007C3B002058DD0008BBD200082DE9F04F65
:106D3000564E87B0338804907BB1554B1B7863B1B6
:106D4000544B1D784DB9FFF7C9FF2C46338823B14A
:106D500015F0FF0F06D0049A22B907B0BDE8F08FF6
:106D60000134E4B243FA04F2D207F9D54A4B1B7856
:106D700013F0010F494B14D1A201C2F3C71102F065
:106D800040029A703F325971DA7099710721434875
:106D9000FFF711FE78B9424807B0BDE8F04FFEF7A3
:106DA0000DBDE200D2B29A7007320021DA700722DC
:106DB00059719A71EAE7384B4FEA84181B78DB0760
:106DC00008D4384840214044FFF705FE002854D13C
:106DD0003548E1E7402200213448FBF76FFC0020F2
:106DE000DFF8D0B0DFF8D0E000271BF8013B2D4AD8
:106DF000434413441EF8012B02932C4B013A1A44CE
:106E0000C7F10703DBB2039301234FF0000C03FA31
:106E100007FA12F8019F5FFA8AFA029B13F80C1026
:106E2000039B0AEA0101A3EB0C0303F007030193A0
:106E300001FA03F30593019B0CF1010C5B4203F093
:106E4000070321FA03F30599BCF1080F43EA010394
:106E500049EA03035FFA83F9DFD10137082F82F88B
:106E60000090CDD10130C0B20828BDD140210F48DB
:106E7000FFF7B1FD08B90E488EE7012303FA04F2CB
:106E80003388013523EA020333805FE72A2B002091
:106E90002C2B00202F2B00202D2B00205C0C002001
:106EA000CFD2000878370020F2D20008362B00201D
:106EB0000BD30008B2E20008BAE2000838B50C4B68
:106EC0000C4C1B782078254613B980F0010009E0AE
:106ED00058B102210848FFF77AFD20B90748FEF7AC
:106EE0006DFC207838BD002323702878EDE700BFC3
:106EF0002C2B0020282B002056DD0008A6D20008ED
:106F0000014B1878704700BF282B002008B5FBF70D
:106F100063FC08BD124B10B51B7803B3114C2088DD
:106F200002F060F9312808D902F0DAF90021208056
:106F30000846FFF7DDFDFFF7E9FF0020FFF7F6FE4B
:106F4000094B1B785BB102F095F9084B1B68C01A1E
:106F5000074B984203D8BDE81040FFF7AFBF10BD04
:106F60002C2B0020783B0020282B00207C3B00208D
:106F7000FEFFFF7F10B50F4C022023786FF3C30391
:106F80002370FDF739F82378D90605D56FF304137C
:106F900002202370FDF70CF823789A0605D56FF3CD
:106FA000451320202370FDF703F8BDE81040FDF7DE
:106FB00031B900BF630C002010B5044611B10220A6
:106FC000FDF712F8A4F50053B3F5405F38BFE4B203
:106FD0002046BDE81040FBF735BDA0F50053B3F5E2
:106FE000405F38BFC0B2FBF743BD000030B500F0D2
:106FF0000F02C0F303150120064C904034F9153000
:1070000000B219B1034324F8153030BD23EA000360
:10701000F9E700BF822B0020054BC0F3031233F8C1
:10702000123000F00F0043FA00F000F0010070474A
:10703000822B00202DE9F843414C1E4623788146DF
:1070400013F0040F0F4690463E4D6BD028884845FC
:1070500002D0B9F1000F65D123786FF3820399074D
:10706000237037D4384B394A1B881188FB1A9BB2DE
:1070700099428CBF00210121237861F341032370E1
:10708000FFF7B4FFFCF78EFF820706D523780220B6
:1070900043F010032370FCF793FFFCF783FF830694
:1070A00006D52378202043F020032370FCF788FFC7
:1070B00021783246C1F340012888FFF77DFFB8F1FF
:1070C000000F09D1224BB3F81EC0BCF1000F11D143
:1070D00001201BE00121CFE731462888FFF71EFC85
:1070E0000028EFD031462888FFF720FC0028E9D19E
:1070F000BDE8F88340F2E7300021DFF858E04FF4B4
:107100007A720023EEFB0C01FBF7B0F803F001FCF0
:1071100021783246C1F340012888FFF75EFFFFF770
:1071200029FF0AE04846FFF777FF32460146484606
:10713000FFF753FF2B884B45F1D0034B1F80D7E758
:10714000630C0020762B0020A22B0020640C002072
:1071500054370020A086010010B50E4BDB7EDA0705
:1071600016D50D4B1B785B0712D502F0B9F80B4B07
:107170000B4A1B881288C31A9BB29A42014607D851
:10718000BDE810400748084B01220088FFF752BFB6
:1071900010BD00BF54370020630C0020A22B00203C
:1071A000640C0020762B0020782B002005490B78FA
:1071B000C3F3000282F0010262F300030B70FFF7D9
:1071C000D9BE00BF630C0020034B1A786FF3000296
:1071D0001A70FFF7CFBE00BF630C0020014B188070
:1071E000704700BF640C00202DE9F047794B05463D
:1071F000DA7E0F4612F0010F9A4603D10124204691
:10720000BDE8F08702F06CF87B79804643B3724C9E
:1072100023785E0705D500220146704B1046FFF724
:1072200009FF47F614439D4217D047F615439D4288
:1072300008D047F613439D4206D1237843F001035B
:10724000237001E0FFF7B2FFA5F50053B3F5405FEF
:107250000DD20022624B1A80D0E7FFF7B5FFF3E7AB
:10726000E12D38D15C4A117863F3041111705A4E44
:107270003378D807C2D539462846FFF727FB7C79F3
:10728000002800F0A380002C00F09980FCF78AFE13
:107290000446FCF7D7FE204310F0FD0FDFF84091C5
:1072A00026D000239AF81B40A9F8003014F00204FD
:1072B0001ED121462846FFF799FE3A462846FFF799
:1072C0007BFEFCF7BFFE00F0FD00FCF715FF02207F
:1072D000FCF7E6FF93E7E52D04D13F4A117863F30D
:1072E0004511C3E7A5F50053B3F5405FBFD285E76D
:1072F0003A4B0A2218463946FBF76AF90022B9F8D8
:10730000003042809D42DFF8DCA03AD13946284661
:10731000FFF704FBA8B3337899072BD43946B9F8A3
:107320000000BAF80040FFF705F9A8EB0404A4B286
:10733000844226D2FCF736FE820706D53378022037
:1073400043F010033370FCF73BFEFCF72BFE830683
:1073500006D53378202043F020033370FCF730FE4D
:1073600031783A46C1F34001B9F80000FFF724FE36
:10737000002444E73946B9F80000FFF7D7FA00289F
:10738000CCD1FCF70FFE0446FCF75CFE33782043BB
:10739000C0F3400060F341033370FCF753FE00F08C
:1073A000FD00FCF7A9FE3378022043F00403A9F89E
:1073B0000050AAF800803370FCF772FFD8E73B4614
:1073C000224641462846FFF735FE18E7002C7FF499
:1073D00040AF13E754370020630C0020782B0020C7
:1073E000762B0020A22B0020FCF79CBF08B50020C4
:1073F000FDF780FB00F0010008BD08B5FDF7CEFCED
:1074000040F6B83003F085FAFDF7C8FCFFF7EEFF51
:1074100028B1FFF7E9FFBDE8084001F079BF08BDDA
:1074200008B5FFF7EAFF08BD704700002DE9F843F3
:107430001C4E33785BB14FF00E091B4DDFF86C80AA
:107440002C783378A34204D8002333702B70BDE826
:10745000F88309FB04F208EB0203671C1979FFB2F9
:107460002F7079B1198979B94FF6FF71588988421F
:107470000AD00121FFF7D8FF002309FB0484237100
:10748000FCF7C2FD3C46DCE738F80200B3F802C066
:107490009A88D98840EA0C4042EA01411A89FCF7EF
:1074A000D1FCE9E71F2C00201E2C0020AE2B002071
:1074B000704700000023064A1380064AD17909B9B3
:1074C000917111720133202B02F10C02F6D1704739
:1074D000202C00201423002070B50F4A0F4B117888
:1074E0001C780B460E4D9C4210D035F81360864236
:1074F0000DD10C250B4C8B4205FB00404FF00104D5
:10750000847103D1234403F00303137070BD01336E
:1075100003F00303E7E700BFAC2B0020AD2B0020F6
:10752000A42B0020142300208B792DE9F74F002B8A
:1075300041D1224D1F46A8464FF6FF794FF0010C6E
:107540001F4A92F800B0DAB293452BD94FF0000EE3
:107550004FF6FF740A68B5F80CA00192019E5FFA1D
:107560008EF236F812602EB1B24508BF94B20EF119
:10757000010EF3E74C451BD00CFA04F427430CFA38
:1075800002F2FFB2013ABA4211D10E2253438C8863
:1075900008EB030214810424147128F8036050815D
:1075A00081F807C003B0BDE8F04FFFF795BF2E711B
:1075B00001330E35C7E703B0BDE8F08FAE2B0020D6
:1075C0001F2C0020F8B50C4B0C4D1C780C4E0D4FA9
:1075D0002B78A34205D1FFF729FFBDE8F840FFF75C
:1075E00069BF0C2136F81400013401FB0071FFF76C
:1075F0009BFF04F00304EBE7AC2B0020AD2B002035
:10760000A42B0020142300200023F0B51A461C46AA
:10761000D0F800E0DDB23EF8156076B1D1F800C0D8
:10762000002503E0BE4208BF01220135ECB23CF860
:107630001470002FF6D10133ECE71AB1AC4238BF19
:107640000846F0BD1046FCE70F4B70B51B789BB1A8
:107650000E4C208880B101F0C5FD0D4E3388834269
:107660000AD20C4B00251A780B4B1B789A4204D097
:10767000FFF7A8FF3580258070BDFFF7D7FE258076
:10768000BDE87040FFF716BF660C0020222C0020DA
:10769000202C0020AC2B0020AD2B002008B50023AF
:1076A000064A1380064A1370064B1A78064B1A7066
:1076B000FFF700FFBDE80840FFF7B8BE222C00200E
:1076C000660C0020AD2B0020AC2B0020034B1A7859
:1076D0000AB1FFF7E3BF01221A707047660C002061
:1076E00047F650432DE9F04F984289B080460F4647
:1076F00008D14D79C5B10122984B1A70284609B0BE
:10770000BDE8F08F47F65143984204D14D795DB101
:10771000FFF7C4FFF2E747F65243984204D14D7990
:1077200015B1FFF7D3FFE9E78D4B18788D4B1B7828
:107730001843FBF70CFB0446FFF7BAFE844203D064
:107740003988FDF775F880464FF00009864CCDF872
:10775000049000234FF6FF7622681FFA89FB5FFA38
:1077600083FA32F81A502DB1A84508BF1FFA8AF6DD
:107770000133F4E74FF6FF739E4230D0A379002B1C
:1077800062D1764A10787D79002D00F0998000282A
:1077900000F0968021465846FFF792F8E2790346BA
:1077A0004AB90122B240267A1643704A26721188DD
:1077B000814238BF10800126227A06FA0AFA0AF1BD
:1077C000FF3A92450BD16A4A108800283ED00293B6
:1077D00001F008FD029B834238D23546A671019B19
:1077E00009F101091D43EBB2B9F1200F019304F136
:1077F0000C04AED17B79002B00F09F80019B002B05
:1078000000F09B8001F06CFD594B1880594B1C789F
:10781000072C14D8621C1A7039460A2205A8FAF7F8
:10782000D7FE0E22544B05A902FB04330A22184648
:10783000FAF7CEFE4FF6FF72A0F80C804281019B52
:10784000B3FA83F56D0959E728469CE74B4B4C4A40
:107850001B780020029392460C231678029A9642D7
:107860000DD1414A03FB09239842B8D0454B23F878
:1078700016B00136414B06F003061E70AFE7414AD1
:10788000394932F8162003FB0212214610460392B2
:10789000FFF7BAFE0C2378B10121A04281719ED07E
:1078A0009AF80010039A8E4206D1824202BF721CDF
:1078B00002F003028AF80020013606F00306CDE745
:1078C000E579227AA5B9012101FA0AFA0AF1FF3A0B
:1078D000924502D143B900EA01050123B340267A5B
:1078E00026EA030626727AE75846FFF7F5FDF4E725
:1078F000531E42FA06F1134001F001011BD1D1B130
:10790000A188A1B10593069301F0EAFC04238DF848
:107910001830A3880DF1140AADF81600ADF81C302C
:107920009AE80700FCF78EFA0023E371D5E7584682
:10793000FFF77AFDF8E7CDB2CFE7114B1A780F4B7E
:107940001B789A4202D0FFF73DFE78E7FFF76EFD05
:107950000022074B1A80FFF7ADFD70E7660C002090
:10796000E8110020E711002014230020202C002023
:10797000222C00201F2C0020AE2B0020AD2B00203D
:10798000AC2B0020A42B00207047FF230144814230
:1079900001D11846704710F8012B5340082213F00C
:1079A000800F4FEA430318BF83F03103013ADBB283
:1079B000F5D1ECE704207047520002EB810202EBA4
:1079C000C00028307047032838B510D801290ED8D8
:1079D000012A0CD8FFF7F0FF0546FDF7FCFE000278
:1079E00084B2681CFDF7F7FE204380B238BD00204A
:1079F000FCE7032870B51C460FD801290DD8012AD1
:107A00000BD8FFF7D9FF0546190AFDF74CFFE1B285
:107A1000681CBDE87040FDF746BF70BD232802D842
:107A20004830FDF7D8BE00207047232802D84830E0
:107A3000FDF739BF704708B503461F2B084607D826
:107A40000A2202FB03F16C31FDF75BFF002008BD49
:107A50004FF0FF30FBE708B503461F2B084607D859
:107A60000A2202FB03F16C31FDF750FF002008BD34
:107A70004FF0FF30FBE708B503461F2B084608D838
:107A80000A2202FB03F101F5D671FDF73AFF00204F
:107A900008BD4FF0FF30FBE708B503461F2B084633
:107AA00008D80A2202FB03F101F5D671FDF72EFF7B
:107AB000002008BD4FF0FF30FBE708B503461F2B41
:107AC000084608D80A2202FB03F101F53B71FDF7D5
:107AD00018FF002008BD4FF0FF30FBE708B5034654
